{
  "contractName": "CharloDAO",
  "abi": [
    {
      "anonymous": false,
      "inputs": [
        {
          "indexed": false,
          "internalType": "address",
          "name": "fromAddress",
          "type": "address"
        },
        {
          "indexed": false,
          "internalType": "uint256",
          "name": "value",
          "type": "uint256"
        }
      ],
      "name": "ContributionReceived",
      "type": "event"
    },
    {
      "anonymous": false,
      "inputs": [
        {
          "indexed": false,
          "internalType": "address",
          "name": "requester",
          "type": "address"
        },
        {
          "indexed": false,
          "internalType": "uint256",
          "name": "amount",
          "type": "uint256"
        }
      ],
      "name": "NewCharityRequest",
      "type": "event"
    },
    {
      "anonymous": false,
      "inputs": [
        {
          "indexed": false,
          "internalType": "address",
          "name": "shareholder",
          "type": "address"
        }
      ],
      "name": "NewShareholder",
      "type": "event"
    },
    {
      "inputs": [
        {
          "internalType": "uint256",
          "name": "",
          "type": "uint256"
        }
      ],
      "name": "charityRequests",
      "outputs": [
        {
          "internalType": "uint256",
          "name": "id",
          "type": "uint256"
        },
        {
          "internalType": "address payable",
          "name": "requester",
          "type": "address"
        },
        {
          "internalType": "string",
          "name": "description",
          "type": "string"
        },
        {
          "internalType": "uint256",
          "name": "amount",
          "type": "uint256"
        },
        {
          "internalType": "uint256",
          "name": "livePeriod",
          "type": "uint256"
        },
        {
          "internalType": "uint256",
          "name": "votesFor",
          "type": "uint256"
        },
        {
          "internalType": "uint256",
          "name": "votesAgainst",
          "type": "uint256"
        }
      ],
      "stateMutability": "view",
      "type": "function",
      "constant": true
    },
    {
      "inputs": [
        {
          "internalType": "address",
          "name": "",
          "type": "address"
        }
      ],
      "name": "contributors",
      "outputs": [
        {
          "internalType": "uint256",
          "name": "",
          "type": "uint256"
        }
      ],
      "stateMutability": "view",
      "type": "function",
      "constant": true
    },
    {
      "inputs": [],
      "name": "sample",
      "outputs": [
        {
          "internalType": "uint256",
          "name": "",
          "type": "uint256"
        }
      ],
      "stateMutability": "view",
      "type": "function",
      "constant": true
    },
    {
      "inputs": [
        {
          "internalType": "address",
          "name": "",
          "type": "address"
        }
      ],
      "name": "shareholders",
      "outputs": [
        {
          "internalType": "uint256",
          "name": "",
          "type": "uint256"
        }
      ],
      "stateMutability": "view",
      "type": "function",
      "constant": true
    },
    {
      "stateMutability": "payable",
      "type": "receive",
      "payable": true
    },
    {
      "inputs": [
        {
          "internalType": "string",
          "name": "description",
          "type": "string"
        },
        {
          "internalType": "uint256",
          "name": "amount",
          "type": "uint256"
        }
      ],
      "name": "newCharityRequest",
      "outputs": [],
      "stateMutability": "nonpayable",
      "type": "function"
    },
    {
      "inputs": [
        {
          "internalType": "uint256",
          "name": "requestId",
          "type": "uint256"
        },
        {
          "internalType": "bool",
          "name": "supportRequest",
          "type": "bool"
        }
      ],
      "name": "vote",
      "outputs": [],
      "stateMutability": "nonpayable",
      "type": "function"
    }
  ],
  "bytecode": "0x60806040524260025534801561001457600080fd5b50611034806100246000396000f3fe6080604052600436106100595760003560e01c80631f6d49421461028b5780635c2930ad146102c85780635effffa914610305578063c017fc1614610348578063c9482a5d14610371578063c9d27afe1461039c57610286565b36610286576000600660003373ffffffffffffffffffffffffffffffffffffffff1673ffffffffffffffffffffffffffffffffffffffff16815260200190815260200160002054141561019e57600034600560003373ffffffffffffffffffffffffffffffffffffffff1673ffffffffffffffffffffffffffffffffffffffff168152602001908152602001600020546100f39190610cff565b9050674563918244f4000081106101985780600660003373ffffffffffffffffffffffffffffffffffffffff1673ffffffffffffffffffffffffffffffffffffffff168152602001908152602001600020819055506001600081548092919061015b90610e14565b91905055507f390bb96d704012a89e9e8d9b8037ca62bfb257d4d96cebf97648c2e1fa29c6b63360405161018f9190610bae565b60405180910390a15b506101f5565b34600660003373ffffffffffffffffffffffffffffffffffffffff1673ffffffffffffffffffffffffffffffffffffffff16815260200190815260200160002060008282546101ed9190610cff565b925050819055505b34600560003373ffffffffffffffffffffffffffffffffffffffff1673ffffffffffffffffffffffffffffffffffffffff16815260200190815260200160002060008282546102449190610cff565b925050819055507f1bb460ccaaf70fbacfec17a376f8acbd278c1405590ffcc8ebe4b88daf4f64ad333460405161027c929190610bc9565b60405180910390a1005b600080fd5b34801561029757600080fd5b506102b260048036038101906102ad91906109f9565b6103c5565b6040516102bf9190610c52565b60405180910390f35b3480156102d457600080fd5b506102ef60048036038101906102ea91906109f9565b6103dd565b6040516102fc9190610c52565b60405180910390f35b34801561031157600080fd5b5061032c60048036038101906103279190610a7a565b6103f5565b60405161033f9796959493929190610c6d565b60405180910390f35b34801561035457600080fd5b5061036f600480360381019061036a9190610a22565b6104df565b005b34801561037d57600080fd5b506103866105d6565b6040516103939190610c52565b60405180910390f35b3480156103a857600080fd5b506103c360048036038101906103be9190610aa3565b6105dc565b005b60056020528060005260406000206000915090505481565b60066020528060005260406000206000915090505481565b60036020528060005260406000206000915090508060000154908060010160009054906101000a900473ffffffffffffffffffffffffffffffffffffffff169080600201805461044490610de2565b80601f016020809104026020016040519081016040528092919081815260200182805461047090610de2565b80156104bd5780601f10610492576101008083540402835291602001916104bd565b820191906000526020600020905b8154815290600101906020018083116104a057829003601f168201915b5050505050908060030154908060040154908060050154908060060154905087565b60008060008154809291906104f390610e14565b9190505590506000600360008381526020019081526020016000209050818160000181905550338160010160006101000a81548173ffffffffffffffffffffffffffffffffffffffff021916908373ffffffffffffffffffffffffffffffffffffffff160217905550848482600201919061056f9291906108cd565b5082816003018190555062093a8063ffffffff164261058e9190610cff565b81600401819055507f5293ffca986f29d0f2013a3055e590a9208ef0bf1f89e39826fc717edd5285cb33846040516105c7929190610bc9565b60405180910390a15050505050565b60025481565b6000805b600154811015610649576000600660003373ffffffffffffffffffffffffffffffffffffffff1673ffffffffffffffffffffffffffffffffffffffff168152602001908152602001600020541461063657600191505b808061064190610e14565b9150506105e0565b508061068a576040517f08c379a000000000000000000000000000000000000000000000000000000000815260040161068190610c32565b60405180910390fd5b6000600360008581526020019081526020016000209050428160040154106106e7576040517f08c379a00000000000000000000000000000000000000000000000000000000081526004016106de90610c12565b60405180910390fd5b6000600460003373ffffffffffffffffffffffffffffffffffffffff1673ffffffffffffffffffffffffffffffffffffffff16815260200190815260200160002080548060200260200160405190810160405280929190818152602001828054801561077257602002820191906000526020600020905b81548152602001906001019080831161075e575b5050505050905060005b815181101561081b578181815181106107be577f4e487b7100000000000000000000000000000000000000000000000000000000600052603260045260246000fd5b6020026020010151861415610808576040517f08c379a00000000000000000000000000000000000000000000000000000000081526004016107ff90610bf2565b60405180910390fd5b808061081390610e14565b91505061077c565b5083156108415781600501600081548092919061083790610e14565b919050555061085c565b81600601600081548092919061085690610e14565b91905055505b600460003373ffffffffffffffffffffffffffffffffffffffff1673ffffffffffffffffffffffffffffffffffffffff168152602001908152602001600020826000015490806001815401808255809150506001900390600052602060002001600090919091909150555050505050565b8280546108d990610de2565b90600052602060002090601f0160209004810192826108fb5760008555610942565b82601f1061091457803560ff1916838001178555610942565b82800160010185558215610942579182015b82811115610941578235825591602001919060010190610926565b5b50905061094f9190610953565b5090565b5b8082111561096c576000816000905550600101610954565b5090565b60008135905061097f81610fb9565b92915050565b60008135905061099481610fd0565b92915050565b60008083601f8401126109ac57600080fd5b8235905067ffffffffffffffff8111156109c557600080fd5b6020830191508360018202830111156109dd57600080fd5b9250929050565b6000813590506109f381610fe7565b92915050565b600060208284031215610a0b57600080fd5b6000610a1984828501610970565b91505092915050565b600080600060408486031215610a3757600080fd5b600084013567ffffffffffffffff811115610a5157600080fd5b610a5d8682870161099a565b93509350506020610a70868287016109e4565b9150509250925092565b600060208284031215610a8c57600080fd5b6000610a9a848285016109e4565b91505092915050565b60008060408385031215610ab657600080fd5b6000610ac4858286016109e4565b9250506020610ad585828601610985565b9150509250929050565b610ae881610d67565b82525050565b610af781610d55565b82525050565b6000610b0882610ce3565b610b128185610cee565b9350610b22818560208601610daf565b610b2b81610ebb565b840191505092915050565b6000610b43602a83610cee565b9150610b4e82610ecc565b604082019050919050565b6000610b66602683610cee565b9150610b7182610f1b565b604082019050919050565b6000610b89602583610cee565b9150610b9482610f6a565b604082019050919050565b610ba881610da5565b82525050565b6000602082019050610bc36000830184610aee565b92915050565b6000604082019050610bde6000830185610aee565b610beb6020830184610b9f565b9392505050565b60006020820190508181036000830152610c0b81610b36565b9050919050565b60006020820190508181036000830152610c2b81610b59565b9050919050565b60006020820190508181036000830152610c4b81610b7c565b9050919050565b6000602082019050610c676000830184610b9f565b92915050565b600060e082019050610c82600083018a610b9f565b610c8f6020830189610adf565b8181036040830152610ca18188610afd565b9050610cb06060830187610b9f565b610cbd6080830186610b9f565b610cca60a0830185610b9f565b610cd760c0830184610b9f565b98975050505050505050565b600081519050919050565b600082825260208201905092915050565b6000610d0a82610da5565b9150610d1583610da5565b9250827fffffffffffffffffffffffffffffffffffffffffffffffffffffffffffffffff03821115610d4a57610d49610e5d565b5b828201905092915050565b6000610d6082610d85565b9050919050565b6000610d7282610d85565b9050919050565b60008115159050919050565b600073ffffffffffffffffffffffffffffffffffffffff82169050919050565b6000819050919050565b60005b83811015610dcd578082015181840152602081019050610db2565b83811115610ddc576000848401525b50505050565b60006002820490506001821680610dfa57607f821691505b60208210811415610e0e57610e0d610e8c565b5b50919050565b6000610e1f82610da5565b91507fffffffffffffffffffffffffffffffffffffffffffffffffffffffffffffffff821415610e5257610e51610e5d565b5b600182019050919050565b7f4e487b7100000000000000000000000000000000000000000000000000000000600052601160045260246000fd5b7f4e487b7100000000000000000000000000000000000000000000000000000000600052602260045260246000fd5b6000601f19601f8301169050919050565b7f5368617265686f6c64657220616c726561647920766f74656420666f7220746860008201527f6973207265717565737400000000000000000000000000000000000000000000602082015250565b7f5468697320726571756573742063616e206e6f206c6f6e67657220626520766f60008201527f746564206f6e0000000000000000000000000000000000000000000000000000602082015250565b7f4f6e6c79207368617265686f6c646572732061726520616c6c6f77656420746f60008201527f20766f7465000000000000000000000000000000000000000000000000000000602082015250565b610fc281610d55565b8114610fcd57600080fd5b50565b610fd981610d79565b8114610fe457600080fd5b50565b610ff081610da5565b8114610ffb57600080fd5b5056fea26469706673582212206e51adb780ea8783bcbaceffb5e864a2f097a518dddaf4a7cc487de16b20143664736f6c63430008040033",
  "immutableReferences": {},
  "source": "// SPDX-License-Identifier: MIT\npragma solidity ^0.8.0;\n\ncontract CharloDAO {\n    uint32 constant minimumVotingPeriod = 1 weeks;\n    uint256 numOfCharities;\n    uint256 numOfShareholders;\n    uint256 public sample = block.timestamp;\n\n    mapping(uint256 => CharityRequest) public charityRequests;\n    mapping(address => uint256[]) shareHolderVotes;\n    mapping(address => uint256) public contributors;\n    mapping(address => uint256) public shareholders;\n\n    struct CharityRequest {\n        uint256 id;\n        address payable requester;\n        string description;\n        uint256 amount;\n        uint256 livePeriod;\n        uint256 votesFor;\n        uint256 votesAgainst;\n    }\n\n    event ContributionReceived(address fromAddress, uint256 value);\n    event NewShareholder(address shareholder);\n    event NewCharityRequest(address requester, uint256 amount);\n\n    modifier makeShareholder() {\n        if (shareholders[msg.sender] == 0) {\n            uint256 contributed = contributors[msg.sender] + msg.value;\n            if (contributed >= 5 ether) {\n                shareholders[msg.sender] = contributed;\n                numOfShareholders++;\n                emit NewShareholder(msg.sender);\n            }\n        } else {\n            shareholders[msg.sender] += msg.value;\n        }\n        _;\n    }\n\n    modifier onlyShareholder() {\n        bool found = false;\n        for (uint256 i = 0; i < numOfShareholders; i++) {\n            if (shareholders[msg.sender] != 0) found = true;\n        }\n\n        if (!found) revert(\"Only shareholders are allowed to vote\");\n\n        _;\n    }\n\n    function newCharityRequest(string calldata description, uint256 amount)\n        external\n    {\n        uint256 charityId = numOfCharities++;\n        CharityRequest storage request = charityRequests[charityId];\n        request.id = charityId;\n        request.requester = payable(msg.sender);\n        request.description = description;\n        request.amount = amount;\n        request.livePeriod = block.timestamp + minimumVotingPeriod; // Check to make sure block.timestamp gives the right time\n        emit NewCharityRequest(msg.sender, amount);\n    }\n\n    function vote(uint256 requestId, bool supportRequest)\n        external\n        onlyShareholder\n    {\n        CharityRequest storage charityRequest = charityRequests[requestId];\n\n        if (charityRequest.livePeriod >= block.timestamp)\n            revert(\"This request can no longer be voted on\");\n\n        uint256[] memory tempVotes = shareHolderVotes[msg.sender];\n        for (uint256 votes = 0; votes < tempVotes.length; votes++) {\n            if (requestId == tempVotes[votes])\n                revert(\"Shareholder already voted for this request\");\n        }\n\n        if (supportRequest) charityRequest.votesFor++;\n        else charityRequest.votesAgainst++;\n\n        shareHolderVotes[msg.sender].push(charityRequest.id);\n    }\n\n    // function sendCelo(uint256 amount, address payable receiver)\n    //     external\n    //     returns (bool)\n    // {\n    //     receiver.transfer(amount);\n    // }\n\n    receive() external payable makeShareholder {\n        contributors[msg.sender] += msg.value;\n        emit ContributionReceived(msg.sender, msg.value);\n    }\n}\n",
  "sourcePath": "/Users/mac/Projects/PhoenixTech/Tutorials/projects/charlo/contracts/CharloDAO.sol",
  "compiler": {
    "name": "solc",
    "version": "0.8.4+commit.c7e474f2.Emscripten.clang"
  },
  "schemaVersion": "3.3.4",
  "updatedAt": "2021-05-13T19:53:38.091Z",
  "networkType": "ethereum",
  "devdoc": {
    "kind": "dev",
    "methods": {},
    "version": 1
  },
  "userdoc": {
    "kind": "user",
    "methods": {},
    "version": 1
  }
}