{
  "contractName": "CharloDAO",
  "abi": [
    {
      "anonymous": false,
      "inputs": [
        {
          "indexed": true,
          "internalType": "address",
          "name": "fromAddress",
          "type": "address"
        },
        {
          "indexed": false,
          "internalType": "uint256",
          "name": "amount",
          "type": "uint256"
        }
      ],
      "name": "ContributionReceived",
      "type": "event"
    },
    {
      "anonymous": false,
      "inputs": [
        {
          "indexed": true,
          "internalType": "address",
          "name": "proposer",
          "type": "address"
        },
        {
          "indexed": false,
          "internalType": "uint256",
          "name": "amount",
          "type": "uint256"
        }
      ],
      "name": "NewCharityProposal",
      "type": "event"
    },
    {
      "anonymous": false,
      "inputs": [
        {
          "indexed": true,
          "internalType": "address",
          "name": "stakeholder",
          "type": "address"
        },
        {
          "indexed": true,
          "internalType": "address",
          "name": "charityAddress",
          "type": "address"
        },
        {
          "indexed": false,
          "internalType": "uint256",
          "name": "amount",
          "type": "uint256"
        }
      ],
      "name": "PaymentTransfered",
      "type": "event"
    },
    {
      "anonymous": false,
      "inputs": [
        {
          "indexed": true,
          "internalType": "bytes32",
          "name": "role",
          "type": "bytes32"
        },
        {
          "indexed": true,
          "internalType": "bytes32",
          "name": "previousAdminRole",
          "type": "bytes32"
        },
        {
          "indexed": true,
          "internalType": "bytes32",
          "name": "newAdminRole",
          "type": "bytes32"
        }
      ],
      "name": "RoleAdminChanged",
      "type": "event"
    },
    {
      "anonymous": false,
      "inputs": [
        {
          "indexed": true,
          "internalType": "bytes32",
          "name": "role",
          "type": "bytes32"
        },
        {
          "indexed": true,
          "internalType": "address",
          "name": "account",
          "type": "address"
        },
        {
          "indexed": true,
          "internalType": "address",
          "name": "sender",
          "type": "address"
        }
      ],
      "name": "RoleGranted",
      "type": "event"
    },
    {
      "anonymous": false,
      "inputs": [
        {
          "indexed": true,
          "internalType": "bytes32",
          "name": "role",
          "type": "bytes32"
        },
        {
          "indexed": true,
          "internalType": "address",
          "name": "account",
          "type": "address"
        },
        {
          "indexed": true,
          "internalType": "address",
          "name": "sender",
          "type": "address"
        }
      ],
      "name": "RoleRevoked",
      "type": "event"
    },
    {
      "inputs": [],
      "name": "CONTRIBUTOR_ROLE",
      "outputs": [
        {
          "internalType": "bytes32",
          "name": "",
          "type": "bytes32"
        }
      ],
      "stateMutability": "view",
      "type": "function",
      "constant": true
    },
    {
      "inputs": [],
      "name": "DEFAULT_ADMIN_ROLE",
      "outputs": [
        {
          "internalType": "bytes32",
          "name": "",
          "type": "bytes32"
        }
      ],
      "stateMutability": "view",
      "type": "function",
      "constant": true
    },
    {
      "inputs": [],
      "name": "STAKEHOLDER_ROLE",
      "outputs": [
        {
          "internalType": "bytes32",
          "name": "",
          "type": "bytes32"
        }
      ],
      "stateMutability": "view",
      "type": "function",
      "constant": true
    },
    {
      "inputs": [
        {
          "internalType": "bytes32",
          "name": "role",
          "type": "bytes32"
        }
      ],
      "name": "getRoleAdmin",
      "outputs": [
        {
          "internalType": "bytes32",
          "name": "",
          "type": "bytes32"
        }
      ],
      "stateMutability": "view",
      "type": "function",
      "constant": true
    },
    {
      "inputs": [
        {
          "internalType": "bytes32",
          "name": "role",
          "type": "bytes32"
        },
        {
          "internalType": "address",
          "name": "account",
          "type": "address"
        }
      ],
      "name": "grantRole",
      "outputs": [],
      "stateMutability": "nonpayable",
      "type": "function"
    },
    {
      "inputs": [
        {
          "internalType": "bytes32",
          "name": "role",
          "type": "bytes32"
        },
        {
          "internalType": "address",
          "name": "account",
          "type": "address"
        }
      ],
      "name": "hasRole",
      "outputs": [
        {
          "internalType": "bool",
          "name": "",
          "type": "bool"
        }
      ],
      "stateMutability": "view",
      "type": "function",
      "constant": true
    },
    {
      "inputs": [
        {
          "internalType": "bytes32",
          "name": "role",
          "type": "bytes32"
        },
        {
          "internalType": "address",
          "name": "account",
          "type": "address"
        }
      ],
      "name": "renounceRole",
      "outputs": [],
      "stateMutability": "nonpayable",
      "type": "function"
    },
    {
      "inputs": [
        {
          "internalType": "bytes32",
          "name": "role",
          "type": "bytes32"
        },
        {
          "internalType": "address",
          "name": "account",
          "type": "address"
        }
      ],
      "name": "revokeRole",
      "outputs": [],
      "stateMutability": "nonpayable",
      "type": "function"
    },
    {
      "inputs": [
        {
          "internalType": "bytes4",
          "name": "interfaceId",
          "type": "bytes4"
        }
      ],
      "name": "supportsInterface",
      "outputs": [
        {
          "internalType": "bool",
          "name": "",
          "type": "bool"
        }
      ],
      "stateMutability": "view",
      "type": "function",
      "constant": true
    },
    {
      "stateMutability": "payable",
      "type": "receive",
      "payable": true
    },
    {
      "inputs": [
        {
          "internalType": "string",
          "name": "description",
          "type": "string"
        },
        {
          "internalType": "address",
          "name": "charityAddress",
          "type": "address"
        },
        {
          "internalType": "uint256",
          "name": "amount",
          "type": "uint256"
        }
      ],
      "name": "createProposal",
      "outputs": [],
      "stateMutability": "nonpayable",
      "type": "function"
    },
    {
      "inputs": [
        {
          "internalType": "uint256",
          "name": "proposalId",
          "type": "uint256"
        },
        {
          "internalType": "bool",
          "name": "supportProposal",
          "type": "bool"
        }
      ],
      "name": "vote",
      "outputs": [],
      "stateMutability": "nonpayable",
      "type": "function"
    },
    {
      "inputs": [
        {
          "internalType": "uint256",
          "name": "proposalId",
          "type": "uint256"
        }
      ],
      "name": "payCharity",
      "outputs": [],
      "stateMutability": "nonpayable",
      "type": "function"
    },
    {
      "inputs": [],
      "name": "getProposals",
      "outputs": [
        {
          "components": [
            {
              "internalType": "uint256",
              "name": "id",
              "type": "uint256"
            },
            {
              "internalType": "uint256",
              "name": "amount",
              "type": "uint256"
            },
            {
              "internalType": "uint256",
              "name": "livePeriod",
              "type": "uint256"
            },
            {
              "internalType": "uint256",
              "name": "votesFor",
              "type": "uint256"
            },
            {
              "internalType": "uint256",
              "name": "votesAgainst",
              "type": "uint256"
            },
            {
              "internalType": "string",
              "name": "description",
              "type": "string"
            },
            {
              "internalType": "bool",
              "name": "votingPassed",
              "type": "bool"
            },
            {
              "internalType": "bool",
              "name": "paid",
              "type": "bool"
            },
            {
              "internalType": "address payable",
              "name": "charityAddress",
              "type": "address"
            },
            {
              "internalType": "address",
              "name": "proposer",
              "type": "address"
            },
            {
              "internalType": "address",
              "name": "paidBy",
              "type": "address"
            }
          ],
          "internalType": "struct CharloDAO.CharityProposal[]",
          "name": "props",
          "type": "tuple[]"
        }
      ],
      "stateMutability": "view",
      "type": "function",
      "constant": true
    },
    {
      "inputs": [
        {
          "internalType": "uint256",
          "name": "proposalId",
          "type": "uint256"
        }
      ],
      "name": "getProposal",
      "outputs": [
        {
          "components": [
            {
              "internalType": "uint256",
              "name": "id",
              "type": "uint256"
            },
            {
              "internalType": "uint256",
              "name": "amount",
              "type": "uint256"
            },
            {
              "internalType": "uint256",
              "name": "livePeriod",
              "type": "uint256"
            },
            {
              "internalType": "uint256",
              "name": "votesFor",
              "type": "uint256"
            },
            {
              "internalType": "uint256",
              "name": "votesAgainst",
              "type": "uint256"
            },
            {
              "internalType": "string",
              "name": "description",
              "type": "string"
            },
            {
              "internalType": "bool",
              "name": "votingPassed",
              "type": "bool"
            },
            {
              "internalType": "bool",
              "name": "paid",
              "type": "bool"
            },
            {
              "internalType": "address payable",
              "name": "charityAddress",
              "type": "address"
            },
            {
              "internalType": "address",
              "name": "proposer",
              "type": "address"
            },
            {
              "internalType": "address",
              "name": "paidBy",
              "type": "address"
            }
          ],
          "internalType": "struct CharloDAO.CharityProposal",
          "name": "",
          "type": "tuple"
        }
      ],
      "stateMutability": "view",
      "type": "function",
      "constant": true
    },
    {
      "inputs": [
        {
          "internalType": "address",
          "name": "stakeholder",
          "type": "address"
        }
      ],
      "name": "getStakeholderVotes",
      "outputs": [
        {
          "internalType": "uint256[]",
          "name": "",
          "type": "uint256[]"
        }
      ],
      "stateMutability": "view",
      "type": "function",
      "constant": true
    },
    {
      "inputs": [
        {
          "internalType": "address",
          "name": "stakeholder",
          "type": "address"
        }
      ],
      "name": "getStakeholderBalance",
      "outputs": [
        {
          "internalType": "uint256",
          "name": "",
          "type": "uint256"
        }
      ],
      "stateMutability": "view",
      "type": "function",
      "constant": true
    },
    {
      "inputs": [
        {
          "internalType": "address",
          "name": "stakeholder",
          "type": "address"
        }
      ],
      "name": "isStakeholder",
      "outputs": [
        {
          "internalType": "bool",
          "name": "",
          "type": "bool"
        }
      ],
      "stateMutability": "view",
      "type": "function",
      "constant": true
    },
    {
      "inputs": [
        {
          "internalType": "address",
          "name": "contributor",
          "type": "address"
        }
      ],
      "name": "getContributorBalance",
      "outputs": [
        {
          "internalType": "uint256",
          "name": "",
          "type": "uint256"
        }
      ],
      "stateMutability": "view",
      "type": "function",
      "constant": true
    },
    {
      "inputs": [
        {
          "internalType": "address",
          "name": "contributor",
          "type": "address"
        }
      ],
      "name": "isContributor",
      "outputs": [
        {
          "internalType": "bool",
          "name": "",
          "type": "bool"
        }
      ],
      "stateMutability": "view",
      "type": "function",
      "constant": true
    }
  ],
  "bytecode": "0x608060405234801561001057600080fd5b506001600081905550612fed806100286000396000f3fe6080604052600436106101185760003560e01c8063831c43ac116100a0578063c9d27afe11610064578063c9d27afe146103fc578063d207c62e14610425578063d547741f14610462578063eafb79e21461048b578063ef037b90146104b657610127565b8063831c43ac146102f157806391d148541461031a5780639f9e8efa14610357578063a217fddf14610394578063c7f758a8146103bf57610127565b80632b7fac73116100e75780632b7fac731461020c5780632f2ff15d1461023757806336568abe1461026057806362564c481461028957806368b870d8146102b457610127565b806301ffc9a71461012c57806309b249d6146101695780631d0d35f514610192578063248a9ca3146101cf57610127565b36610127576101256104f3565b005b600080fd5b34801561013857600080fd5b50610153600480360381019061014e91906121bb565b6107b5565b6040516101609190612834565b60405180910390f35b34801561017557600080fd5b50610190600480360381019061018b9190612250565b61082f565b005b34801561019e57600080fd5b506101b960048036038101906101b4919061212d565b610a86565b6040516101c69190612834565b60405180910390f35b3480156101db57600080fd5b506101f660048036038101906101f19190612156565b610ad1565b604051610203919061284f565b60405180910390f35b34801561021857600080fd5b50610221610af1565b60405161022e919061284f565b60405180910390f35b34801561024357600080fd5b5061025e6004803603810190610259919061217f565b610b15565b005b34801561026c57600080fd5b506102876004803603810190610282919061217f565b610b3e565b005b34801561029557600080fd5b5061029e610bc1565b6040516102ab91906127f0565b60405180910390f35b3480156102c057600080fd5b506102db60048036038101906102d6919061212d565b610ed0565b6040516102e8919061296e565b60405180910390f35b3480156102fd57600080fd5b50610318600480360381019061031391906121e4565b610fbd565b005b34801561032657600080fd5b50610341600480360381019061033c919061217f565b611195565b60405161034e9190612834565b60405180910390f35b34801561036357600080fd5b5061037e6004803603810190610379919061212d565b611200565b60405161038b9190612812565b60405180910390f35b3480156103a057600080fd5b506103a9611297565b6040516103b6919061284f565b60405180910390f35b3480156103cb57600080fd5b506103e660048036038101906103e19190612250565b61129e565b6040516103f3919061294c565b60405180910390f35b34801561040857600080fd5b50610423600480360381019061041e9190612279565b6114c8565b005b34801561043157600080fd5b5061044c6004803603810190610447919061212d565b61161e565b604051610459919061296e565b60405180910390f35b34801561046e57600080fd5b506104896004803603810190610484919061217f565b61170b565b005b34801561049757600080fd5b506104a0611734565b6040516104ad919061284f565b60405180910390f35b3480156104c257600080fd5b506104dd60048036038101906104d8919061212d565b611758565b6040516104ea9190612834565b60405180910390f35b600033905060003490506105277ff4bb84e1768dd286358a736d195a0b228621173f655a73b89bf8b191ed0ba07d83611195565b61070457600081600560008573ffffffffffffffffffffffffffffffffffffffff1673ffffffffffffffffffffffffffffffffffffffff168152602001908152602001600020546105789190612a33565b9050680ad78ebc5ac6200000811061067d5780600660008573ffffffffffffffffffffffffffffffffffffffff1673ffffffffffffffffffffffffffffffffffffffff1681526020019081526020016000208190555081600560008573ffffffffffffffffffffffffffffffffffffffff1673ffffffffffffffffffffffffffffffffffffffff168152602001908152602001600020600082825461061d9190612a33565b9250508190555061064e7ff4bb84e1768dd286358a736d195a0b228621173f655a73b89bf8b191ed0ba07d846117a3565b6106787fa0bb1af1c90aa52ed052b92714ff0087008cc720049bf1af77cca2600b31e80c846117a3565b6106fe565b81600560008573ffffffffffffffffffffffffffffffffffffffff1673ffffffffffffffffffffffffffffffffffffffff16815260200190815260200160002060008282546106cc9190612a33565b925050819055506106fd7fa0bb1af1c90aa52ed052b92714ff0087008cc720049bf1af77cca2600b31e80c846117a3565b5b506107b1565b80600560008473ffffffffffffffffffffffffffffffffffffffff1673ffffffffffffffffffffffffffffffffffffffff16815260200190815260200160002060008282546107539190612a33565b9250508190555080600660008473ffffffffffffffffffffffffffffffffffffffff1673ffffffffffffffffffffffffffffffffffffffff16815260200190815260200160002060008282546107a99190612a33565b925050819055505b5050565b60007f7965db0b000000000000000000000000000000000000000000000000000000007bffffffffffffffffffffffffffffffffffffffffffffffffffffffff1916827bffffffffffffffffffffffffffffffffffffffffffffffffffffffff191614806108285750610827826117b1565b5b9050919050565b6040518060600160405280602e8152602001612f65602e91396108727ff4bb84e1768dd286358a736d195a0b228621173f655a73b89bf8b191ed0ba07d33611195565b81906108b4576040517f08c379a00000000000000000000000000000000000000000000000000000000081526004016108ab919061286a565b60405180910390fd5b5060006003600084815260200190815260200160002090508060060160019054906101000a900460ff161561091e576040517f08c379a00000000000000000000000000000000000000000000000000000000081526004016109159061290c565b60405180910390fd5b8060040154816003015411610968576040517f08c379a000000000000000000000000000000000000000000000000000000000815260040161095f906128cc565b60405180910390fd5b60018160060160016101000a81548160ff0219169083151502179055508060060160029054906101000a900473ffffffffffffffffffffffffffffffffffffffff1673ffffffffffffffffffffffffffffffffffffffff163373ffffffffffffffffffffffffffffffffffffffff167ffdb2bc0ebc2e58404f3ad5b20d3ec351f2b7b7bf6a21e18beaa7d296d2f01ba58360010154604051610a0a919061296e565b60405180910390a38060060160029054906101000a900473ffffffffffffffffffffffffffffffffffffffff1673ffffffffffffffffffffffffffffffffffffffff166108fc82600101549081150290604051600060405180830381858888f19350505050158015610a80573d6000803e3d6000fd5b50505050565b600080600560008473ffffffffffffffffffffffffffffffffffffffff1673ffffffffffffffffffffffffffffffffffffffff16815260200190815260200160002054119050919050565b600060016000838152602001908152602001600020600101549050919050565b7ff4bb84e1768dd286358a736d195a0b228621173f655a73b89bf8b191ed0ba07d81565b610b1e82610ad1565b610b2f81610b2a61181b565b611823565b610b3983836118c0565b505050565b610b4661181b565b73ffffffffffffffffffffffffffffffffffffffff168173ffffffffffffffffffffffffffffffffffffffff1614610bb3576040517f08c379a0000000000000000000000000000000000000000000000000000000008152600401610baa9061292c565b60405180910390fd5b610bbd82826119a0565b5050565b60606001600254610bd29190612a33565b67ffffffffffffffff811115610c11577f4e487b7100000000000000000000000000000000000000000000000000000000600052604160045260246000fd5b604051908082528060200260200182016040528015610c4a57816020015b610c37611f37565b815260200190600190039081610c2f5790505b50905060005b600254811015610ecc5760036000828152602001908152602001600020604051806101600160405290816000820154815260200160018201548152602001600282015481526020016003820154815260200160048201548152602001600582018054610cbb90612bd0565b80601f0160208091040260200160405190810160405280929190818152602001828054610ce790612bd0565b8015610d345780601f10610d0957610100808354040283529160200191610d34565b820191906000526020600020905b815481529060010190602001808311610d1757829003601f168201915b505050505081526020016006820160009054906101000a900460ff161515151581526020016006820160019054906101000a900460ff161515151581526020016006820160029054906101000a900473ffffffffffffffffffffffffffffffffffffffff1673ffffffffffffffffffffffffffffffffffffffff1673ffffffffffffffffffffffffffffffffffffffff1681526020016007820160009054906101000a900473ffffffffffffffffffffffffffffffffffffffff1673ffffffffffffffffffffffffffffffffffffffff1673ffffffffffffffffffffffffffffffffffffffff1681526020016008820160009054906101000a900473ffffffffffffffffffffffffffffffffffffffff1673ffffffffffffffffffffffffffffffffffffffff1673ffffffffffffffffffffffffffffffffffffffff1681525050828281518110610eae577f4e487b7100000000000000000000000000000000000000000000000000000000600052603260045260246000fd5b60200260200101819052508080610ec490612c02565b915050610c50565b5090565b60006040518060400160405280601981526020017f55736572206973206e6f74206120636f6e7472696275746f7200000000000000815250610f327fa0bb1af1c90aa52ed052b92714ff0087008cc720049bf1af77cca2600b31e80c33611195565b8190610f74576040517f08c379a0000000000000000000000000000000000000000000000000000000008152600401610f6b919061286a565b60405180910390fd5b50600560008473ffffffffffffffffffffffffffffffffffffffff1673ffffffffffffffffffffffffffffffffffffffff16815260200190815260200160002054915050919050565b604051806060016040528060318152602001612f34603191396110007ff4bb84e1768dd286358a736d195a0b228621173f655a73b89bf8b191ed0ba07d33611195565b8190611042576040517f08c379a0000000000000000000000000000000000000000000000000000000008152600401611039919061286a565b60405180910390fd5b5060006002600081548092919061105890612c02565b9190505590506000600360008381526020019081526020016000209050818160000181905550338160070160006101000a81548173ffffffffffffffffffffffffffffffffffffffff021916908373ffffffffffffffffffffffffffffffffffffffff16021790555086868260050191906110d4929190611fd7565b50848160060160026101000a81548173ffffffffffffffffffffffffffffffffffffffff021916908373ffffffffffffffffffffffffffffffffffffffff16021790555083816001018190555062093a8063ffffffff16426111369190612a33565b81600201819055503373ffffffffffffffffffffffffffffffffffffffff167fde0de3e1063d1a2b43ea01642e4e063713543716ff7d67f30c45ff96dd8fb69785604051611184919061296e565b60405180910390a250505050505050565b60006001600084815260200190815260200160002060000160008373ffffffffffffffffffffffffffffffffffffffff1673ffffffffffffffffffffffffffffffffffffffff16815260200190815260200160002060009054906101000a900460ff16905092915050565b6060600460008373ffffffffffffffffffffffffffffffffffffffff1673ffffffffffffffffffffffffffffffffffffffff16815260200190815260200160002080548060200260200160405190810160405280929190818152602001828054801561128b57602002820191906000526020600020905b815481526020019060010190808311611277575b50505050509050919050565b6000801b81565b6112a6611f37565b6003600083815260200190815260200160002060405180610160016040529081600082015481526020016001820154815260200160028201548152602001600382015481526020016004820154815260200160058201805461130790612bd0565b80601f016020809104026020016040519081016040528092919081815260200182805461133390612bd0565b80156113805780601f1061135557610100808354040283529160200191611380565b820191906000526020600020905b81548152906001019060200180831161136357829003601f168201915b505050505081526020016006820160009054906101000a900460ff161515151581526020016006820160019054906101000a900460ff161515151581526020016006820160029054906101000a900473ffffffffffffffffffffffffffffffffffffffff1673ffffffffffffffffffffffffffffffffffffffff1673ffffffffffffffffffffffffffffffffffffffff1681526020016007820160009054906101000a900473ffffffffffffffffffffffffffffffffffffffff1673ffffffffffffffffffffffffffffffffffffffff1673ffffffffffffffffffffffffffffffffffffffff1681526020016008820160009054906101000a900473ffffffffffffffffffffffffffffffffffffffff1673ffffffffffffffffffffffffffffffffffffffff1673ffffffffffffffffffffffffffffffffffffffff16815250509050919050565b604051806060016040528060258152602001612f936025913961150b7ff4bb84e1768dd286358a736d195a0b228621173f655a73b89bf8b191ed0ba07d33611195565b819061154d576040517f08c379a0000000000000000000000000000000000000000000000000000000008152600401611544919061286a565b60405180910390fd5b50600060036000858152602001908152602001600020905061156e81611a82565b82156115935780600301600081548092919061158990612c02565b91905055506115ae565b8060040160008154809291906115a890612c02565b91905055505b600460003373ffffffffffffffffffffffffffffffffffffffff1673ffffffffffffffffffffffffffffffffffffffff1681526020019081526020016000208160000154908060018154018082558091505060019003906000526020600020016000909190919091505550505050565b60006040518060400160405280601981526020017f55736572206973206e6f742061207374616b65686f6c646572000000000000008152506116807ff4bb84e1768dd286358a736d195a0b228621173f655a73b89bf8b191ed0ba07d33611195565b81906116c2576040517f08c379a00000000000000000000000000000000000000000000000000000000081526004016116b9919061286a565b60405180910390fd5b50600660008473ffffffffffffffffffffffffffffffffffffffff1673ffffffffffffffffffffffffffffffffffffffff16815260200190815260200160002054915050919050565b61171482610ad1565b6117258161172061181b565b611823565b61172f83836119a0565b505050565b7fa0bb1af1c90aa52ed052b92714ff0087008cc720049bf1af77cca2600b31e80c81565b600080600660008473ffffffffffffffffffffffffffffffffffffffff1673ffffffffffffffffffffffffffffffffffffffff16815260200190815260200160002054119050919050565b6117ad82826118c0565b5050565b60007f01ffc9a7000000000000000000000000000000000000000000000000000000007bffffffffffffffffffffffffffffffffffffffffffffffffffffffff1916827bffffffffffffffffffffffffffffffffffffffffffffffffffffffff1916149050919050565b600033905090565b61182d8282611195565b6118bc576118528173ffffffffffffffffffffffffffffffffffffffff166014611c3d565b6118608360001c6020611c3d565b6040516020016118719291906127b6565b6040516020818303038152906040526040517f08c379a00000000000000000000000000000000000000000000000000000000081526004016118b3919061286a565b60405180910390fd5b5050565b6118ca8282611195565b61199c57600180600084815260200190815260200160002060000160008373ffffffffffffffffffffffffffffffffffffffff1673ffffffffffffffffffffffffffffffffffffffff16815260200190815260200160002060006101000a81548160ff02191690831515021790555061194161181b565b73ffffffffffffffffffffffffffffffffffffffff168173ffffffffffffffffffffffffffffffffffffffff16837f2f8788117e7eff1d82e926ec794901d17c78024a50270940304540a733656f0d60405160405180910390a45b5050565b6119aa8282611195565b15611a7e5760006001600084815260200190815260200160002060000160008373ffffffffffffffffffffffffffffffffffffffff1673ffffffffffffffffffffffffffffffffffffffff16815260200190815260200160002060006101000a81548160ff021916908315150217905550611a2361181b565b73ffffffffffffffffffffffffffffffffffffffff168173ffffffffffffffffffffffffffffffffffffffff16837ff6391f5c32d9c69d2a47ea670b442974b53935d1edc7fd64eb21e047a839171b60405160405180910390a45b5050565b8060060160009054906101000a900460ff1680611aa3575042816002015411155b15611b005760018160060160006101000a81548160ff0219169083151502179055506040517f08c379a0000000000000000000000000000000000000000000000000000000008152600401611af7906128ec565b60405180910390fd5b6000600460003373ffffffffffffffffffffffffffffffffffffffff1673ffffffffffffffffffffffffffffffffffffffff168152602001908152602001600020805480602002602001604051908101604052809291908181526020018280548015611b8b57602002820191906000526020600020905b815481526020019060010190808311611b77575b5050505050905060005b8151811015611c3857818181518110611bd7577f4e487b7100000000000000000000000000000000000000000000000000000000600052603260045260246000fd5b602002602001015183600001541415611c25576040517f08c379a0000000000000000000000000000000000000000000000000000000008152600401611c1c906128ac565b60405180910390fd5b8080611c3090612c02565b915050611b95565b505050565b606060006002836002611c509190612a89565b611c5a9190612a33565b67ffffffffffffffff811115611c99577f4e487b7100000000000000000000000000000000000000000000000000000000600052604160045260246000fd5b6040519080825280601f01601f191660200182016040528015611ccb5781602001600182028036833780820191505090505b5090507f300000000000000000000000000000000000000000000000000000000000000081600081518110611d29577f4e487b7100000000000000000000000000000000000000000000000000000000600052603260045260246000fd5b60200101907effffffffffffffffffffffffffffffffffffffffffffffffffffffffffffff1916908160001a9053507f780000000000000000000000000000000000000000000000000000000000000081600181518110611db3577f4e487b7100000000000000000000000000000000000000000000000000000000600052603260045260246000fd5b60200101907effffffffffffffffffffffffffffffffffffffffffffffffffffffffffffff1916908160001a90535060006001846002611df39190612a89565b611dfd9190612a33565b90505b6001811115611ee9577f3031323334353637383961626364656600000000000000000000000000000000600f861660108110611e65577f4e487b7100000000000000000000000000000000000000000000000000000000600052603260045260246000fd5b1a60f81b828281518110611ea2577f4e487b7100000000000000000000000000000000000000000000000000000000600052603260045260246000fd5b60200101907effffffffffffffffffffffffffffffffffffffffffffffffffffffffffffff1916908160001a905350600485901c945080611ee290612ba6565b9050611e00565b5060008414611f2d576040517f08c379a0000000000000000000000000000000000000000000000000000000008152600401611f249061288c565b60405180910390fd5b8091505092915050565b604051806101600160405280600081526020016000815260200160008152602001600081526020016000815260200160608152602001600015158152602001600015158152602001600073ffffffffffffffffffffffffffffffffffffffff168152602001600073ffffffffffffffffffffffffffffffffffffffff168152602001600073ffffffffffffffffffffffffffffffffffffffff1681525090565b828054611fe390612bd0565b90600052602060002090601f016020900481019282612005576000855561204c565b82601f1061201e57803560ff191683800117855561204c565b8280016001018555821561204c579182015b8281111561204b578235825591602001919060010190612030565b5b509050612059919061205d565b5090565b5b8082111561207657600081600090555060010161205e565b5090565b60008135905061208981612ec0565b92915050565b60008135905061209e81612ed7565b92915050565b6000813590506120b381612eee565b92915050565b6000813590506120c881612f05565b92915050565b60008083601f8401126120e057600080fd5b8235905067ffffffffffffffff8111156120f957600080fd5b60208301915083600182028301111561211157600080fd5b9250929050565b60008135905061212781612f1c565b92915050565b60006020828403121561213f57600080fd5b600061214d8482850161207a565b91505092915050565b60006020828403121561216857600080fd5b6000612176848285016120a4565b91505092915050565b6000806040838503121561219257600080fd5b60006121a0858286016120a4565b92505060206121b18582860161207a565b9150509250929050565b6000602082840312156121cd57600080fd5b60006121db848285016120b9565b91505092915050565b600080600080606085870312156121fa57600080fd5b600085013567ffffffffffffffff81111561221457600080fd5b612220878288016120ce565b945094505060206122338782880161207a565b925050604061224487828801612118565b91505092959194509250565b60006020828403121561226257600080fd5b600061227084828501612118565b91505092915050565b6000806040838503121561228c57600080fd5b600061229a85828601612118565b92505060206122ab8582860161208f565b9150509250929050565b60006122c183836125ba565b905092915050565b60006122d58383612798565b60208301905092915050565b6122ea81612af5565b82525050565b6122f981612ae3565b82525050565b600061230a826129a9565b61231481856129e4565b93508360208202850161232685612989565b8060005b85811015612362578484038952815161234385826122b5565b945061234e836129ca565b925060208a0199505060018101905061232a565b50829750879550505050505092915050565b600061237f826129b4565b61238981856129f5565b935061239483612999565b8060005b838110156123c55781516123ac88826122c9565b97506123b7836129d7565b925050600181019050612398565b5085935050505092915050565b6123db81612b07565b82525050565b6123ea81612b07565b82525050565b6123f981612b13565b82525050565b600061240a826129bf565b6124148185612a06565b9350612424818560208601612b73565b61242d81612ca9565b840191505092915050565b6000612443826129bf565b61244d8185612a17565b935061245d818560208601612b73565b61246681612ca9565b840191505092915050565b600061247c826129bf565b6124868185612a28565b9350612496818560208601612b73565b80840191505092915050565b60006124af602083612a17565b91506124ba82612cba565b602082019050919050565b60006124d2602f83612a17565b91506124dd82612ce3565b604082019050919050565b60006124f5603f83612a17565b915061250082612d32565b604082019050919050565b6000612518602983612a17565b915061252382612d81565b604082019050919050565b600061253b601783612a28565b915061254682612dd0565b601782019050919050565b600061255e602583612a17565b915061256982612df9565b604082019050919050565b6000612581601183612a28565b915061258c82612e48565b601182019050919050565b60006125a4602f83612a17565b91506125af82612e71565b604082019050919050565b6000610160830160008301516125d36000860182612798565b5060208301516125e66020860182612798565b5060408301516125f96040860182612798565b50606083015161260c6060860182612798565b50608083015161261f6080860182612798565b5060a083015184820360a086015261263782826123ff565b91505060c083015161264c60c08601826123d2565b5060e083015161265f60e08601826123d2565b506101008301516126746101008601826122e1565b506101208301516126896101208601826122f0565b5061014083015161269e6101408601826122f0565b508091505092915050565b6000610160830160008301516126c26000860182612798565b5060208301516126d56020860182612798565b5060408301516126e86040860182612798565b5060608301516126fb6060860182612798565b50608083015161270e6080860182612798565b5060a083015184820360a086015261272682826123ff565b91505060c083015161273b60c08601826123d2565b5060e083015161274e60e08601826123d2565b506101008301516127636101008601826122e1565b506101208301516127786101208601826122f0565b5061014083015161278d6101408601826122f0565b508091505092915050565b6127a181612b69565b82525050565b6127b081612b69565b82525050565b60006127c18261252e565b91506127cd8285612471565b91506127d882612574565b91506127e48284612471565b91508190509392505050565b6000602082019050818103600083015261280a81846122ff565b905092915050565b6000602082019050818103600083015261282c8184612374565b905092915050565b600060208201905061284960008301846123e1565b92915050565b600060208201905061286460008301846123f0565b92915050565b600060208201905081810360008301526128848184612438565b905092915050565b600060208201905081810360008301526128a5816124a2565b9050919050565b600060208201905081810360008301526128c5816124c5565b9050919050565b600060208201905081810360008301526128e5816124e8565b9050919050565b600060208201905081810360008301526129058161250b565b9050919050565b6000602082019050818103600083015261292581612551565b9050919050565b6000602082019050818103600083015261294581612597565b9050919050565b6000602082019050818103600083015261296681846126a9565b905092915050565b600060208201905061298360008301846127a7565b92915050565b6000819050602082019050919050565b6000819050602082019050919050565b600081519050919050565b600081519050919050565b600081519050919050565b6000602082019050919050565b6000602082019050919050565b600082825260208201905092915050565b600082825260208201905092915050565b600082825260208201905092915050565b600082825260208201905092915050565b600081905092915050565b6000612a3e82612b69565b9150612a4983612b69565b9250827fffffffffffffffffffffffffffffffffffffffffffffffffffffffffffffffff03821115612a7e57612a7d612c4b565b5b828201905092915050565b6000612a9482612b69565b9150612a9f83612b69565b9250817fffffffffffffffffffffffffffffffffffffffffffffffffffffffffffffffff0483118215151615612ad857612ad7612c4b565b5b828202905092915050565b6000612aee82612b49565b9050919050565b6000612b0082612b49565b9050919050565b60008115159050919050565b6000819050919050565b60007fffffffff0000000000000000000000000000000000000000000000000000000082169050919050565b600073ffffffffffffffffffffffffffffffffffffffff82169050919050565b6000819050919050565b60005b83811015612b91578082015181840152602081019050612b76565b83811115612ba0576000848401525b50505050565b6000612bb182612b69565b91506000821415612bc557612bc4612c4b565b5b600182039050919050565b60006002820490506001821680612be857607f821691505b60208210811415612bfc57612bfb612c7a565b5b50919050565b6000612c0d82612b69565b91507fffffffffffffffffffffffffffffffffffffffffffffffffffffffffffffffff821415612c4057612c3f612c4b565b5b600182019050919050565b7f4e487b7100000000000000000000000000000000000000000000000000000000600052601160045260246000fd5b7f4e487b7100000000000000000000000000000000000000000000000000000000600052602260045260246000fd5b6000601f19601f8301169050919050565b7f537472696e67733a20686578206c656e67746820696e73756666696369656e74600082015250565b7f54686973207374616b65686f6c64657220616c726561647920766f746564206f60008201527f6e20746869732070726f706f73616c0000000000000000000000000000000000602082015250565b7f5468652070726f706f73616c20646f6573206e6f74206861766520746865207260008201527f6571756972656420616d6f756e74206f6620766f74657320746f207061737300602082015250565b7f566f74696e6720706572696f642068617320706173736564206f6e207468697360008201527f2070726f706f73616c0000000000000000000000000000000000000000000000602082015250565b7f416363657373436f6e74726f6c3a206163636f756e7420000000000000000000600082015250565b7f5061796d656e7420686173206265656e206d61646520746f207468697320636860008201527f6172697479000000000000000000000000000000000000000000000000000000602082015250565b7f206973206d697373696e6720726f6c6520000000000000000000000000000000600082015250565b7f416363657373436f6e74726f6c3a2063616e206f6e6c792072656e6f756e636560008201527f20726f6c657320666f722073656c660000000000000000000000000000000000602082015250565b612ec981612ae3565b8114612ed457600080fd5b50565b612ee081612b07565b8114612eeb57600080fd5b50565b612ef781612b13565b8114612f0257600080fd5b50565b612f0e81612b1d565b8114612f1957600080fd5b50565b612f2581612b69565b8114612f3057600080fd5b5056fe4f6e6c79207374616b65686f6c646572732061726520616c6c6f77656420746f206372656174652070726f706f73616c734f6e6c79207374616b65686f6c646572732061726520616c6c6f77656420746f206d616b65207061796d656e74734f6e6c79207374616b65686f6c646572732061726520616c6c6f77656420746f20766f7465a264697066735822122037f934c2f00df599c3ab1843fe5005da6b6ae75a83bc2ed8cfcde4d586e75a2264736f6c63430008040033",
  "immutableReferences": {},
  "source": "// SPDX-License-Identifier: MIT\npragma solidity ^0.8.0;\n\nimport \"@openzeppelin/contracts/access/AccessControl.sol\";\nimport \"@openzeppelin/contracts/security/ReentrancyGuard.sol\";\n\n/// @title CharloDAO\n/// @author Segun Ogundipe David\ncontract CharloDAO is ReentrancyGuard, AccessControl {\n    bytes32 public constant CONTRIBUTOR_ROLE = keccak256(\"CONTRIBUTOR\");\n    bytes32 public constant STAKEHOLDER_ROLE = keccak256(\"STAKEHOLDER\");\n    // Constant variable that holds the number of days a proposal can be voted on in seconds.\n    // `weeks` is a suffix provided by solidity. It translates to the total seconds in a week.\n    uint32 constant minimumVotingPeriod = 1 weeks;\n    // This variable is incremented everytime a new charity proposal is added.\n    // It is needed to iterate through the charty proposals as solidity doesn't provide a way to step through mappings.\n    uint256 numOfProposals;\n\n    /// @notice Holds all the charity proposals made in the DAO.\n    mapping(uint256 => CharityProposal) private charityProposals;\n    /// @notice Holds all the stakeholders' address and their total contributions.\n    mapping(address => uint256[]) private stakeholderVotes;\n    /// @notice Holds all the contributors' address and their total contributions.\n    mapping(address => uint256) private contributors;\n    /// Holds all the stakeholders' address and their total contributions.\n    mapping(address => uint256) private stakeholders;\n\n    /// @notice A new type definition that holds the necessary variables that makes up a charity proposal.\n    struct CharityProposal {\n        uint256 id;\n        uint256 amount;\n        uint256 livePeriod;\n        uint256 votesFor;\n        uint256 votesAgainst;\n        string description;\n        bool votingPassed;\n        bool paid;\n        address payable charityAddress;\n        address proposer;\n        address paidBy;\n    }\n\n    /// @notice Event that is emitted when a contribution is received.\n    /// @param fromAddress The address the contribution came from.\n    /// @param amount The amount of celo that was sent.\n    event ContributionReceived(address indexed fromAddress, uint256 amount);\n    /// @notice Event that is emitted when a new proposal is added to the list of proposals.\n    /// @param proposer The address of the contributer/stakeholder that created the proposal.\n    /// @param amount The amount that is requested for.\n    event NewCharityProposal(address indexed proposer, uint256 amount);\n    /// @notice Event that is emitted when payment is made to a charity.\n    /// @param stakeholder The stakeholder tha made the payment.\n    /// @param charityAddress The charity that payment was made to.\n    /// @param amount The amount that was paid.\n    event PaymentTransfered(address indexed stakeholder, address indexed charityAddress, uint256 amount);\n\n    modifier onlyStakeholder(string memory message) {\n        require(hasRole(STAKEHOLDER_ROLE, msg.sender), message);\n        _;\n    }\n\n    modifier onlyContributor(string memory message) {\n        require(hasRole(CONTRIBUTOR_ROLE, msg.sender), message);\n        _;\n    }\n\n    /// @notice Adds a new proposal to the `charityProposals` mapping.\n    /// @param description A brief description of why the proposal should be voted for.\n    /// @param charityAddress The address of the charity.\n    /// @param amount The amount of celo.\n    function createProposal(string calldata description, address charityAddress, uint256 amount)\n        external\n        onlyStakeholder(\"Only stakeholders are allowed to create proposals\")\n    {\n        uint256 proposalId = numOfProposals++;\n        CharityProposal storage proposal = charityProposals[proposalId];\n        proposal.id = proposalId;\n        proposal.proposer = payable(msg.sender);\n        proposal.description = description;\n        proposal.charityAddress = payable(charityAddress);\n        proposal.amount = amount;\n        proposal.livePeriod = block.timestamp + minimumVotingPeriod;\n\n        emit NewCharityProposal(msg.sender, amount);\n    }\n\n    /// @notice Vote for a particular proposal. Only stakeholders are allowed to vote.\n    /// @param proposalId The id of the charity proposal being voted for.\n    /// @param supportProposal true to vote for and false against.\n    function vote(uint256 proposalId, bool supportProposal)\n        external\n        onlyStakeholder(\"Only stakeholders are allowed to vote\")\n    {\n        CharityProposal storage charityProposal = charityProposals[proposalId];\n\n        votable(charityProposal);\n\n        if (supportProposal) charityProposal.votesFor++;\n        else charityProposal.votesAgainst++;\n\n        stakeholderVotes[msg.sender].push(charityProposal.id);\n    }\n\n    /// @notice Contains some conditionals that validate a proposal to be voted on.\n    /// @param charityProposal a parameter just like in doxygen (must be followed by parameter name)\n    function votable(CharityProposal storage charityProposal) private {\n\n        if (charityProposal.votingPassed || charityProposal.livePeriod <= block.timestamp) {\n            charityProposal.votingPassed = true;\n            revert(\"Voting period has passed on this proposal\");\n        }\n\n        uint256[] memory tempVotes = stakeholderVotes[msg.sender];\n        for (uint256 votes = 0; votes < tempVotes.length; votes++) {\n            if (charityProposal.id == tempVotes[votes])\n                revert(\"This stakeholder already voted on this proposal\");\n        }\n    }\n\n    /// @notice This function makes payent to a Charity after the voting period of the proposal. Can only be called by a Stakeholder.\n    /// @param proposalId The id of the proposal to pay to.\n    function payCharity(uint256 proposalId) external onlyStakeholder(\"Only stakeholders are allowed to make payments\") {\n        CharityProposal storage charityProposal = charityProposals[proposalId];\n\n        if (charityProposal.paid)\n            revert(\"Payment has been made to this charity\");\n\n        if (charityProposal.votesFor <= charityProposal.votesAgainst)\n            revert(\n                \"The proposal does not have the required amount of votes to pass\"\n            );\n        \n        charityProposal.paid = true;\n\n        emit PaymentTransfered(msg.sender, charityProposal.charityAddress, charityProposal.amount);\n\n        return charityProposal.charityAddress.transfer(charityProposal.amount);\n    }\n\n    receive() external payable {\n        makeStakeholder();\n    }\n\n    /// @notice This function adds a new stakeholder if the total contribution is >= 200 celo\n    function makeStakeholder() private {\n        address account = msg.sender;\n        uint256 amountContributed = msg.value;\n        if (!hasRole(STAKEHOLDER_ROLE, account)) {\n            uint256 totalContributed =\n                contributors[account] + amountContributed;\n            if (totalContributed >= 200 ether) {\n                stakeholders[account] = totalContributed;\n                contributors[account] += amountContributed;\n                _setupRole(STAKEHOLDER_ROLE, account);\n                _setupRole(CONTRIBUTOR_ROLE, account);\n            } else {\n                contributors[account] += amountContributed;\n                _setupRole(CONTRIBUTOR_ROLE, account);\n            }\n        } else {\n            contributors[account] += amountContributed;\n            stakeholders[account] += amountContributed;\n        }\n    }\n\n    function getProposals() view public returns (CharityProposal[] memory props) {\n        props = new CharityProposal[](numOfProposals + 1);\n\n        for (uint256 index = 0; index < numOfProposals; index++) {\n            props[index] = charityProposals[index];\n        }\n    }\n\n    function getProposal(uint256 proposalId) view public returns (CharityProposal memory) {\n        return charityProposals[proposalId];\n    }\n\n    function getStakeholderVotes(address stakeholder) view public returns (uint256[] memory) {\n        return stakeholderVotes[stakeholder];\n    }\n\n    function getStakeholderBalance(address stakeholder) view public onlyStakeholder(\"User is not a stakeholder\") returns (uint256) {\n        return stakeholders[stakeholder];\n    }\n\n    function isStakeholder(address stakeholder) view public returns (bool) {\n        return stakeholders[stakeholder] > 0;\n    }\n\n    function getContributorBalance(address contributor) view public onlyContributor(\"User is not a contributor\") returns (uint256) {\n        return contributors[contributor];\n    }\n\n    function isContributor(address contributor) view public returns (bool) {\n        return contributors[contributor] > 0;\n    }\n}\n",
  "sourcePath": "/Users/emmanuel/Projects/Tutorials/projects/charlo/contracts/CharloDAO.sol",
  "compiler": {
    "name": "solc",
    "version": "0.8.4+commit.c7e474f2.Emscripten.clang"
  },
  "schemaVersion": "3.4.1",
  "updatedAt": "2021-05-23T19:24:03.061Z",
  "networkType": "ethereum",
  "devdoc": {
    "author": "Segun Ogundipe David",
    "events": {
      "ContributionReceived(address,uint256)": {
        "params": {
          "amount": "The amount of celo that was sent.",
          "fromAddress": "The address the contribution came from."
        }
      },
      "NewCharityProposal(address,uint256)": {
        "params": {
          "amount": "The amount that is requested for.",
          "proposer": "The address of the contributer/stakeholder that created the proposal."
        }
      },
      "PaymentTransfered(address,address,uint256)": {
        "params": {
          "amount": "The amount that was paid.",
          "charityAddress": "The charity that payment was made to.",
          "stakeholder": "The stakeholder tha made the payment."
        }
      }
    },
    "kind": "dev",
    "methods": {
      "createProposal(string,address,uint256)": {
        "params": {
          "amount": "The amount of celo.",
          "charityAddress": "The address of the charity.",
          "description": "A brief description of why the proposal should be voted for."
        }
      },
      "getRoleAdmin(bytes32)": {
        "details": "Returns the admin role that controls `role`. See {grantRole} and {revokeRole}. To change a role's admin, use {_setRoleAdmin}."
      },
      "grantRole(bytes32,address)": {
        "details": "Grants `role` to `account`. If `account` had not been already granted `role`, emits a {RoleGranted} event. Requirements: - the caller must have ``role``'s admin role."
      },
      "hasRole(bytes32,address)": {
        "details": "Returns `true` if `account` has been granted `role`."
      },
      "payCharity(uint256)": {
        "params": {
          "proposalId": "The id of the proposal to pay to."
        }
      },
      "renounceRole(bytes32,address)": {
        "details": "Revokes `role` from the calling account. Roles are often managed via {grantRole} and {revokeRole}: this function's purpose is to provide a mechanism for accounts to lose their privileges if they are compromised (such as when a trusted device is misplaced). If the calling account had been granted `role`, emits a {RoleRevoked} event. Requirements: - the caller must be `account`."
      },
      "revokeRole(bytes32,address)": {
        "details": "Revokes `role` from `account`. If `account` had been granted `role`, emits a {RoleRevoked} event. Requirements: - the caller must have ``role``'s admin role."
      },
      "supportsInterface(bytes4)": {
        "details": "See {IERC165-supportsInterface}."
      },
      "vote(uint256,bool)": {
        "params": {
          "proposalId": "The id of the charity proposal being voted for.",
          "supportProposal": "true to vote for and false against."
        }
      }
    },
    "title": "CharloDAO",
    "version": 1
  },
  "userdoc": {
    "events": {
      "ContributionReceived(address,uint256)": {
        "notice": "Event that is emitted when a contribution is received."
      },
      "NewCharityProposal(address,uint256)": {
        "notice": "Event that is emitted when a new proposal is added to the list of proposals."
      },
      "PaymentTransfered(address,address,uint256)": {
        "notice": "Event that is emitted when payment is made to a charity."
      }
    },
    "kind": "user",
    "methods": {
      "createProposal(string,address,uint256)": {
        "notice": "Adds a new proposal to the `charityProposals` mapping."
      },
      "payCharity(uint256)": {
        "notice": "This function makes payent to a Charity after the voting period of the proposal. Can only be called by a Stakeholder."
      },
      "vote(uint256,bool)": {
        "notice": "Vote for a particular proposal. Only stakeholders are allowed to vote."
      }
    },
    "version": 1
  }
}