{
  "contractName": "CharloDAO",
  "abi": [
    {
      "anonymous": false,
      "inputs": [
        {
          "indexed": false,
          "internalType": "address",
          "name": "fromAddress",
          "type": "address"
        },
        {
          "indexed": false,
          "internalType": "uint256",
          "name": "value",
          "type": "uint256"
        }
      ],
      "name": "ContributionReceived",
      "type": "event"
    },
    {
      "anonymous": false,
      "inputs": [
        {
          "indexed": false,
          "internalType": "address",
          "name": "stakeholder",
          "type": "address"
        }
      ],
      "name": "NewStakeholder",
      "type": "event"
    },
    {
      "inputs": [
        {
          "internalType": "uint256",
          "name": "",
          "type": "uint256"
        }
      ],
      "name": "charityRequests",
      "outputs": [
        {
          "internalType": "uint256",
          "name": "id",
          "type": "uint256"
        },
        {
          "internalType": "address payable",
          "name": "requester",
          "type": "address"
        },
        {
          "internalType": "string",
          "name": "description",
          "type": "string"
        },
        {
          "internalType": "uint256",
          "name": "amount",
          "type": "uint256"
        },
        {
          "internalType": "uint256",
          "name": "livePeriod",
          "type": "uint256"
        },
        {
          "internalType": "uint256",
          "name": "votesFor",
          "type": "uint256"
        },
        {
          "internalType": "uint256",
          "name": "votesAgainst",
          "type": "uint256"
        }
      ],
      "stateMutability": "view",
      "type": "function",
      "constant": true
    },
    {
      "inputs": [
        {
          "internalType": "address",
          "name": "",
          "type": "address"
        }
      ],
      "name": "contributors",
      "outputs": [
        {
          "internalType": "uint256",
          "name": "",
          "type": "uint256"
        }
      ],
      "stateMutability": "view",
      "type": "function",
      "constant": true
    },
    {
      "inputs": [
        {
          "internalType": "address",
          "name": "",
          "type": "address"
        }
      ],
      "name": "stakeholders",
      "outputs": [
        {
          "internalType": "uint256",
          "name": "",
          "type": "uint256"
        }
      ],
      "stateMutability": "view",
      "type": "function",
      "constant": true
    },
    {
      "stateMutability": "payable",
      "type": "receive",
      "payable": true
    },
    {
      "inputs": [
        {
          "internalType": "string",
          "name": "description",
          "type": "string"
        },
        {
          "internalType": "uint256",
          "name": "amount",
          "type": "uint256"
        }
      ],
      "name": "newCharityRequest",
      "outputs": [],
      "stateMutability": "nonpayable",
      "type": "function"
    }
  ],
  "bytecode": "0x608060405234801561001057600080fd5b506001600081905550610b3c806100286000396000f3fe6080604052600436106100435760003560e01c80631f6d49421461025d5780635effffa91461029a578063c017fc16146102dd578063c07cfca91461030657610258565b36610258576000600460003373ffffffffffffffffffffffffffffffffffffffff1673ffffffffffffffffffffffffffffffffffffffff16815260200190815260200160002054141561017057600034600360003373ffffffffffffffffffffffffffffffffffffffff1673ffffffffffffffffffffffffffffffffffffffff168152602001908152602001600020546100dd91906108a8565b9050674563918244f40000811061016a5780600460003373ffffffffffffffffffffffffffffffffffffffff1673ffffffffffffffffffffffffffffffffffffffff168152602001908152602001600020819055507f45353ebbf1c4a0468ba13a94bc212a3b8fc4b624385aa0e9c3fa07045d7d827d336040516101619190610761565b60405180910390a15b506101c7565b34600460003373ffffffffffffffffffffffffffffffffffffffff1673ffffffffffffffffffffffffffffffffffffffff16815260200190815260200160002060008282546101bf91906108a8565b925050819055505b34600360003373ffffffffffffffffffffffffffffffffffffffff1673ffffffffffffffffffffffffffffffffffffffff168152602001908152602001600020600082825461021691906108a8565b925050819055507f1bb460ccaaf70fbacfec17a376f8acbd278c1405590ffcc8ebe4b88daf4f64ad333460405161024e92919061077c565b60405180910390a1005b600080fd5b34801561026957600080fd5b50610284600480360381019061027f9190610655565b610343565b60405161029191906107a5565b60405180910390f35b3480156102a657600080fd5b506102c160048036038101906102bc91906106d2565b61035b565b6040516102d497969594939291906107c0565b60405180910390f35b3480156102e957600080fd5b5061030460048036038101906102ff919061067e565b610445565b005b34801561031257600080fd5b5061032d60048036038101906103289190610655565b610508565b60405161033a91906107a5565b60405180910390f35b60036020528060005260406000206000915090505481565b60026020528060005260406000206000915090508060000154908060010160009054906101000a900473ffffffffffffffffffffffffffffffffffffffff16908060020180546103aa9061098e565b80601f01602080910402602001604051908101604052809291908181526020018280546103d69061098e565b80156104235780601f106103f857610100808354040283529160200191610423565b820191906000526020600020905b81548152906001019060200180831161040657829003601f168201915b5050505050908060030154908060040154908060050154908060060154905087565b60006001600081548092919061045a906109f1565b9190505590506000600260008381526020019081526020016000209050818160000181905550338160010160006101000a81548173ffffffffffffffffffffffffffffffffffffffff021916908373ffffffffffffffffffffffffffffffffffffffff160217905550838160020190805190602001906104db929190610520565b5082816003018190555062093a8063ffffffff16426104fa91906108a8565b816004018190555050505050565b60046020528060005260406000206000915090505481565b82805461052c9061098e565b90600052602060002090601f01602090048101928261054e5760008555610595565b82601f1061056757805160ff1916838001178555610595565b82800160010185558215610595579182015b82811115610594578251825591602001919060010190610579565b5b5090506105a291906105a6565b5090565b5b808211156105bf5760008160009055506001016105a7565b5090565b60006105d66105d18461085b565b610836565b9050828152602081018484840111156105ee57600080fd5b6105f984828561094c565b509392505050565b60008135905061061081610ad8565b92915050565b600082601f83011261062757600080fd5b81356106378482602086016105c3565b91505092915050565b60008135905061064f81610aef565b92915050565b60006020828403121561066757600080fd5b600061067584828501610601565b91505092915050565b6000806040838503121561069157600080fd5b600083013567ffffffffffffffff8111156106ab57600080fd5b6106b785828601610616565b92505060206106c885828601610640565b9150509250929050565b6000602082840312156106e457600080fd5b60006106f284828501610640565b91505092915050565b61070481610910565b82525050565b610713816108fe565b82525050565b60006107248261088c565b61072e8185610897565b935061073e81856020860161095b565b61074781610ac7565b840191505092915050565b61075b81610942565b82525050565b6000602082019050610776600083018461070a565b92915050565b6000604082019050610791600083018561070a565b61079e6020830184610752565b9392505050565b60006020820190506107ba6000830184610752565b92915050565b600060e0820190506107d5600083018a610752565b6107e260208301896106fb565b81810360408301526107f48188610719565b90506108036060830187610752565b6108106080830186610752565b61081d60a0830185610752565b61082a60c0830184610752565b98975050505050505050565b6000610840610851565b905061084c82826109c0565b919050565b6000604051905090565b600067ffffffffffffffff82111561087657610875610a98565b5b61087f82610ac7565b9050602081019050919050565b600081519050919050565b600082825260208201905092915050565b60006108b382610942565b91506108be83610942565b9250827fffffffffffffffffffffffffffffffffffffffffffffffffffffffffffffffff038211156108f3576108f2610a3a565b5b828201905092915050565b600061090982610922565b9050919050565b600061091b82610922565b9050919050565b600073ffffffffffffffffffffffffffffffffffffffff82169050919050565b6000819050919050565b82818337600083830152505050565b60005b8381101561097957808201518184015260208101905061095e565b83811115610988576000848401525b50505050565b600060028204905060018216806109a657607f821691505b602082108114156109ba576109b9610a69565b5b50919050565b6109c982610ac7565b810181811067ffffffffffffffff821117156109e8576109e7610a98565b5b80604052505050565b60006109fc82610942565b91507fffffffffffffffffffffffffffffffffffffffffffffffffffffffffffffffff821415610a2f57610a2e610a3a565b5b600182019050919050565b7f4e487b7100000000000000000000000000000000000000000000000000000000600052601160045260246000fd5b7f4e487b7100000000000000000000000000000000000000000000000000000000600052602260045260246000fd5b7f4e487b7100000000000000000000000000000000000000000000000000000000600052604160045260246000fd5b6000601f19601f8301169050919050565b610ae1816108fe565b8114610aec57600080fd5b50565b610af881610942565b8114610b0357600080fd5b5056fea26469706673582212201777e44a091f15eeecf6fa16d2df14158bd922594213413ea080283bfe95794b64736f6c63430008040033",
  "immutableReferences": {},
  "source": "// SPDX-License-Identifier: MIT\npragma solidity ^0.8.0;\n\nimport \"@openzeppelin/contracts/access/AccessControl.sol\";\nimport \"@openzeppelin/contracts/security/ReentrancyGuard.sol\";\n\ncontract CharloDAO is ReentrancyGuard {\n    uint32 constant minimumVotingPeriod = 1 weeks;\n    uint256 numOfCharities;\n\n    struct CharityRequest {\n        uint256 id;\n        address payable requester;\n        string description;\n        uint256 amount;\n        uint256 livePeriod;\n        uint256 votesFor;\n        uint256 votesAgainst;\n    }\n\n    event ContributionReceived(address fromAddress, uint256 value);\n    event NewStakeholder(address stakeholder);\n\n    mapping(uint256 => CharityRequest) public charityRequests;\n    mapping(address => uint256) public contributors;\n    mapping(address => uint256) public stakeholders;\n\n    modifier makeStakeholder() {\n        if (stakeholders[msg.sender] == 0) {\n            uint256 contributed = contributors[msg.sender] + msg.value;\n            if (contributed >= 5 ether) {\n                stakeholders[msg.sender] = contributed;\n                emit NewStakeholder(msg.sender);\n            }\n        } else {\n            stakeholders[msg.sender] += msg.value;\n        }\n        _;\n    }\n\n    function newCharityRequest(string memory description, uint256 amount)\n        external\n    {\n        uint256 charityId = numOfCharities++;\n        CharityRequest storage request = charityRequests[charityId];\n        request.id = charityId;\n        request.requester = payable(msg.sender);\n        request.description = description;\n        request.amount = amount;\n        request.livePeriod = block.timestamp + minimumVotingPeriod;\n    }\n\n    // function sendCelo(uint256 amount, address payable receiver)\n    //     external\n    //     returns (bool)\n    // {\n    //     receiver.transfer(amount);\n    // }\n\n    receive() external payable makeStakeholder {\n        contributors[msg.sender] += msg.value;\n        emit ContributionReceived(msg.sender, msg.value);\n    }\n}\n",
  "sourcePath": "/Users/mac/Projects/PhoenixTech/Tutorials/projects/charlo/contracts/CharloDAO.sol",
  "compiler": {
    "name": "solc",
    "version": "0.8.4+commit.c7e474f2.Emscripten.clang"
  },
  "schemaVersion": "3.3.4",
  "updatedAt": "2021-05-13T14:09:58.265Z",
  "networkType": "ethereum",
  "devdoc": {
    "kind": "dev",
    "methods": {},
    "version": 1
  },
  "userdoc": {
    "kind": "user",
    "methods": {},
    "version": 1
  }
}