{
  "contractName": "CharloDAO",
  "abi": [
    {
      "anonymous": false,
      "inputs": [
        {
          "indexed": false,
          "internalType": "address",
          "name": "fromAddress",
          "type": "address"
        },
        {
          "indexed": false,
          "internalType": "uint256",
          "name": "value",
          "type": "uint256"
        }
      ],
      "name": "ContributionReceived",
      "type": "event"
    },
    {
      "anonymous": false,
      "inputs": [
        {
          "indexed": false,
          "internalType": "address",
          "name": "stakeholder",
          "type": "address"
        }
      ],
      "name": "NewStakeholder",
      "type": "event"
    },
    {
      "inputs": [
        {
          "internalType": "address",
          "name": "",
          "type": "address"
        }
      ],
      "name": "contributors",
      "outputs": [
        {
          "internalType": "uint256",
          "name": "",
          "type": "uint256"
        }
      ],
      "stateMutability": "view",
      "type": "function",
      "constant": true
    },
    {
      "inputs": [
        {
          "internalType": "address",
          "name": "",
          "type": "address"
        }
      ],
      "name": "stakeholders",
      "outputs": [
        {
          "internalType": "uint256",
          "name": "",
          "type": "uint256"
        }
      ],
      "stateMutability": "view",
      "type": "function",
      "constant": true
    },
    {
      "stateMutability": "payable",
      "type": "receive",
      "payable": true
    }
  ],
  "bytecode": "0x608060405234801561001057600080fd5b506104b8806100206000396000f3fe60806040526004361061002d5760003560e01c80631f6d494214610245578063c07cfca91461028257610240565b36610240576000600160003373ffffffffffffffffffffffffffffffffffffffff1673ffffffffffffffffffffffffffffffffffffffff168152602001908152602001600020541415610159576000346000803373ffffffffffffffffffffffffffffffffffffffff1673ffffffffffffffffffffffffffffffffffffffff168152602001908152602001600020546100c691906103aa565b9050674563918244f4000081106101535780600160003373ffffffffffffffffffffffffffffffffffffffff1673ffffffffffffffffffffffffffffffffffffffff168152602001908152602001600020819055507f45353ebbf1c4a0468ba13a94bc212a3b8fc4b624385aa0e9c3fa07045d7d827d3360405161014a919061034b565b60405180910390a15b506101b0565b34600160003373ffffffffffffffffffffffffffffffffffffffff1673ffffffffffffffffffffffffffffffffffffffff16815260200190815260200160002060008282546101a891906103aa565b925050819055505b346000803373ffffffffffffffffffffffffffffffffffffffff1673ffffffffffffffffffffffffffffffffffffffff16815260200190815260200160002060008282546101fe91906103aa565b925050819055507f1bb460ccaaf70fbacfec17a376f8acbd278c1405590ffcc8ebe4b88daf4f64ad3334604051610236929190610366565b60405180910390a1005b600080fd5b34801561025157600080fd5b5061026c60048036038101906102679190610304565b6102bf565b604051610279919061038f565b60405180910390f35b34801561028e57600080fd5b506102a960048036038101906102a49190610304565b6102d7565b6040516102b6919061038f565b60405180910390f35b60006020528060005260406000206000915090505481565b60016020528060005260406000206000915090505481565b6000813590506102fe8161046b565b92915050565b60006020828403121561031657600080fd5b6000610324848285016102ef565b91505092915050565b61033681610400565b82525050565b61034581610432565b82525050565b6000602082019050610360600083018461032d565b92915050565b600060408201905061037b600083018561032d565b610388602083018461033c565b9392505050565b60006020820190506103a4600083018461033c565b92915050565b60006103b582610432565b91506103c083610432565b9250827fffffffffffffffffffffffffffffffffffffffffffffffffffffffffffffffff038211156103f5576103f461043c565b5b828201905092915050565b600061040b82610412565b9050919050565b600073ffffffffffffffffffffffffffffffffffffffff82169050919050565b6000819050919050565b7f4e487b7100000000000000000000000000000000000000000000000000000000600052601160045260246000fd5b61047481610400565b811461047f57600080fd5b5056fea2646970667358221220f4ff8c249c4959a955d314497dac37771a3971c93cd07a5962bd724c4e6a271964736f6c63430008040033",
  "immutableReferences": {},
  "source": "// SPDX-License-Identifier: MIT\npragma solidity ^0.8.0;\n\nimport \"@openzeppelin/contracts/access/AccessControl.sol\";\n\ncontract CharloDAO {\n    // uint32 constant minimumVotingPeriod = 1 weeks;\n\n    // struct CharityRequest {\n    //     address payable requester;\n    // }\n    event ContributionReceived(address fromAddress, uint256 value);\n    event NewStakeholder(address stakeholder);\n\n    mapping(address => uint256) public contributors;\n    mapping(address => uint256) public stakeholders;\n\n    modifier makeStakeholder() {\n        if (stakeholders[msg.sender] == 0) {\n            uint256 contributed = contributors[msg.sender] + msg.value;\n            if (contributed >= 5 ether) {\n                stakeholders[msg.sender] = contributed;\n                emit NewStakeholder(msg.sender);\n            }\n        } else {\n            stakeholders[msg.sender] += msg.value;\n        }\n        _;\n    }\n\n    // function getBalance() external view returns (uint256 balance) {\n    //     balance = address(this).balance;\n    // }\n\n    // function sendCelo(uint256 amount, address payable receiver)\n    //     external\n    //     returns (bool)\n    // {\n    //     receiver.transfer(amount);\n    // }\n\n    receive() external payable makeStakeholder {\n        contributors[msg.sender] += msg.value;\n        emit ContributionReceived(msg.sender, msg.value);\n    }\n}\n",
  "sourcePath": "/Users/mac/Projects/PhoenixTech/Tutorials/projects/charlo/contracts/CharloDAO.sol",
  "compiler": {
    "name": "solc",
    "version": "0.8.4+commit.c7e474f2.Emscripten.clang"
  },
  "schemaVersion": "3.3.4",
  "updatedAt": "2021-05-11T12:30:46.867Z",
  "networkType": "ethereum",
  "devdoc": {
    "kind": "dev",
    "methods": {},
    "version": 1
  },
  "userdoc": {
    "kind": "user",
    "methods": {},
    "version": 1
  }
}