{
  "contractName": "CharloDAO",
  "abi": [
    {
      "anonymous": false,
      "inputs": [
        {
          "indexed": false,
          "internalType": "address",
          "name": "fromAddress",
          "type": "address"
        },
        {
          "indexed": false,
          "internalType": "uint256",
          "name": "value",
          "type": "uint256"
        }
      ],
      "name": "ContributionReceived",
      "type": "event"
    },
    {
      "inputs": [
        {
          "internalType": "address",
          "name": "",
          "type": "address"
        }
      ],
      "name": "contributors",
      "outputs": [
        {
          "internalType": "uint256",
          "name": "",
          "type": "uint256"
        }
      ],
      "stateMutability": "view",
      "type": "function",
      "constant": true
    },
    {
      "inputs": [
        {
          "internalType": "address",
          "name": "",
          "type": "address"
        }
      ],
      "name": "stakeHolders",
      "outputs": [
        {
          "internalType": "uint256",
          "name": "",
          "type": "uint256"
        }
      ],
      "stateMutability": "view",
      "type": "function",
      "constant": true
    },
    {
      "stateMutability": "payable",
      "type": "receive",
      "payable": true
    }
  ],
  "bytecode": "0x608060405234801561001057600080fd5b5061031f806100206000396000f3fe60806040526004361061002d5760003560e01c80631f6d4942146100c7578063e26ff10a14610104576100c2565b366100c257346000803373ffffffffffffffffffffffffffffffffffffffff1673ffffffffffffffffffffffffffffffffffffffff16815260200190815260200160002060008282546100809190610211565b925050819055507f1bb460ccaaf70fbacfec17a376f8acbd278c1405590ffcc8ebe4b88daf4f64ad33346040516100b89291906101cd565b60405180910390a1005b600080fd5b3480156100d357600080fd5b506100ee60048036038101906100e99190610186565b610141565b6040516100fb91906101f6565b60405180910390f35b34801561011057600080fd5b5061012b60048036038101906101269190610186565b610159565b60405161013891906101f6565b60405180910390f35b60006020528060005260406000206000915090505481565b60016020528060005260406000206000915090505481565b600081359050610180816102d2565b92915050565b60006020828403121561019857600080fd5b60006101a684828501610171565b91505092915050565b6101b881610267565b82525050565b6101c781610299565b82525050565b60006040820190506101e260008301856101af565b6101ef60208301846101be565b9392505050565b600060208201905061020b60008301846101be565b92915050565b600061021c82610299565b915061022783610299565b9250827fffffffffffffffffffffffffffffffffffffffffffffffffffffffffffffffff0382111561025c5761025b6102a3565b5b828201905092915050565b600061027282610279565b9050919050565b600073ffffffffffffffffffffffffffffffffffffffff82169050919050565b6000819050919050565b7f4e487b7100000000000000000000000000000000000000000000000000000000600052601160045260246000fd5b6102db81610267565b81146102e657600080fd5b5056fea2646970667358221220dede8943f82b57be2182950879220050b1418291328e7c0407a0d68b987b368c64736f6c63430008040033",
  "immutableReferences": {},
  "source": "// SPDX-License-Identifier: MIT\npragma solidity ^0.8.0;\n\nimport \"@openzeppelin/contracts/access/AccessControl.sol\";\n\ncontract CharloDAO {\n    // uint32 constant minimumVotingPeriod = 1 weeks;\n\n    // struct CharityRequest {\n    //     address payable requester;\n    // }\n    event ContributionReceived(address fromAddress, uint256 value);\n\n    mapping(address => uint256) public contributors;\n    mapping(address => uint256) public stakeHolders;\n\n    // function getBalance() external view returns (uint256 balance) {\n    //     balance = address(this).balance;\n    // }\n\n    // function sendCelo(uint256 amount, address payable receiver)\n    //     external\n    //     returns (bool)\n    // {\n    //     receiver.transfer(amount);\n    // }\n\n    receive() external payable {\n        contributors[msg.sender] += msg.value;\n        emit ContributionReceived(msg.sender, msg.value);\n    }\n}\n",
  "sourcePath": "/Users/mac/Projects/PhoenixTech/Tutorials/projects/charlo/contracts/CharloDAO.sol",
  "compiler": {
    "name": "solc",
    "version": "0.8.4+commit.c7e474f2.Emscripten.clang"
  },
  "schemaVersion": "3.3.4",
  "updatedAt": "2021-05-11T11:29:38.213Z",
  "networkType": "ethereum",
  "devdoc": {
    "kind": "dev",
    "methods": {},
    "version": 1
  },
  "userdoc": {
    "kind": "user",
    "methods": {},
    "version": 1
  }
}