{
  "contractName": "CharloDAO",
  "abi": [
    {
      "anonymous": false,
      "inputs": [
        {
          "indexed": true,
          "internalType": "address",
          "name": "fromAddress",
          "type": "address"
        },
        {
          "indexed": false,
          "internalType": "uint256",
          "name": "amount",
          "type": "uint256"
        }
      ],
      "name": "ContributionReceived",
      "type": "event"
    },
    {
      "anonymous": false,
      "inputs": [
        {
          "indexed": true,
          "internalType": "address",
          "name": "proposer",
          "type": "address"
        },
        {
          "indexed": false,
          "internalType": "uint256",
          "name": "amount",
          "type": "uint256"
        }
      ],
      "name": "NewCharityProposal",
      "type": "event"
    },
    {
      "anonymous": false,
      "inputs": [
        {
          "indexed": true,
          "internalType": "address",
          "name": "stakeholder",
          "type": "address"
        },
        {
          "indexed": true,
          "internalType": "address",
          "name": "charityAddress",
          "type": "address"
        },
        {
          "indexed": false,
          "internalType": "uint256",
          "name": "amount",
          "type": "uint256"
        }
      ],
      "name": "PaymentTransfered",
      "type": "event"
    },
    {
      "anonymous": false,
      "inputs": [
        {
          "indexed": true,
          "internalType": "bytes32",
          "name": "role",
          "type": "bytes32"
        },
        {
          "indexed": true,
          "internalType": "bytes32",
          "name": "previousAdminRole",
          "type": "bytes32"
        },
        {
          "indexed": true,
          "internalType": "bytes32",
          "name": "newAdminRole",
          "type": "bytes32"
        }
      ],
      "name": "RoleAdminChanged",
      "type": "event"
    },
    {
      "anonymous": false,
      "inputs": [
        {
          "indexed": true,
          "internalType": "bytes32",
          "name": "role",
          "type": "bytes32"
        },
        {
          "indexed": true,
          "internalType": "address",
          "name": "account",
          "type": "address"
        },
        {
          "indexed": true,
          "internalType": "address",
          "name": "sender",
          "type": "address"
        }
      ],
      "name": "RoleGranted",
      "type": "event"
    },
    {
      "anonymous": false,
      "inputs": [
        {
          "indexed": true,
          "internalType": "bytes32",
          "name": "role",
          "type": "bytes32"
        },
        {
          "indexed": true,
          "internalType": "address",
          "name": "account",
          "type": "address"
        },
        {
          "indexed": true,
          "internalType": "address",
          "name": "sender",
          "type": "address"
        }
      ],
      "name": "RoleRevoked",
      "type": "event"
    },
    {
      "inputs": [],
      "name": "CONTRIBUTOR_ROLE",
      "outputs": [
        {
          "internalType": "bytes32",
          "name": "",
          "type": "bytes32"
        }
      ],
      "stateMutability": "view",
      "type": "function",
      "constant": true
    },
    {
      "inputs": [],
      "name": "DEFAULT_ADMIN_ROLE",
      "outputs": [
        {
          "internalType": "bytes32",
          "name": "",
          "type": "bytes32"
        }
      ],
      "stateMutability": "view",
      "type": "function",
      "constant": true
    },
    {
      "inputs": [],
      "name": "STAKEHOLDER_ROLE",
      "outputs": [
        {
          "internalType": "bytes32",
          "name": "",
          "type": "bytes32"
        }
      ],
      "stateMutability": "view",
      "type": "function",
      "constant": true
    },
    {
      "inputs": [
        {
          "internalType": "bytes32",
          "name": "role",
          "type": "bytes32"
        }
      ],
      "name": "getRoleAdmin",
      "outputs": [
        {
          "internalType": "bytes32",
          "name": "",
          "type": "bytes32"
        }
      ],
      "stateMutability": "view",
      "type": "function",
      "constant": true
    },
    {
      "inputs": [
        {
          "internalType": "bytes32",
          "name": "role",
          "type": "bytes32"
        },
        {
          "internalType": "address",
          "name": "account",
          "type": "address"
        }
      ],
      "name": "grantRole",
      "outputs": [],
      "stateMutability": "nonpayable",
      "type": "function"
    },
    {
      "inputs": [
        {
          "internalType": "bytes32",
          "name": "role",
          "type": "bytes32"
        },
        {
          "internalType": "address",
          "name": "account",
          "type": "address"
        }
      ],
      "name": "hasRole",
      "outputs": [
        {
          "internalType": "bool",
          "name": "",
          "type": "bool"
        }
      ],
      "stateMutability": "view",
      "type": "function",
      "constant": true
    },
    {
      "inputs": [
        {
          "internalType": "bytes32",
          "name": "role",
          "type": "bytes32"
        },
        {
          "internalType": "address",
          "name": "account",
          "type": "address"
        }
      ],
      "name": "renounceRole",
      "outputs": [],
      "stateMutability": "nonpayable",
      "type": "function"
    },
    {
      "inputs": [
        {
          "internalType": "bytes32",
          "name": "role",
          "type": "bytes32"
        },
        {
          "internalType": "address",
          "name": "account",
          "type": "address"
        }
      ],
      "name": "revokeRole",
      "outputs": [],
      "stateMutability": "nonpayable",
      "type": "function"
    },
    {
      "inputs": [
        {
          "internalType": "bytes4",
          "name": "interfaceId",
          "type": "bytes4"
        }
      ],
      "name": "supportsInterface",
      "outputs": [
        {
          "internalType": "bool",
          "name": "",
          "type": "bool"
        }
      ],
      "stateMutability": "view",
      "type": "function",
      "constant": true
    },
    {
      "stateMutability": "payable",
      "type": "receive",
      "payable": true
    },
    {
      "inputs": [
        {
          "internalType": "string",
          "name": "description",
          "type": "string"
        },
        {
          "internalType": "address",
          "name": "charityAddress",
          "type": "address"
        },
        {
          "internalType": "uint256",
          "name": "amount",
          "type": "uint256"
        }
      ],
      "name": "createProposal",
      "outputs": [],
      "stateMutability": "nonpayable",
      "type": "function"
    },
    {
      "inputs": [
        {
          "internalType": "uint256",
          "name": "proposalId",
          "type": "uint256"
        },
        {
          "internalType": "bool",
          "name": "supportProposal",
          "type": "bool"
        }
      ],
      "name": "vote",
      "outputs": [],
      "stateMutability": "nonpayable",
      "type": "function"
    },
    {
      "inputs": [
        {
          "internalType": "uint256",
          "name": "proposalId",
          "type": "uint256"
        }
      ],
      "name": "payCharity",
      "outputs": [],
      "stateMutability": "nonpayable",
      "type": "function"
    },
    {
      "inputs": [],
      "name": "getProposals",
      "outputs": [
        {
          "components": [
            {
              "internalType": "uint256",
              "name": "id",
              "type": "uint256"
            },
            {
              "internalType": "uint256",
              "name": "amount",
              "type": "uint256"
            },
            {
              "internalType": "uint256",
              "name": "livePeriod",
              "type": "uint256"
            },
            {
              "internalType": "uint256",
              "name": "votesFor",
              "type": "uint256"
            },
            {
              "internalType": "uint256",
              "name": "votesAgainst",
              "type": "uint256"
            },
            {
              "internalType": "string",
              "name": "description",
              "type": "string"
            },
            {
              "internalType": "bool",
              "name": "votingPassed",
              "type": "bool"
            },
            {
              "internalType": "bool",
              "name": "paid",
              "type": "bool"
            },
            {
              "internalType": "address payable",
              "name": "charityAddress",
              "type": "address"
            },
            {
              "internalType": "address",
              "name": "proposer",
              "type": "address"
            },
            {
              "internalType": "address",
              "name": "paidBy",
              "type": "address"
            }
          ],
          "internalType": "struct CharloDAO.CharityProposal[]",
          "name": "props",
          "type": "tuple[]"
        }
      ],
      "stateMutability": "view",
      "type": "function",
      "constant": true
    },
    {
      "inputs": [
        {
          "internalType": "uint256",
          "name": "proposalId",
          "type": "uint256"
        }
      ],
      "name": "getProposal",
      "outputs": [
        {
          "components": [
            {
              "internalType": "uint256",
              "name": "id",
              "type": "uint256"
            },
            {
              "internalType": "uint256",
              "name": "amount",
              "type": "uint256"
            },
            {
              "internalType": "uint256",
              "name": "livePeriod",
              "type": "uint256"
            },
            {
              "internalType": "uint256",
              "name": "votesFor",
              "type": "uint256"
            },
            {
              "internalType": "uint256",
              "name": "votesAgainst",
              "type": "uint256"
            },
            {
              "internalType": "string",
              "name": "description",
              "type": "string"
            },
            {
              "internalType": "bool",
              "name": "votingPassed",
              "type": "bool"
            },
            {
              "internalType": "bool",
              "name": "paid",
              "type": "bool"
            },
            {
              "internalType": "address payable",
              "name": "charityAddress",
              "type": "address"
            },
            {
              "internalType": "address",
              "name": "proposer",
              "type": "address"
            },
            {
              "internalType": "address",
              "name": "paidBy",
              "type": "address"
            }
          ],
          "internalType": "struct CharloDAO.CharityProposal",
          "name": "",
          "type": "tuple"
        }
      ],
      "stateMutability": "view",
      "type": "function",
      "constant": true
    },
    {
      "inputs": [
        {
          "internalType": "address",
          "name": "stakeholder",
          "type": "address"
        }
      ],
      "name": "getStakeholderVotes",
      "outputs": [
        {
          "internalType": "uint256[]",
          "name": "",
          "type": "uint256[]"
        }
      ],
      "stateMutability": "view",
      "type": "function",
      "constant": true
    },
    {
      "inputs": [
        {
          "internalType": "address",
          "name": "stakeholder",
          "type": "address"
        }
      ],
      "name": "getStakeholderBalance",
      "outputs": [
        {
          "internalType": "uint256",
          "name": "",
          "type": "uint256"
        }
      ],
      "stateMutability": "view",
      "type": "function",
      "constant": true
    },
    {
      "inputs": [
        {
          "internalType": "address",
          "name": "stakeholder",
          "type": "address"
        }
      ],
      "name": "isStakeholder",
      "outputs": [
        {
          "internalType": "bool",
          "name": "",
          "type": "bool"
        }
      ],
      "stateMutability": "view",
      "type": "function",
      "constant": true
    },
    {
      "inputs": [
        {
          "internalType": "address",
          "name": "contributor",
          "type": "address"
        }
      ],
      "name": "getContributorBalance",
      "outputs": [
        {
          "internalType": "uint256",
          "name": "",
          "type": "uint256"
        }
      ],
      "stateMutability": "view",
      "type": "function",
      "constant": true
    },
    {
      "inputs": [
        {
          "internalType": "address",
          "name": "contributor",
          "type": "address"
        }
      ],
      "name": "isContributor",
      "outputs": [
        {
          "internalType": "bool",
          "name": "",
          "type": "bool"
        }
      ],
      "stateMutability": "view",
      "type": "function",
      "constant": true
    }
  ],
  "bytecode": "0x608060405234801561001057600080fd5b506001600081905550612fec806100286000396000f3fe6080604052600436106101185760003560e01c8063831c43ac116100a0578063c9d27afe11610064578063c9d27afe146103fc578063d207c62e14610425578063d547741f14610462578063eafb79e21461048b578063ef037b90146104b657610127565b8063831c43ac146102f157806391d148541461031a5780639f9e8efa14610357578063a217fddf14610394578063c7f758a8146103bf57610127565b80632b7fac73116100e75780632b7fac731461020c5780632f2ff15d1461023757806336568abe1461026057806362564c481461028957806368b870d8146102b457610127565b806301ffc9a71461012c57806309b249d6146101695780631d0d35f514610192578063248a9ca3146101cf57610127565b36610127576101256104f3565b005b600080fd5b34801561013857600080fd5b50610153600480360381019061014e91906121ba565b6107b4565b6040516101609190612833565b60405180910390f35b34801561017557600080fd5b50610190600480360381019061018b919061224f565b61082e565b005b34801561019e57600080fd5b506101b960048036038101906101b4919061212c565b610a85565b6040516101c69190612833565b60405180910390f35b3480156101db57600080fd5b506101f660048036038101906101f19190612155565b610ad0565b604051610203919061284e565b60405180910390f35b34801561021857600080fd5b50610221610af0565b60405161022e919061284e565b60405180910390f35b34801561024357600080fd5b5061025e6004803603810190610259919061217e565b610b14565b005b34801561026c57600080fd5b506102876004803603810190610282919061217e565b610b3d565b005b34801561029557600080fd5b5061029e610bc0565b6040516102ab91906127ef565b60405180910390f35b3480156102c057600080fd5b506102db60048036038101906102d6919061212c565b610ecf565b6040516102e8919061296d565b60405180910390f35b3480156102fd57600080fd5b50610318600480360381019061031391906121e3565b610fbc565b005b34801561032657600080fd5b50610341600480360381019061033c919061217e565b611194565b60405161034e9190612833565b60405180910390f35b34801561036357600080fd5b5061037e6004803603810190610379919061212c565b6111ff565b60405161038b9190612811565b60405180910390f35b3480156103a057600080fd5b506103a9611296565b6040516103b6919061284e565b60405180910390f35b3480156103cb57600080fd5b506103e660048036038101906103e1919061224f565b61129d565b6040516103f3919061294b565b60405180910390f35b34801561040857600080fd5b50610423600480360381019061041e9190612278565b6114c7565b005b34801561043157600080fd5b5061044c6004803603810190610447919061212c565b61161d565b604051610459919061296d565b60405180910390f35b34801561046e57600080fd5b506104896004803603810190610484919061217e565b61170a565b005b34801561049757600080fd5b506104a0611733565b6040516104ad919061284e565b60405180910390f35b3480156104c257600080fd5b506104dd60048036038101906104d8919061212c565b611757565b6040516104ea9190612833565b60405180910390f35b600033905060003490506105277ff4bb84e1768dd286358a736d195a0b228621173f655a73b89bf8b191ed0ba07d83611194565b61070357600081600560008573ffffffffffffffffffffffffffffffffffffffff1673ffffffffffffffffffffffffffffffffffffffff168152602001908152602001600020546105789190612a32565b9050674563918244f40000811061067c5780600660008573ffffffffffffffffffffffffffffffffffffffff1673ffffffffffffffffffffffffffffffffffffffff1681526020019081526020016000208190555081600560008573ffffffffffffffffffffffffffffffffffffffff1673ffffffffffffffffffffffffffffffffffffffff168152602001908152602001600020600082825461061c9190612a32565b9250508190555061064d7ff4bb84e1768dd286358a736d195a0b228621173f655a73b89bf8b191ed0ba07d846117a2565b6106777fa0bb1af1c90aa52ed052b92714ff0087008cc720049bf1af77cca2600b31e80c846117a2565b6106fd565b81600560008573ffffffffffffffffffffffffffffffffffffffff1673ffffffffffffffffffffffffffffffffffffffff16815260200190815260200160002060008282546106cb9190612a32565b925050819055506106fc7fa0bb1af1c90aa52ed052b92714ff0087008cc720049bf1af77cca2600b31e80c846117a2565b5b506107b0565b80600560008473ffffffffffffffffffffffffffffffffffffffff1673ffffffffffffffffffffffffffffffffffffffff16815260200190815260200160002060008282546107529190612a32565b9250508190555080600660008473ffffffffffffffffffffffffffffffffffffffff1673ffffffffffffffffffffffffffffffffffffffff16815260200190815260200160002060008282546107a89190612a32565b925050819055505b5050565b60007f7965db0b000000000000000000000000000000000000000000000000000000007bffffffffffffffffffffffffffffffffffffffffffffffffffffffff1916827bffffffffffffffffffffffffffffffffffffffffffffffffffffffff191614806108275750610826826117b0565b5b9050919050565b6040518060600160405280602e8152602001612f64602e91396108717ff4bb84e1768dd286358a736d195a0b228621173f655a73b89bf8b191ed0ba07d33611194565b81906108b3576040517f08c379a00000000000000000000000000000000000000000000000000000000081526004016108aa9190612869565b60405180910390fd5b5060006003600084815260200190815260200160002090508060060160019054906101000a900460ff161561091d576040517f08c379a00000000000000000000000000000000000000000000000000000000081526004016109149061290b565b60405180910390fd5b8060040154816003015411610967576040517f08c379a000000000000000000000000000000000000000000000000000000000815260040161095e906128cb565b60405180910390fd5b60018160060160016101000a81548160ff0219169083151502179055508060060160029054906101000a900473ffffffffffffffffffffffffffffffffffffffff1673ffffffffffffffffffffffffffffffffffffffff163373ffffffffffffffffffffffffffffffffffffffff167ffdb2bc0ebc2e58404f3ad5b20d3ec351f2b7b7bf6a21e18beaa7d296d2f01ba58360010154604051610a09919061296d565b60405180910390a38060060160029054906101000a900473ffffffffffffffffffffffffffffffffffffffff1673ffffffffffffffffffffffffffffffffffffffff166108fc82600101549081150290604051600060405180830381858888f19350505050158015610a7f573d6000803e3d6000fd5b50505050565b600080600560008473ffffffffffffffffffffffffffffffffffffffff1673ffffffffffffffffffffffffffffffffffffffff16815260200190815260200160002054119050919050565b600060016000838152602001908152602001600020600101549050919050565b7ff4bb84e1768dd286358a736d195a0b228621173f655a73b89bf8b191ed0ba07d81565b610b1d82610ad0565b610b2e81610b2961181a565b611822565b610b3883836118bf565b505050565b610b4561181a565b73ffffffffffffffffffffffffffffffffffffffff168173ffffffffffffffffffffffffffffffffffffffff1614610bb2576040517f08c379a0000000000000000000000000000000000000000000000000000000008152600401610ba99061292b565b60405180910390fd5b610bbc828261199f565b5050565b60606001600254610bd19190612a32565b67ffffffffffffffff811115610c10577f4e487b7100000000000000000000000000000000000000000000000000000000600052604160045260246000fd5b604051908082528060200260200182016040528015610c4957816020015b610c36611f36565b815260200190600190039081610c2e5790505b50905060005b600254811015610ecb5760036000828152602001908152602001600020604051806101600160405290816000820154815260200160018201548152602001600282015481526020016003820154815260200160048201548152602001600582018054610cba90612bcf565b80601f0160208091040260200160405190810160405280929190818152602001828054610ce690612bcf565b8015610d335780601f10610d0857610100808354040283529160200191610d33565b820191906000526020600020905b815481529060010190602001808311610d1657829003601f168201915b505050505081526020016006820160009054906101000a900460ff161515151581526020016006820160019054906101000a900460ff161515151581526020016006820160029054906101000a900473ffffffffffffffffffffffffffffffffffffffff1673ffffffffffffffffffffffffffffffffffffffff1673ffffffffffffffffffffffffffffffffffffffff1681526020016007820160009054906101000a900473ffffffffffffffffffffffffffffffffffffffff1673ffffffffffffffffffffffffffffffffffffffff1673ffffffffffffffffffffffffffffffffffffffff1681526020016008820160009054906101000a900473ffffffffffffffffffffffffffffffffffffffff1673ffffffffffffffffffffffffffffffffffffffff1673ffffffffffffffffffffffffffffffffffffffff1681525050828281518110610ead577f4e487b7100000000000000000000000000000000000000000000000000000000600052603260045260246000fd5b60200260200101819052508080610ec390612c01565b915050610c4f565b5090565b60006040518060400160405280601981526020017f55736572206973206e6f74206120636f6e7472696275746f7200000000000000815250610f317fa0bb1af1c90aa52ed052b92714ff0087008cc720049bf1af77cca2600b31e80c33611194565b8190610f73576040517f08c379a0000000000000000000000000000000000000000000000000000000008152600401610f6a9190612869565b60405180910390fd5b50600560008473ffffffffffffffffffffffffffffffffffffffff1673ffffffffffffffffffffffffffffffffffffffff16815260200190815260200160002054915050919050565b604051806060016040528060318152602001612f3360319139610fff7ff4bb84e1768dd286358a736d195a0b228621173f655a73b89bf8b191ed0ba07d33611194565b8190611041576040517f08c379a00000000000000000000000000000000000000000000000000000000081526004016110389190612869565b60405180910390fd5b5060006002600081548092919061105790612c01565b9190505590506000600360008381526020019081526020016000209050818160000181905550338160070160006101000a81548173ffffffffffffffffffffffffffffffffffffffff021916908373ffffffffffffffffffffffffffffffffffffffff16021790555086868260050191906110d3929190611fd6565b50848160060160026101000a81548173ffffffffffffffffffffffffffffffffffffffff021916908373ffffffffffffffffffffffffffffffffffffffff16021790555083816001018190555062093a8063ffffffff16426111359190612a32565b81600201819055503373ffffffffffffffffffffffffffffffffffffffff167fde0de3e1063d1a2b43ea01642e4e063713543716ff7d67f30c45ff96dd8fb69785604051611183919061296d565b60405180910390a250505050505050565b60006001600084815260200190815260200160002060000160008373ffffffffffffffffffffffffffffffffffffffff1673ffffffffffffffffffffffffffffffffffffffff16815260200190815260200160002060009054906101000a900460ff16905092915050565b6060600460008373ffffffffffffffffffffffffffffffffffffffff1673ffffffffffffffffffffffffffffffffffffffff16815260200190815260200160002080548060200260200160405190810160405280929190818152602001828054801561128a57602002820191906000526020600020905b815481526020019060010190808311611276575b50505050509050919050565b6000801b81565b6112a5611f36565b6003600083815260200190815260200160002060405180610160016040529081600082015481526020016001820154815260200160028201548152602001600382015481526020016004820154815260200160058201805461130690612bcf565b80601f016020809104026020016040519081016040528092919081815260200182805461133290612bcf565b801561137f5780601f106113545761010080835404028352916020019161137f565b820191906000526020600020905b81548152906001019060200180831161136257829003601f168201915b505050505081526020016006820160009054906101000a900460ff161515151581526020016006820160019054906101000a900460ff161515151581526020016006820160029054906101000a900473ffffffffffffffffffffffffffffffffffffffff1673ffffffffffffffffffffffffffffffffffffffff1673ffffffffffffffffffffffffffffffffffffffff1681526020016007820160009054906101000a900473ffffffffffffffffffffffffffffffffffffffff1673ffffffffffffffffffffffffffffffffffffffff1673ffffffffffffffffffffffffffffffffffffffff1681526020016008820160009054906101000a900473ffffffffffffffffffffffffffffffffffffffff1673ffffffffffffffffffffffffffffffffffffffff1673ffffffffffffffffffffffffffffffffffffffff16815250509050919050565b604051806060016040528060258152602001612f926025913961150a7ff4bb84e1768dd286358a736d195a0b228621173f655a73b89bf8b191ed0ba07d33611194565b819061154c576040517f08c379a00000000000000000000000000000000000000000000000000000000081526004016115439190612869565b60405180910390fd5b50600060036000858152602001908152602001600020905061156d81611a81565b82156115925780600301600081548092919061158890612c01565b91905055506115ad565b8060040160008154809291906115a790612c01565b91905055505b600460003373ffffffffffffffffffffffffffffffffffffffff1673ffffffffffffffffffffffffffffffffffffffff1681526020019081526020016000208160000154908060018154018082558091505060019003906000526020600020016000909190919091505550505050565b60006040518060400160405280601981526020017f55736572206973206e6f742061207374616b65686f6c6465720000000000000081525061167f7ff4bb84e1768dd286358a736d195a0b228621173f655a73b89bf8b191ed0ba07d33611194565b81906116c1576040517f08c379a00000000000000000000000000000000000000000000000000000000081526004016116b89190612869565b60405180910390fd5b50600660008473ffffffffffffffffffffffffffffffffffffffff1673ffffffffffffffffffffffffffffffffffffffff16815260200190815260200160002054915050919050565b61171382610ad0565b6117248161171f61181a565b611822565b61172e838361199f565b505050565b7fa0bb1af1c90aa52ed052b92714ff0087008cc720049bf1af77cca2600b31e80c81565b600080600660008473ffffffffffffffffffffffffffffffffffffffff1673ffffffffffffffffffffffffffffffffffffffff16815260200190815260200160002054119050919050565b6117ac82826118bf565b5050565b60007f01ffc9a7000000000000000000000000000000000000000000000000000000007bffffffffffffffffffffffffffffffffffffffffffffffffffffffff1916827bffffffffffffffffffffffffffffffffffffffffffffffffffffffff1916149050919050565b600033905090565b61182c8282611194565b6118bb576118518173ffffffffffffffffffffffffffffffffffffffff166014611c3c565b61185f8360001c6020611c3c565b6040516020016118709291906127b5565b6040516020818303038152906040526040517f08c379a00000000000000000000000000000000000000000000000000000000081526004016118b29190612869565b60405180910390fd5b5050565b6118c98282611194565b61199b57600180600084815260200190815260200160002060000160008373ffffffffffffffffffffffffffffffffffffffff1673ffffffffffffffffffffffffffffffffffffffff16815260200190815260200160002060006101000a81548160ff02191690831515021790555061194061181a565b73ffffffffffffffffffffffffffffffffffffffff168173ffffffffffffffffffffffffffffffffffffffff16837f2f8788117e7eff1d82e926ec794901d17c78024a50270940304540a733656f0d60405160405180910390a45b5050565b6119a98282611194565b15611a7d5760006001600084815260200190815260200160002060000160008373ffffffffffffffffffffffffffffffffffffffff1673ffffffffffffffffffffffffffffffffffffffff16815260200190815260200160002060006101000a81548160ff021916908315150217905550611a2261181a565b73ffffffffffffffffffffffffffffffffffffffff168173ffffffffffffffffffffffffffffffffffffffff16837ff6391f5c32d9c69d2a47ea670b442974b53935d1edc7fd64eb21e047a839171b60405160405180910390a45b5050565b8060060160009054906101000a900460ff1680611aa2575042816002015411155b15611aff5760018160060160006101000a81548160ff0219169083151502179055506040517f08c379a0000000000000000000000000000000000000000000000000000000008152600401611af6906128eb565b60405180910390fd5b6000600460003373ffffffffffffffffffffffffffffffffffffffff1673ffffffffffffffffffffffffffffffffffffffff168152602001908152602001600020805480602002602001604051908101604052809291908181526020018280548015611b8a57602002820191906000526020600020905b815481526020019060010190808311611b76575b5050505050905060005b8151811015611c3757818181518110611bd6577f4e487b7100000000000000000000000000000000000000000000000000000000600052603260045260246000fd5b602002602001015183600001541415611c24576040517f08c379a0000000000000000000000000000000000000000000000000000000008152600401611c1b906128ab565b60405180910390fd5b8080611c2f90612c01565b915050611b94565b505050565b606060006002836002611c4f9190612a88565b611c599190612a32565b67ffffffffffffffff811115611c98577f4e487b7100000000000000000000000000000000000000000000000000000000600052604160045260246000fd5b6040519080825280601f01601f191660200182016040528015611cca5781602001600182028036833780820191505090505b5090507f300000000000000000000000000000000000000000000000000000000000000081600081518110611d28577f4e487b7100000000000000000000000000000000000000000000000000000000600052603260045260246000fd5b60200101907effffffffffffffffffffffffffffffffffffffffffffffffffffffffffffff1916908160001a9053507f780000000000000000000000000000000000000000000000000000000000000081600181518110611db2577f4e487b7100000000000000000000000000000000000000000000000000000000600052603260045260246000fd5b60200101907effffffffffffffffffffffffffffffffffffffffffffffffffffffffffffff1916908160001a90535060006001846002611df29190612a88565b611dfc9190612a32565b90505b6001811115611ee8577f3031323334353637383961626364656600000000000000000000000000000000600f861660108110611e64577f4e487b7100000000000000000000000000000000000000000000000000000000600052603260045260246000fd5b1a60f81b828281518110611ea1577f4e487b7100000000000000000000000000000000000000000000000000000000600052603260045260246000fd5b60200101907effffffffffffffffffffffffffffffffffffffffffffffffffffffffffffff1916908160001a905350600485901c945080611ee190612ba5565b9050611dff565b5060008414611f2c576040517f08c379a0000000000000000000000000000000000000000000000000000000008152600401611f239061288b565b60405180910390fd5b8091505092915050565b604051806101600160405280600081526020016000815260200160008152602001600081526020016000815260200160608152602001600015158152602001600015158152602001600073ffffffffffffffffffffffffffffffffffffffff168152602001600073ffffffffffffffffffffffffffffffffffffffff168152602001600073ffffffffffffffffffffffffffffffffffffffff1681525090565b828054611fe290612bcf565b90600052602060002090601f016020900481019282612004576000855561204b565b82601f1061201d57803560ff191683800117855561204b565b8280016001018555821561204b579182015b8281111561204a57823582559160200191906001019061202f565b5b509050612058919061205c565b5090565b5b8082111561207557600081600090555060010161205d565b5090565b60008135905061208881612ebf565b92915050565b60008135905061209d81612ed6565b92915050565b6000813590506120b281612eed565b92915050565b6000813590506120c781612f04565b92915050565b60008083601f8401126120df57600080fd5b8235905067ffffffffffffffff8111156120f857600080fd5b60208301915083600182028301111561211057600080fd5b9250929050565b60008135905061212681612f1b565b92915050565b60006020828403121561213e57600080fd5b600061214c84828501612079565b91505092915050565b60006020828403121561216757600080fd5b6000612175848285016120a3565b91505092915050565b6000806040838503121561219157600080fd5b600061219f858286016120a3565b92505060206121b085828601612079565b9150509250929050565b6000602082840312156121cc57600080fd5b60006121da848285016120b8565b91505092915050565b600080600080606085870312156121f957600080fd5b600085013567ffffffffffffffff81111561221357600080fd5b61221f878288016120cd565b9450945050602061223287828801612079565b925050604061224387828801612117565b91505092959194509250565b60006020828403121561226157600080fd5b600061226f84828501612117565b91505092915050565b6000806040838503121561228b57600080fd5b600061229985828601612117565b92505060206122aa8582860161208e565b9150509250929050565b60006122c083836125b9565b905092915050565b60006122d48383612797565b60208301905092915050565b6122e981612af4565b82525050565b6122f881612ae2565b82525050565b6000612309826129a8565b61231381856129e3565b93508360208202850161232585612988565b8060005b85811015612361578484038952815161234285826122b4565b945061234d836129c9565b925060208a01995050600181019050612329565b50829750879550505050505092915050565b600061237e826129b3565b61238881856129f4565b935061239383612998565b8060005b838110156123c45781516123ab88826122c8565b97506123b6836129d6565b925050600181019050612397565b5085935050505092915050565b6123da81612b06565b82525050565b6123e981612b06565b82525050565b6123f881612b12565b82525050565b6000612409826129be565b6124138185612a05565b9350612423818560208601612b72565b61242c81612ca8565b840191505092915050565b6000612442826129be565b61244c8185612a16565b935061245c818560208601612b72565b61246581612ca8565b840191505092915050565b600061247b826129be565b6124858185612a27565b9350612495818560208601612b72565b80840191505092915050565b60006124ae602083612a16565b91506124b982612cb9565b602082019050919050565b60006124d1602f83612a16565b91506124dc82612ce2565b604082019050919050565b60006124f4603f83612a16565b91506124ff82612d31565b604082019050919050565b6000612517602983612a16565b915061252282612d80565b604082019050919050565b600061253a601783612a27565b915061254582612dcf565b601782019050919050565b600061255d602583612a16565b915061256882612df8565b604082019050919050565b6000612580601183612a27565b915061258b82612e47565b601182019050919050565b60006125a3602f83612a16565b91506125ae82612e70565b604082019050919050565b6000610160830160008301516125d26000860182612797565b5060208301516125e56020860182612797565b5060408301516125f86040860182612797565b50606083015161260b6060860182612797565b50608083015161261e6080860182612797565b5060a083015184820360a086015261263682826123fe565b91505060c083015161264b60c08601826123d1565b5060e083015161265e60e08601826123d1565b506101008301516126736101008601826122e0565b506101208301516126886101208601826122ef565b5061014083015161269d6101408601826122ef565b508091505092915050565b6000610160830160008301516126c16000860182612797565b5060208301516126d46020860182612797565b5060408301516126e76040860182612797565b5060608301516126fa6060860182612797565b50608083015161270d6080860182612797565b5060a083015184820360a086015261272582826123fe565b91505060c083015161273a60c08601826123d1565b5060e083015161274d60e08601826123d1565b506101008301516127626101008601826122e0565b506101208301516127776101208601826122ef565b5061014083015161278c6101408601826122ef565b508091505092915050565b6127a081612b68565b82525050565b6127af81612b68565b82525050565b60006127c08261252d565b91506127cc8285612470565b91506127d782612573565b91506127e38284612470565b91508190509392505050565b6000602082019050818103600083015261280981846122fe565b905092915050565b6000602082019050818103600083015261282b8184612373565b905092915050565b600060208201905061284860008301846123e0565b92915050565b600060208201905061286360008301846123ef565b92915050565b600060208201905081810360008301526128838184612437565b905092915050565b600060208201905081810360008301526128a4816124a1565b9050919050565b600060208201905081810360008301526128c4816124c4565b9050919050565b600060208201905081810360008301526128e4816124e7565b9050919050565b600060208201905081810360008301526129048161250a565b9050919050565b6000602082019050818103600083015261292481612550565b9050919050565b6000602082019050818103600083015261294481612596565b9050919050565b6000602082019050818103600083015261296581846126a8565b905092915050565b600060208201905061298260008301846127a6565b92915050565b6000819050602082019050919050565b6000819050602082019050919050565b600081519050919050565b600081519050919050565b600081519050919050565b6000602082019050919050565b6000602082019050919050565b600082825260208201905092915050565b600082825260208201905092915050565b600082825260208201905092915050565b600082825260208201905092915050565b600081905092915050565b6000612a3d82612b68565b9150612a4883612b68565b9250827fffffffffffffffffffffffffffffffffffffffffffffffffffffffffffffffff03821115612a7d57612a7c612c4a565b5b828201905092915050565b6000612a9382612b68565b9150612a9e83612b68565b9250817fffffffffffffffffffffffffffffffffffffffffffffffffffffffffffffffff0483118215151615612ad757612ad6612c4a565b5b828202905092915050565b6000612aed82612b48565b9050919050565b6000612aff82612b48565b9050919050565b60008115159050919050565b6000819050919050565b60007fffffffff0000000000000000000000000000000000000000000000000000000082169050919050565b600073ffffffffffffffffffffffffffffffffffffffff82169050919050565b6000819050919050565b60005b83811015612b90578082015181840152602081019050612b75565b83811115612b9f576000848401525b50505050565b6000612bb082612b68565b91506000821415612bc457612bc3612c4a565b5b600182039050919050565b60006002820490506001821680612be757607f821691505b60208210811415612bfb57612bfa612c79565b5b50919050565b6000612c0c82612b68565b91507fffffffffffffffffffffffffffffffffffffffffffffffffffffffffffffffff821415612c3f57612c3e612c4a565b5b600182019050919050565b7f4e487b7100000000000000000000000000000000000000000000000000000000600052601160045260246000fd5b7f4e487b7100000000000000000000000000000000000000000000000000000000600052602260045260246000fd5b6000601f19601f8301169050919050565b7f537472696e67733a20686578206c656e67746820696e73756666696369656e74600082015250565b7f54686973207374616b65686f6c64657220616c726561647920766f746564206f60008201527f6e20746869732070726f706f73616c0000000000000000000000000000000000602082015250565b7f5468652070726f706f73616c20646f6573206e6f74206861766520746865207260008201527f6571756972656420616d6f756e74206f6620766f74657320746f207061737300602082015250565b7f566f74696e6720706572696f642068617320706173736564206f6e207468697360008201527f2070726f706f73616c0000000000000000000000000000000000000000000000602082015250565b7f416363657373436f6e74726f6c3a206163636f756e7420000000000000000000600082015250565b7f5061796d656e7420686173206265656e206d61646520746f207468697320636860008201527f6172697479000000000000000000000000000000000000000000000000000000602082015250565b7f206973206d697373696e6720726f6c6520000000000000000000000000000000600082015250565b7f416363657373436f6e74726f6c3a2063616e206f6e6c792072656e6f756e636560008201527f20726f6c657320666f722073656c660000000000000000000000000000000000602082015250565b612ec881612ae2565b8114612ed357600080fd5b50565b612edf81612b06565b8114612eea57600080fd5b50565b612ef681612b12565b8114612f0157600080fd5b50565b612f0d81612b1c565b8114612f1857600080fd5b50565b612f2481612b68565b8114612f2f57600080fd5b5056fe4f6e6c79207374616b65686f6c646572732061726520616c6c6f77656420746f206372656174652070726f706f73616c734f6e6c79207374616b65686f6c646572732061726520616c6c6f77656420746f206d616b65207061796d656e74734f6e6c79207374616b65686f6c646572732061726520616c6c6f77656420746f20766f7465a2646970667358221220d781991901bcd1448f2a642d0a5fda8b69c50dd7932d2d6e0e655b89fb4d1afc64736f6c63430008040033",
  "immutableReferences": {},
  "source": "// SPDX-License-Identifier: MIT\npragma solidity ^0.8.0;\n\nimport \"@openzeppelin/contracts/access/AccessControl.sol\";\nimport \"@openzeppelin/contracts/security/ReentrancyGuard.sol\";\n\n/// @title CharloDAO\n/// @author Segun Ogundipe David\ncontract CharloDAO is ReentrancyGuard, AccessControl {\n    bytes32 public constant CONTRIBUTOR_ROLE = keccak256(\"CONTRIBUTOR\");\n    bytes32 public constant STAKEHOLDER_ROLE = keccak256(\"STAKEHOLDER\");\n    // Constant variable that holds the number of days a proposal can be voted on in seconds.\n    // `weeks` is a suffix provided by solidity. It translates to the total seconds in a week.\n    uint32 constant minimumVotingPeriod = 1 weeks;\n    // This variable is incremented everytime a new charity proposal is added.\n    // It is needed to iterate through the charty proposals as solidity doesn't provide a way to step through mappings.\n    uint256 numOfProposals;\n\n    /// @notice Holds all the charity proposals made in the DAO.\n    mapping(uint256 => CharityProposal) private charityProposals;\n    /// @notice Holds all the stakeholders' address and their total contributions.\n    mapping(address => uint256[]) private stakeholderVotes;\n    /// @notice Holds all the contributors' address and their total contributions.\n    mapping(address => uint256) private contributors;\n    /// Holds all the stakeholders' address and their total contributions.\n    mapping(address => uint256) private stakeholders;\n\n    /// @notice A new type definition that holds the necessary variables that makes up a charity proposal.\n    struct CharityProposal {\n        uint256 id;\n        uint256 amount;\n        uint256 livePeriod;\n        uint256 votesFor;\n        uint256 votesAgainst;\n        string description;\n        bool votingPassed;\n        bool paid;\n        address payable charityAddress;\n        address proposer;\n        address paidBy;\n    }\n\n    /// @notice Event that is emitted when a contribution is received.\n    /// @param fromAddress The address the contribution came from.\n    /// @param amount The amount of celo that was sent.\n    event ContributionReceived(address indexed fromAddress, uint256 amount);\n    /// @notice Event that is emitted when a new proposal is added to the list of proposals.\n    /// @param proposer The address of the contributer/stakeholder that created the proposal.\n    /// @param amount The amount that is requested for.\n    event NewCharityProposal(address indexed proposer, uint256 amount);\n    /// @notice Event that is emitted when payment is made to a charity.\n    /// @param stakeholder The stakeholder tha made the payment.\n    /// @param charityAddress The charity that payment was made to.\n    /// @param amount The amount that was paid.\n    event PaymentTransfered(\n        address indexed stakeholder,\n        address indexed charityAddress,\n        uint256 amount\n    );\n\n    modifier onlyStakeholder(string memory message) {\n        require(hasRole(STAKEHOLDER_ROLE, msg.sender), message);\n        _;\n    }\n\n    modifier onlyContributor(string memory message) {\n        require(hasRole(CONTRIBUTOR_ROLE, msg.sender), message);\n        _;\n    }\n\n    /// @notice Adds a new proposal to the `charityProposals` mapping.\n    /// @param description A brief description of why the proposal should be voted for.\n    /// @param charityAddress The address of the charity.\n    /// @param amount The amount of celo.\n    function createProposal(\n        string calldata description,\n        address charityAddress,\n        uint256 amount\n    )\n        external\n        onlyStakeholder(\"Only stakeholders are allowed to create proposals\")\n    {\n        uint256 proposalId = numOfProposals++;\n        CharityProposal storage proposal = charityProposals[proposalId];\n        proposal.id = proposalId;\n        proposal.proposer = payable(msg.sender);\n        proposal.description = description;\n        proposal.charityAddress = payable(charityAddress);\n        proposal.amount = amount;\n        proposal.livePeriod = block.timestamp + minimumVotingPeriod;\n\n        emit NewCharityProposal(msg.sender, amount);\n    }\n\n    /// @notice Vote for a particular proposal. Only stakeholders are allowed to vote.\n    /// @param proposalId The id of the charity proposal being voted for.\n    /// @param supportProposal true to vote for and false against.\n    function vote(uint256 proposalId, bool supportProposal)\n        external\n        onlyStakeholder(\"Only stakeholders are allowed to vote\")\n    {\n        CharityProposal storage charityProposal = charityProposals[proposalId];\n\n        votable(charityProposal);\n\n        if (supportProposal) charityProposal.votesFor++;\n        else charityProposal.votesAgainst++;\n\n        stakeholderVotes[msg.sender].push(charityProposal.id);\n    }\n\n    /// @notice Contains some conditionals that validate a proposal to be voted on.\n    /// @param charityProposal a parameter just like in doxygen (must be followed by parameter name)\n    function votable(CharityProposal storage charityProposal) private {\n        if (\n            charityProposal.votingPassed ||\n            charityProposal.livePeriod <= block.timestamp\n        ) {\n            charityProposal.votingPassed = true;\n            revert(\"Voting period has passed on this proposal\");\n        }\n\n        uint256[] memory tempVotes = stakeholderVotes[msg.sender];\n        for (uint256 votes = 0; votes < tempVotes.length; votes++) {\n            if (charityProposal.id == tempVotes[votes])\n                revert(\"This stakeholder already voted on this proposal\");\n        }\n    }\n\n    /// @notice This function makes payent to a Charity after the voting period of the proposal. Can only be called by a Stakeholder.\n    /// @param proposalId The id of the proposal to pay to.\n    function payCharity(uint256 proposalId)\n        external\n        onlyStakeholder(\"Only stakeholders are allowed to make payments\")\n    {\n        CharityProposal storage charityProposal = charityProposals[proposalId];\n\n        if (charityProposal.paid)\n            revert(\"Payment has been made to this charity\");\n\n        if (charityProposal.votesFor <= charityProposal.votesAgainst)\n            revert(\n                \"The proposal does not have the required amount of votes to pass\"\n            );\n\n        charityProposal.paid = true;\n\n        emit PaymentTransfered(\n            msg.sender,\n            charityProposal.charityAddress,\n            charityProposal.amount\n        );\n\n        return charityProposal.charityAddress.transfer(charityProposal.amount);\n    }\n\n    receive() external payable {\n        makeStakeholder();\n    }\n\n    /// @notice This function adds a new stakeholder if the total contribution is >= 5 celo\n    function makeStakeholder() private {\n        address account = msg.sender;\n        uint256 amountContributed = msg.value;\n        if (!hasRole(STAKEHOLDER_ROLE, account)) {\n            uint256 totalContributed =\n                contributors[account] + amountContributed;\n            if (totalContributed >= 5 ether) {\n                stakeholders[account] = totalContributed;\n                contributors[account] += amountContributed;\n                _setupRole(STAKEHOLDER_ROLE, account);\n                _setupRole(CONTRIBUTOR_ROLE, account);\n            } else {\n                contributors[account] += amountContributed;\n                _setupRole(CONTRIBUTOR_ROLE, account);\n            }\n        } else {\n            contributors[account] += amountContributed;\n            stakeholders[account] += amountContributed;\n        }\n    }\n\n    function getProposals()\n        public\n        view\n        returns (CharityProposal[] memory props)\n    {\n        props = new CharityProposal[](numOfProposals + 1);\n\n        for (uint256 index = 0; index < numOfProposals; index++) {\n            props[index] = charityProposals[index];\n        }\n    }\n\n    function getProposal(uint256 proposalId)\n        public\n        view\n        returns (CharityProposal memory)\n    {\n        return charityProposals[proposalId];\n    }\n\n    function getStakeholderVotes(address stakeholder)\n        public\n        view\n        returns (uint256[] memory)\n    {\n        return stakeholderVotes[stakeholder];\n    }\n\n    function getStakeholderBalance(address stakeholder)\n        public\n        view\n        onlyStakeholder(\"User is not a stakeholder\")\n        returns (uint256)\n    {\n        return stakeholders[stakeholder];\n    }\n\n    function isStakeholder(address stakeholder) public view returns (bool) {\n        return stakeholders[stakeholder] > 0;\n    }\n\n    function getContributorBalance(address contributor)\n        public\n        view\n        onlyContributor(\"User is not a contributor\")\n        returns (uint256)\n    {\n        return contributors[contributor];\n    }\n\n    function isContributor(address contributor) public view returns (bool) {\n        return contributors[contributor] > 0;\n    }\n}\n",
  "sourcePath": "/Users/mac/Projects/PhoenixTech/Tutorials/projects/charlo/contracts/CharloDAO.sol",
  "compiler": {
    "name": "solc",
    "version": "0.8.4+commit.c7e474f2.Emscripten.clang"
  },
  "schemaVersion": "3.3.4",
  "updatedAt": "2021-05-28T14:45:42.618Z",
  "networkType": "ethereum",
  "devdoc": {
    "author": "Segun Ogundipe David",
    "events": {
      "ContributionReceived(address,uint256)": {
        "params": {
          "amount": "The amount of celo that was sent.",
          "fromAddress": "The address the contribution came from."
        }
      },
      "NewCharityProposal(address,uint256)": {
        "params": {
          "amount": "The amount that is requested for.",
          "proposer": "The address of the contributer/stakeholder that created the proposal."
        }
      },
      "PaymentTransfered(address,address,uint256)": {
        "params": {
          "amount": "The amount that was paid.",
          "charityAddress": "The charity that payment was made to.",
          "stakeholder": "The stakeholder tha made the payment."
        }
      }
    },
    "kind": "dev",
    "methods": {
      "createProposal(string,address,uint256)": {
        "params": {
          "amount": "The amount of celo.",
          "charityAddress": "The address of the charity.",
          "description": "A brief description of why the proposal should be voted for."
        }
      },
      "getRoleAdmin(bytes32)": {
        "details": "Returns the admin role that controls `role`. See {grantRole} and {revokeRole}. To change a role's admin, use {_setRoleAdmin}."
      },
      "grantRole(bytes32,address)": {
        "details": "Grants `role` to `account`. If `account` had not been already granted `role`, emits a {RoleGranted} event. Requirements: - the caller must have ``role``'s admin role."
      },
      "hasRole(bytes32,address)": {
        "details": "Returns `true` if `account` has been granted `role`."
      },
      "payCharity(uint256)": {
        "params": {
          "proposalId": "The id of the proposal to pay to."
        }
      },
      "renounceRole(bytes32,address)": {
        "details": "Revokes `role` from the calling account. Roles are often managed via {grantRole} and {revokeRole}: this function's purpose is to provide a mechanism for accounts to lose their privileges if they are compromised (such as when a trusted device is misplaced). If the calling account had been granted `role`, emits a {RoleRevoked} event. Requirements: - the caller must be `account`."
      },
      "revokeRole(bytes32,address)": {
        "details": "Revokes `role` from `account`. If `account` had been granted `role`, emits a {RoleRevoked} event. Requirements: - the caller must have ``role``'s admin role."
      },
      "supportsInterface(bytes4)": {
        "details": "See {IERC165-supportsInterface}."
      },
      "vote(uint256,bool)": {
        "params": {
          "proposalId": "The id of the charity proposal being voted for.",
          "supportProposal": "true to vote for and false against."
        }
      }
    },
    "title": "CharloDAO",
    "version": 1
  },
  "userdoc": {
    "events": {
      "ContributionReceived(address,uint256)": {
        "notice": "Event that is emitted when a contribution is received."
      },
      "NewCharityProposal(address,uint256)": {
        "notice": "Event that is emitted when a new proposal is added to the list of proposals."
      },
      "PaymentTransfered(address,address,uint256)": {
        "notice": "Event that is emitted when payment is made to a charity."
      }
    },
    "kind": "user",
    "methods": {
      "createProposal(string,address,uint256)": {
        "notice": "Adds a new proposal to the `charityProposals` mapping."
      },
      "payCharity(uint256)": {
        "notice": "This function makes payent to a Charity after the voting period of the proposal. Can only be called by a Stakeholder."
      },
      "vote(uint256,bool)": {
        "notice": "Vote for a particular proposal. Only stakeholders are allowed to vote."
      }
    },
    "version": 1
  }
}