{
  "contractName": "CharloDAO",
  "abi": [
    {
      "anonymous": false,
      "inputs": [
        {
          "indexed": true,
          "internalType": "address",
          "name": "fromAddress",
          "type": "address"
        },
        {
          "indexed": false,
          "internalType": "uint256",
          "name": "amount",
          "type": "uint256"
        }
      ],
      "name": "ContributionReceived",
      "type": "event"
    },
    {
      "anonymous": false,
      "inputs": [
        {
          "indexed": true,
          "internalType": "address",
          "name": "proposer",
          "type": "address"
        },
        {
          "indexed": false,
          "internalType": "uint256",
          "name": "amount",
          "type": "uint256"
        }
      ],
      "name": "NewCharityProposal",
      "type": "event"
    },
    {
      "anonymous": false,
      "inputs": [
        {
          "indexed": true,
          "internalType": "address",
          "name": "stakeholder",
          "type": "address"
        },
        {
          "indexed": true,
          "internalType": "address",
          "name": "charityAddress",
          "type": "address"
        },
        {
          "indexed": false,
          "internalType": "uint256",
          "name": "amount",
          "type": "uint256"
        }
      ],
      "name": "PaymentTransfered",
      "type": "event"
    },
    {
      "anonymous": false,
      "inputs": [
        {
          "indexed": true,
          "internalType": "bytes32",
          "name": "role",
          "type": "bytes32"
        },
        {
          "indexed": true,
          "internalType": "bytes32",
          "name": "previousAdminRole",
          "type": "bytes32"
        },
        {
          "indexed": true,
          "internalType": "bytes32",
          "name": "newAdminRole",
          "type": "bytes32"
        }
      ],
      "name": "RoleAdminChanged",
      "type": "event"
    },
    {
      "anonymous": false,
      "inputs": [
        {
          "indexed": true,
          "internalType": "bytes32",
          "name": "role",
          "type": "bytes32"
        },
        {
          "indexed": true,
          "internalType": "address",
          "name": "account",
          "type": "address"
        },
        {
          "indexed": true,
          "internalType": "address",
          "name": "sender",
          "type": "address"
        }
      ],
      "name": "RoleGranted",
      "type": "event"
    },
    {
      "anonymous": false,
      "inputs": [
        {
          "indexed": true,
          "internalType": "bytes32",
          "name": "role",
          "type": "bytes32"
        },
        {
          "indexed": true,
          "internalType": "address",
          "name": "account",
          "type": "address"
        },
        {
          "indexed": true,
          "internalType": "address",
          "name": "sender",
          "type": "address"
        }
      ],
      "name": "RoleRevoked",
      "type": "event"
    },
    {
      "inputs": [],
      "name": "CONTRIBUTOR_ROLE",
      "outputs": [
        {
          "internalType": "bytes32",
          "name": "",
          "type": "bytes32"
        }
      ],
      "stateMutability": "view",
      "type": "function",
      "constant": true
    },
    {
      "inputs": [],
      "name": "DEFAULT_ADMIN_ROLE",
      "outputs": [
        {
          "internalType": "bytes32",
          "name": "",
          "type": "bytes32"
        }
      ],
      "stateMutability": "view",
      "type": "function",
      "constant": true
    },
    {
      "inputs": [],
      "name": "STAKEHOLDER_ROLE",
      "outputs": [
        {
          "internalType": "bytes32",
          "name": "",
          "type": "bytes32"
        }
      ],
      "stateMutability": "view",
      "type": "function",
      "constant": true
    },
    {
      "inputs": [
        {
          "internalType": "bytes32",
          "name": "role",
          "type": "bytes32"
        }
      ],
      "name": "getRoleAdmin",
      "outputs": [
        {
          "internalType": "bytes32",
          "name": "",
          "type": "bytes32"
        }
      ],
      "stateMutability": "view",
      "type": "function",
      "constant": true
    },
    {
      "inputs": [
        {
          "internalType": "bytes32",
          "name": "role",
          "type": "bytes32"
        },
        {
          "internalType": "address",
          "name": "account",
          "type": "address"
        }
      ],
      "name": "grantRole",
      "outputs": [],
      "stateMutability": "nonpayable",
      "type": "function"
    },
    {
      "inputs": [
        {
          "internalType": "bytes32",
          "name": "role",
          "type": "bytes32"
        },
        {
          "internalType": "address",
          "name": "account",
          "type": "address"
        }
      ],
      "name": "hasRole",
      "outputs": [
        {
          "internalType": "bool",
          "name": "",
          "type": "bool"
        }
      ],
      "stateMutability": "view",
      "type": "function",
      "constant": true
    },
    {
      "inputs": [
        {
          "internalType": "bytes32",
          "name": "role",
          "type": "bytes32"
        },
        {
          "internalType": "address",
          "name": "account",
          "type": "address"
        }
      ],
      "name": "renounceRole",
      "outputs": [],
      "stateMutability": "nonpayable",
      "type": "function"
    },
    {
      "inputs": [
        {
          "internalType": "bytes32",
          "name": "role",
          "type": "bytes32"
        },
        {
          "internalType": "address",
          "name": "account",
          "type": "address"
        }
      ],
      "name": "revokeRole",
      "outputs": [],
      "stateMutability": "nonpayable",
      "type": "function"
    },
    {
      "inputs": [
        {
          "internalType": "bytes4",
          "name": "interfaceId",
          "type": "bytes4"
        }
      ],
      "name": "supportsInterface",
      "outputs": [
        {
          "internalType": "bool",
          "name": "",
          "type": "bool"
        }
      ],
      "stateMutability": "view",
      "type": "function",
      "constant": true
    },
    {
      "stateMutability": "payable",
      "type": "receive",
      "payable": true
    },
    {
      "inputs": [
        {
          "internalType": "string",
          "name": "description",
          "type": "string"
        },
        {
          "internalType": "address",
          "name": "charityAddress",
          "type": "address"
        },
        {
          "internalType": "uint256",
          "name": "amount",
          "type": "uint256"
        }
      ],
      "name": "createProposal",
      "outputs": [],
      "stateMutability": "nonpayable",
      "type": "function"
    },
    {
      "inputs": [
        {
          "internalType": "uint256",
          "name": "proposalId",
          "type": "uint256"
        },
        {
          "internalType": "bool",
          "name": "supportProposal",
          "type": "bool"
        }
      ],
      "name": "vote",
      "outputs": [],
      "stateMutability": "nonpayable",
      "type": "function"
    },
    {
      "inputs": [
        {
          "internalType": "uint256",
          "name": "proposalId",
          "type": "uint256"
        }
      ],
      "name": "payCharity",
      "outputs": [],
      "stateMutability": "nonpayable",
      "type": "function"
    },
    {
      "inputs": [
        {
          "internalType": "uint256",
          "name": "amount",
          "type": "uint256"
        }
      ],
      "name": "makeStakeholder",
      "outputs": [],
      "stateMutability": "nonpayable",
      "type": "function"
    },
    {
      "inputs": [],
      "name": "getProposals",
      "outputs": [
        {
          "components": [
            {
              "internalType": "uint256",
              "name": "id",
              "type": "uint256"
            },
            {
              "internalType": "uint256",
              "name": "amount",
              "type": "uint256"
            },
            {
              "internalType": "uint256",
              "name": "livePeriod",
              "type": "uint256"
            },
            {
              "internalType": "uint256",
              "name": "votesFor",
              "type": "uint256"
            },
            {
              "internalType": "uint256",
              "name": "votesAgainst",
              "type": "uint256"
            },
            {
              "internalType": "string",
              "name": "description",
              "type": "string"
            },
            {
              "internalType": "bool",
              "name": "votingPassed",
              "type": "bool"
            },
            {
              "internalType": "bool",
              "name": "paid",
              "type": "bool"
            },
            {
              "internalType": "address payable",
              "name": "charityAddress",
              "type": "address"
            },
            {
              "internalType": "address",
              "name": "proposer",
              "type": "address"
            },
            {
              "internalType": "address",
              "name": "paidBy",
              "type": "address"
            }
          ],
          "internalType": "struct CharloDAO.CharityProposal[]",
          "name": "props",
          "type": "tuple[]"
        }
      ],
      "stateMutability": "view",
      "type": "function",
      "constant": true
    },
    {
      "inputs": [
        {
          "internalType": "uint256",
          "name": "proposalId",
          "type": "uint256"
        }
      ],
      "name": "getProposal",
      "outputs": [
        {
          "components": [
            {
              "internalType": "uint256",
              "name": "id",
              "type": "uint256"
            },
            {
              "internalType": "uint256",
              "name": "amount",
              "type": "uint256"
            },
            {
              "internalType": "uint256",
              "name": "livePeriod",
              "type": "uint256"
            },
            {
              "internalType": "uint256",
              "name": "votesFor",
              "type": "uint256"
            },
            {
              "internalType": "uint256",
              "name": "votesAgainst",
              "type": "uint256"
            },
            {
              "internalType": "string",
              "name": "description",
              "type": "string"
            },
            {
              "internalType": "bool",
              "name": "votingPassed",
              "type": "bool"
            },
            {
              "internalType": "bool",
              "name": "paid",
              "type": "bool"
            },
            {
              "internalType": "address payable",
              "name": "charityAddress",
              "type": "address"
            },
            {
              "internalType": "address",
              "name": "proposer",
              "type": "address"
            },
            {
              "internalType": "address",
              "name": "paidBy",
              "type": "address"
            }
          ],
          "internalType": "struct CharloDAO.CharityProposal",
          "name": "",
          "type": "tuple"
        }
      ],
      "stateMutability": "view",
      "type": "function",
      "constant": true
    },
    {
      "inputs": [],
      "name": "getStakeholderVotes",
      "outputs": [
        {
          "internalType": "uint256[]",
          "name": "",
          "type": "uint256[]"
        }
      ],
      "stateMutability": "view",
      "type": "function",
      "constant": true
    },
    {
      "inputs": [],
      "name": "getStakeholderBalance",
      "outputs": [
        {
          "internalType": "uint256",
          "name": "",
          "type": "uint256"
        }
      ],
      "stateMutability": "view",
      "type": "function",
      "constant": true
    },
    {
      "inputs": [],
      "name": "isStakeholder",
      "outputs": [
        {
          "internalType": "bool",
          "name": "",
          "type": "bool"
        }
      ],
      "stateMutability": "view",
      "type": "function",
      "constant": true
    },
    {
      "inputs": [],
      "name": "getContributorBalance",
      "outputs": [
        {
          "internalType": "uint256",
          "name": "",
          "type": "uint256"
        }
      ],
      "stateMutability": "view",
      "type": "function",
      "constant": true
    },
    {
      "inputs": [],
      "name": "isContributor",
      "outputs": [
        {
          "internalType": "bool",
          "name": "",
          "type": "bool"
        }
      ],
      "stateMutability": "view",
      "type": "function",
      "constant": true
    }
  ],
  "bytecode": "0x608060405234801561001057600080fd5b506001600081905550612fce806100286000396000f3fe6080604052600436106101235760003560e01c8063831c43ac116100a0578063c7f758a811610064578063c7f758a81461042e578063c9d27afe1461046b578063d547741f14610494578063d6cc8016146104bd578063eafb79e2146104e857610178565b8063831c43ac1461034757806391d1485414610370578063a217fddf146103ad578063a22f1db7146103d8578063c02146ac1461040357610178565b806336568abe116100e757806336568abe146102745780633cdb48c21461029d57806356890ea4146102c857806362564c48146102f15780636a80d84d1461031c57610178565b806301ffc9a71461017d57806309b249d6146101ba578063248a9ca3146101e35780632b7fac73146102205780632f2ff15d1461024b57610178565b36610178573373ffffffffffffffffffffffffffffffffffffffff167f1bb460ccaaf70fbacfec17a376f8acbd278c1405590ffcc8ebe4b88daf4f64ad3460405161016e919061294f565b60405180910390a2005b600080fd5b34801561018957600080fd5b506101a4600480360381019061019f919061219c565b610513565b6040516101b19190612815565b60405180910390f35b3480156101c657600080fd5b506101e160048036038101906101dc9190612231565b61058d565b005b3480156101ef57600080fd5b5061020a60048036038101906102059190612137565b6107e4565b6040516102179190612830565b60405180910390f35b34801561022c57600080fd5b50610235610804565b6040516102429190612830565b60405180910390f35b34801561025757600080fd5b50610272600480360381019061026d9190612160565b610828565b005b34801561028057600080fd5b5061029b60048036038101906102969190612160565b610851565b005b3480156102a957600080fd5b506102b26108d4565b6040516102bf919061294f565b60405180910390f35b3480156102d457600080fd5b506102ef60048036038101906102ea9190612231565b6109bf565b005b3480156102fd57600080fd5b50610306610c81565b60405161031391906127d1565b60405180910390f35b34801561032857600080fd5b50610331610f84565b60405161033e919061294f565b60405180910390f35b34801561035357600080fd5b5061036e600480360381019061036991906121c5565b61106f565b005b34801561037c57600080fd5b5061039760048036038101906103929190612160565b611247565b6040516103a49190612815565b60405180910390f35b3480156103b957600080fd5b506103c26112b2565b6040516103cf9190612830565b60405180910390f35b3480156103e457600080fd5b506103ed6112b9565b6040516103fa91906127f3565b60405180910390f35b34801561040f57600080fd5b5061041861134e565b6040516104259190612815565b60405180910390f35b34801561043a57600080fd5b5061045560048036038101906104509190612231565b611397565b604051610462919061292d565b60405180910390f35b34801561047757600080fd5b50610492600480360381019061048d919061225a565b6115c1565b005b3480156104a057600080fd5b506104bb60048036038101906104b69190612160565b611717565b005b3480156104c957600080fd5b506104d2611740565b6040516104df9190612815565b60405180910390f35b3480156104f457600080fd5b506104fd611789565b60405161050a9190612830565b60405180910390f35b60007f7965db0b000000000000000000000000000000000000000000000000000000007bffffffffffffffffffffffffffffffffffffffffffffffffffffffff1916827bffffffffffffffffffffffffffffffffffffffffffffffffffffffff191614806105865750610585826117ad565b5b9050919050565b6040518060600160405280602e8152602001612f46602e91396105d07ff4bb84e1768dd286358a736d195a0b228621173f655a73b89bf8b191ed0ba07d33611247565b8190610612576040517f08c379a0000000000000000000000000000000000000000000000000000000008152600401610609919061284b565b60405180910390fd5b5060006003600084815260200190815260200160002090508060060160019054906101000a900460ff161561067c576040517f08c379a0000000000000000000000000000000000000000000000000000000008152600401610673906128ed565b60405180910390fd5b80600401548160030154116106c6576040517f08c379a00000000000000000000000000000000000000000000000000000000081526004016106bd906128ad565b60405180910390fd5b60018160060160016101000a81548160ff0219169083151502179055508060060160029054906101000a900473ffffffffffffffffffffffffffffffffffffffff1673ffffffffffffffffffffffffffffffffffffffff163373ffffffffffffffffffffffffffffffffffffffff167ffdb2bc0ebc2e58404f3ad5b20d3ec351f2b7b7bf6a21e18beaa7d296d2f01ba58360010154604051610768919061294f565b60405180910390a38060060160029054906101000a900473ffffffffffffffffffffffffffffffffffffffff1673ffffffffffffffffffffffffffffffffffffffff166108fc82600101549081150290604051600060405180830381858888f193505050501580156107de573d6000803e3d6000fd5b50505050565b600060016000838152602001908152602001600020600101549050919050565b7ff4bb84e1768dd286358a736d195a0b228621173f655a73b89bf8b191ed0ba07d81565b610831826107e4565b6108428161083d611817565b61181f565b61084c83836118bc565b505050565b610859611817565b73ffffffffffffffffffffffffffffffffffffffff168173ffffffffffffffffffffffffffffffffffffffff16146108c6576040517f08c379a00000000000000000000000000000000000000000000000000000000081526004016108bd9061290d565b60405180910390fd5b6108d0828261199c565b5050565b60006040518060400160405280601981526020017f55736572206973206e6f74206120636f6e7472696275746f72000000000000008152506109367fa0bb1af1c90aa52ed052b92714ff0087008cc720049bf1af77cca2600b31e80c33611247565b8190610978576040517f08c379a000000000000000000000000000000000000000000000000000000000815260040161096f919061284b565b60405180910390fd5b50600560003373ffffffffffffffffffffffffffffffffffffffff1673ffffffffffffffffffffffffffffffffffffffff1681526020019081526020016000205491505090565b600033905060008290506109f37ff4bb84e1768dd286358a736d195a0b228621173f655a73b89bf8b191ed0ba07d83611247565b610bcf57600081600560008573ffffffffffffffffffffffffffffffffffffffff1673ffffffffffffffffffffffffffffffffffffffff16815260200190815260200160002054610a449190612a14565b9050674563918244f400008110610b485780600660008573ffffffffffffffffffffffffffffffffffffffff1673ffffffffffffffffffffffffffffffffffffffff1681526020019081526020016000208190555081600560008573ffffffffffffffffffffffffffffffffffffffff1673ffffffffffffffffffffffffffffffffffffffff1681526020019081526020016000206000828254610ae89190612a14565b92505081905550610b197ff4bb84e1768dd286358a736d195a0b228621173f655a73b89bf8b191ed0ba07d84611a7e565b610b437fa0bb1af1c90aa52ed052b92714ff0087008cc720049bf1af77cca2600b31e80c84611a7e565b610bc9565b81600560008573ffffffffffffffffffffffffffffffffffffffff1673ffffffffffffffffffffffffffffffffffffffff1681526020019081526020016000206000828254610b979190612a14565b92505081905550610bc87fa0bb1af1c90aa52ed052b92714ff0087008cc720049bf1af77cca2600b31e80c84611a7e565b5b50610c7c565b80600560008473ffffffffffffffffffffffffffffffffffffffff1673ffffffffffffffffffffffffffffffffffffffff1681526020019081526020016000206000828254610c1e9190612a14565b9250508190555080600660008473ffffffffffffffffffffffffffffffffffffffff1673ffffffffffffffffffffffffffffffffffffffff1681526020019081526020016000206000828254610c749190612a14565b925050819055505b505050565b606060025467ffffffffffffffff811115610cc5577f4e487b7100000000000000000000000000000000000000000000000000000000600052604160045260246000fd5b604051908082528060200260200182016040528015610cfe57816020015b610ceb611f41565b815260200190600190039081610ce35790505b50905060005b600254811015610f805760036000828152602001908152602001600020604051806101600160405290816000820154815260200160018201548152602001600282015481526020016003820154815260200160048201548152602001600582018054610d6f90612bb1565b80601f0160208091040260200160405190810160405280929190818152602001828054610d9b90612bb1565b8015610de85780601f10610dbd57610100808354040283529160200191610de8565b820191906000526020600020905b815481529060010190602001808311610dcb57829003601f168201915b505050505081526020016006820160009054906101000a900460ff161515151581526020016006820160019054906101000a900460ff161515151581526020016006820160029054906101000a900473ffffffffffffffffffffffffffffffffffffffff1673ffffffffffffffffffffffffffffffffffffffff1673ffffffffffffffffffffffffffffffffffffffff1681526020016007820160009054906101000a900473ffffffffffffffffffffffffffffffffffffffff1673ffffffffffffffffffffffffffffffffffffffff1673ffffffffffffffffffffffffffffffffffffffff1681526020016008820160009054906101000a900473ffffffffffffffffffffffffffffffffffffffff1673ffffffffffffffffffffffffffffffffffffffff1673ffffffffffffffffffffffffffffffffffffffff1681525050828281518110610f62577f4e487b7100000000000000000000000000000000000000000000000000000000600052603260045260246000fd5b60200260200101819052508080610f7890612be3565b915050610d04565b5090565b60006040518060400160405280601981526020017f55736572206973206e6f742061207374616b65686f6c64657200000000000000815250610fe67ff4bb84e1768dd286358a736d195a0b228621173f655a73b89bf8b191ed0ba07d33611247565b8190611028576040517f08c379a000000000000000000000000000000000000000000000000000000000815260040161101f919061284b565b60405180910390fd5b50600660003373ffffffffffffffffffffffffffffffffffffffff1673ffffffffffffffffffffffffffffffffffffffff1681526020019081526020016000205491505090565b604051806060016040528060318152602001612f15603191396110b27ff4bb84e1768dd286358a736d195a0b228621173f655a73b89bf8b191ed0ba07d33611247565b81906110f4576040517f08c379a00000000000000000000000000000000000000000000000000000000081526004016110eb919061284b565b60405180910390fd5b5060006002600081548092919061110a90612be3565b9190505590506000600360008381526020019081526020016000209050818160000181905550338160070160006101000a81548173ffffffffffffffffffffffffffffffffffffffff021916908373ffffffffffffffffffffffffffffffffffffffff1602179055508686826005019190611186929190611fe1565b50848160060160026101000a81548173ffffffffffffffffffffffffffffffffffffffff021916908373ffffffffffffffffffffffffffffffffffffffff16021790555083816001018190555062093a8063ffffffff16426111e89190612a14565b81600201819055503373ffffffffffffffffffffffffffffffffffffffff167fde0de3e1063d1a2b43ea01642e4e063713543716ff7d67f30c45ff96dd8fb69785604051611236919061294f565b60405180910390a250505050505050565b60006001600084815260200190815260200160002060000160008373ffffffffffffffffffffffffffffffffffffffff1673ffffffffffffffffffffffffffffffffffffffff16815260200190815260200160002060009054906101000a900460ff16905092915050565b6000801b81565b6060600460003373ffffffffffffffffffffffffffffffffffffffff1673ffffffffffffffffffffffffffffffffffffffff16815260200190815260200160002080548060200260200160405190810160405280929190818152602001828054801561134457602002820191906000526020600020905b815481526020019060010190808311611330575b5050505050905090565b600080600660003373ffffffffffffffffffffffffffffffffffffffff1673ffffffffffffffffffffffffffffffffffffffff1681526020019081526020016000205411905090565b61139f611f41565b6003600083815260200190815260200160002060405180610160016040529081600082015481526020016001820154815260200160028201548152602001600382015481526020016004820154815260200160058201805461140090612bb1565b80601f016020809104026020016040519081016040528092919081815260200182805461142c90612bb1565b80156114795780601f1061144e57610100808354040283529160200191611479565b820191906000526020600020905b81548152906001019060200180831161145c57829003601f168201915b505050505081526020016006820160009054906101000a900460ff161515151581526020016006820160019054906101000a900460ff161515151581526020016006820160029054906101000a900473ffffffffffffffffffffffffffffffffffffffff1673ffffffffffffffffffffffffffffffffffffffff1673ffffffffffffffffffffffffffffffffffffffff1681526020016007820160009054906101000a900473ffffffffffffffffffffffffffffffffffffffff1673ffffffffffffffffffffffffffffffffffffffff1673ffffffffffffffffffffffffffffffffffffffff1681526020016008820160009054906101000a900473ffffffffffffffffffffffffffffffffffffffff1673ffffffffffffffffffffffffffffffffffffffff1673ffffffffffffffffffffffffffffffffffffffff16815250509050919050565b604051806060016040528060258152602001612f74602591396116047ff4bb84e1768dd286358a736d195a0b228621173f655a73b89bf8b191ed0ba07d33611247565b8190611646576040517f08c379a000000000000000000000000000000000000000000000000000000000815260040161163d919061284b565b60405180910390fd5b50600060036000858152602001908152602001600020905061166781611a8c565b821561168c5780600301600081548092919061168290612be3565b91905055506116a7565b8060040160008154809291906116a190612be3565b91905055505b600460003373ffffffffffffffffffffffffffffffffffffffff1673ffffffffffffffffffffffffffffffffffffffff1681526020019081526020016000208160000154908060018154018082558091505060019003906000526020600020016000909190919091505550505050565b611720826107e4565b6117318161172c611817565b61181f565b61173b838361199c565b505050565b600080600560003373ffffffffffffffffffffffffffffffffffffffff1673ffffffffffffffffffffffffffffffffffffffff1681526020019081526020016000205411905090565b7fa0bb1af1c90aa52ed052b92714ff0087008cc720049bf1af77cca2600b31e80c81565b60007f01ffc9a7000000000000000000000000000000000000000000000000000000007bffffffffffffffffffffffffffffffffffffffffffffffffffffffff1916827bffffffffffffffffffffffffffffffffffffffffffffffffffffffff1916149050919050565b600033905090565b6118298282611247565b6118b85761184e8173ffffffffffffffffffffffffffffffffffffffff166014611c47565b61185c8360001c6020611c47565b60405160200161186d929190612797565b6040516020818303038152906040526040517f08c379a00000000000000000000000000000000000000000000000000000000081526004016118af919061284b565b60405180910390fd5b5050565b6118c68282611247565b61199857600180600084815260200190815260200160002060000160008373ffffffffffffffffffffffffffffffffffffffff1673ffffffffffffffffffffffffffffffffffffffff16815260200190815260200160002060006101000a81548160ff02191690831515021790555061193d611817565b73ffffffffffffffffffffffffffffffffffffffff168173ffffffffffffffffffffffffffffffffffffffff16837f2f8788117e7eff1d82e926ec794901d17c78024a50270940304540a733656f0d60405160405180910390a45b5050565b6119a68282611247565b15611a7a5760006001600084815260200190815260200160002060000160008373ffffffffffffffffffffffffffffffffffffffff1673ffffffffffffffffffffffffffffffffffffffff16815260200190815260200160002060006101000a81548160ff021916908315150217905550611a1f611817565b73ffffffffffffffffffffffffffffffffffffffff168173ffffffffffffffffffffffffffffffffffffffff16837ff6391f5c32d9c69d2a47ea670b442974b53935d1edc7fd64eb21e047a839171b60405160405180910390a45b5050565b611a8882826118bc565b5050565b8060060160009054906101000a900460ff1680611aad575042816002015411155b15611b0a5760018160060160006101000a81548160ff0219169083151502179055506040517f08c379a0000000000000000000000000000000000000000000000000000000008152600401611b01906128cd565b60405180910390fd5b6000600460003373ffffffffffffffffffffffffffffffffffffffff1673ffffffffffffffffffffffffffffffffffffffff168152602001908152602001600020805480602002602001604051908101604052809291908181526020018280548015611b9557602002820191906000526020600020905b815481526020019060010190808311611b81575b5050505050905060005b8151811015611c4257818181518110611be1577f4e487b7100000000000000000000000000000000000000000000000000000000600052603260045260246000fd5b602002602001015183600001541415611c2f576040517f08c379a0000000000000000000000000000000000000000000000000000000008152600401611c269061288d565b60405180910390fd5b8080611c3a90612be3565b915050611b9f565b505050565b606060006002836002611c5a9190612a6a565b611c649190612a14565b67ffffffffffffffff811115611ca3577f4e487b7100000000000000000000000000000000000000000000000000000000600052604160045260246000fd5b6040519080825280601f01601f191660200182016040528015611cd55781602001600182028036833780820191505090505b5090507f300000000000000000000000000000000000000000000000000000000000000081600081518110611d33577f4e487b7100000000000000000000000000000000000000000000000000000000600052603260045260246000fd5b60200101907effffffffffffffffffffffffffffffffffffffffffffffffffffffffffffff1916908160001a9053507f780000000000000000000000000000000000000000000000000000000000000081600181518110611dbd577f4e487b7100000000000000000000000000000000000000000000000000000000600052603260045260246000fd5b60200101907effffffffffffffffffffffffffffffffffffffffffffffffffffffffffffff1916908160001a90535060006001846002611dfd9190612a6a565b611e079190612a14565b90505b6001811115611ef3577f3031323334353637383961626364656600000000000000000000000000000000600f861660108110611e6f577f4e487b7100000000000000000000000000000000000000000000000000000000600052603260045260246000fd5b1a60f81b828281518110611eac577f4e487b7100000000000000000000000000000000000000000000000000000000600052603260045260246000fd5b60200101907effffffffffffffffffffffffffffffffffffffffffffffffffffffffffffff1916908160001a905350600485901c945080611eec90612b87565b9050611e0a565b5060008414611f37576040517f08c379a0000000000000000000000000000000000000000000000000000000008152600401611f2e9061286d565b60405180910390fd5b8091505092915050565b604051806101600160405280600081526020016000815260200160008152602001600081526020016000815260200160608152602001600015158152602001600015158152602001600073ffffffffffffffffffffffffffffffffffffffff168152602001600073ffffffffffffffffffffffffffffffffffffffff168152602001600073ffffffffffffffffffffffffffffffffffffffff1681525090565b828054611fed90612bb1565b90600052602060002090601f01602090048101928261200f5760008555612056565b82601f1061202857803560ff1916838001178555612056565b82800160010185558215612056579182015b8281111561205557823582559160200191906001019061203a565b5b5090506120639190612067565b5090565b5b80821115612080576000816000905550600101612068565b5090565b60008135905061209381612ea1565b92915050565b6000813590506120a881612eb8565b92915050565b6000813590506120bd81612ecf565b92915050565b6000813590506120d281612ee6565b92915050565b60008083601f8401126120ea57600080fd5b8235905067ffffffffffffffff81111561210357600080fd5b60208301915083600182028301111561211b57600080fd5b9250929050565b60008135905061213181612efd565b92915050565b60006020828403121561214957600080fd5b6000612157848285016120ae565b91505092915050565b6000806040838503121561217357600080fd5b6000612181858286016120ae565b925050602061219285828601612084565b9150509250929050565b6000602082840312156121ae57600080fd5b60006121bc848285016120c3565b91505092915050565b600080600080606085870312156121db57600080fd5b600085013567ffffffffffffffff8111156121f557600080fd5b612201878288016120d8565b9450945050602061221487828801612084565b925050604061222587828801612122565b91505092959194509250565b60006020828403121561224357600080fd5b600061225184828501612122565b91505092915050565b6000806040838503121561226d57600080fd5b600061227b85828601612122565b925050602061228c85828601612099565b9150509250929050565b60006122a2838361259b565b905092915050565b60006122b68383612779565b60208301905092915050565b6122cb81612ad6565b82525050565b6122da81612ac4565b82525050565b60006122eb8261298a565b6122f581856129c5565b9350836020820285016123078561296a565b8060005b8581101561234357848403895281516123248582612296565b945061232f836129ab565b925060208a0199505060018101905061230b565b50829750879550505050505092915050565b600061236082612995565b61236a81856129d6565b93506123758361297a565b8060005b838110156123a657815161238d88826122aa565b9750612398836129b8565b925050600181019050612379565b5085935050505092915050565b6123bc81612ae8565b82525050565b6123cb81612ae8565b82525050565b6123da81612af4565b82525050565b60006123eb826129a0565b6123f581856129e7565b9350612405818560208601612b54565b61240e81612c8a565b840191505092915050565b6000612424826129a0565b61242e81856129f8565b935061243e818560208601612b54565b61244781612c8a565b840191505092915050565b600061245d826129a0565b6124678185612a09565b9350612477818560208601612b54565b80840191505092915050565b60006124906020836129f8565b915061249b82612c9b565b602082019050919050565b60006124b3602f836129f8565b91506124be82612cc4565b604082019050919050565b60006124d6603f836129f8565b91506124e182612d13565b604082019050919050565b60006124f96029836129f8565b915061250482612d62565b604082019050919050565b600061251c601783612a09565b915061252782612db1565b601782019050919050565b600061253f6025836129f8565b915061254a82612dda565b604082019050919050565b6000612562601183612a09565b915061256d82612e29565b601182019050919050565b6000612585602f836129f8565b915061259082612e52565b604082019050919050565b6000610160830160008301516125b46000860182612779565b5060208301516125c76020860182612779565b5060408301516125da6040860182612779565b5060608301516125ed6060860182612779565b5060808301516126006080860182612779565b5060a083015184820360a086015261261882826123e0565b91505060c083015161262d60c08601826123b3565b5060e083015161264060e08601826123b3565b506101008301516126556101008601826122c2565b5061012083015161266a6101208601826122d1565b5061014083015161267f6101408601826122d1565b508091505092915050565b6000610160830160008301516126a36000860182612779565b5060208301516126b66020860182612779565b5060408301516126c96040860182612779565b5060608301516126dc6060860182612779565b5060808301516126ef6080860182612779565b5060a083015184820360a086015261270782826123e0565b91505060c083015161271c60c08601826123b3565b5060e083015161272f60e08601826123b3565b506101008301516127446101008601826122c2565b506101208301516127596101208601826122d1565b5061014083015161276e6101408601826122d1565b508091505092915050565b61278281612b4a565b82525050565b61279181612b4a565b82525050565b60006127a28261250f565b91506127ae8285612452565b91506127b982612555565b91506127c58284612452565b91508190509392505050565b600060208201905081810360008301526127eb81846122e0565b905092915050565b6000602082019050818103600083015261280d8184612355565b905092915050565b600060208201905061282a60008301846123c2565b92915050565b600060208201905061284560008301846123d1565b92915050565b600060208201905081810360008301526128658184612419565b905092915050565b6000602082019050818103600083015261288681612483565b9050919050565b600060208201905081810360008301526128a6816124a6565b9050919050565b600060208201905081810360008301526128c6816124c9565b9050919050565b600060208201905081810360008301526128e6816124ec565b9050919050565b6000602082019050818103600083015261290681612532565b9050919050565b6000602082019050818103600083015261292681612578565b9050919050565b60006020820190508181036000830152612947818461268a565b905092915050565b60006020820190506129646000830184612788565b92915050565b6000819050602082019050919050565b6000819050602082019050919050565b600081519050919050565b600081519050919050565b600081519050919050565b6000602082019050919050565b6000602082019050919050565b600082825260208201905092915050565b600082825260208201905092915050565b600082825260208201905092915050565b600082825260208201905092915050565b600081905092915050565b6000612a1f82612b4a565b9150612a2a83612b4a565b9250827fffffffffffffffffffffffffffffffffffffffffffffffffffffffffffffffff03821115612a5f57612a5e612c2c565b5b828201905092915050565b6000612a7582612b4a565b9150612a8083612b4a565b9250817fffffffffffffffffffffffffffffffffffffffffffffffffffffffffffffffff0483118215151615612ab957612ab8612c2c565b5b828202905092915050565b6000612acf82612b2a565b9050919050565b6000612ae182612b2a565b9050919050565b60008115159050919050565b6000819050919050565b60007fffffffff0000000000000000000000000000000000000000000000000000000082169050919050565b600073ffffffffffffffffffffffffffffffffffffffff82169050919050565b6000819050919050565b60005b83811015612b72578082015181840152602081019050612b57565b83811115612b81576000848401525b50505050565b6000612b9282612b4a565b91506000821415612ba657612ba5612c2c565b5b600182039050919050565b60006002820490506001821680612bc957607f821691505b60208210811415612bdd57612bdc612c5b565b5b50919050565b6000612bee82612b4a565b91507fffffffffffffffffffffffffffffffffffffffffffffffffffffffffffffffff821415612c2157612c20612c2c565b5b600182019050919050565b7f4e487b7100000000000000000000000000000000000000000000000000000000600052601160045260246000fd5b7f4e487b7100000000000000000000000000000000000000000000000000000000600052602260045260246000fd5b6000601f19601f8301169050919050565b7f537472696e67733a20686578206c656e67746820696e73756666696369656e74600082015250565b7f54686973207374616b65686f6c64657220616c726561647920766f746564206f60008201527f6e20746869732070726f706f73616c0000000000000000000000000000000000602082015250565b7f5468652070726f706f73616c20646f6573206e6f74206861766520746865207260008201527f6571756972656420616d6f756e74206f6620766f74657320746f207061737300602082015250565b7f566f74696e6720706572696f642068617320706173736564206f6e207468697360008201527f2070726f706f73616c0000000000000000000000000000000000000000000000602082015250565b7f416363657373436f6e74726f6c3a206163636f756e7420000000000000000000600082015250565b7f5061796d656e7420686173206265656e206d61646520746f207468697320636860008201527f6172697479000000000000000000000000000000000000000000000000000000602082015250565b7f206973206d697373696e6720726f6c6520000000000000000000000000000000600082015250565b7f416363657373436f6e74726f6c3a2063616e206f6e6c792072656e6f756e636560008201527f20726f6c657320666f722073656c660000000000000000000000000000000000602082015250565b612eaa81612ac4565b8114612eb557600080fd5b50565b612ec181612ae8565b8114612ecc57600080fd5b50565b612ed881612af4565b8114612ee357600080fd5b50565b612eef81612afe565b8114612efa57600080fd5b50565b612f0681612b4a565b8114612f1157600080fd5b5056fe4f6e6c79207374616b65686f6c646572732061726520616c6c6f77656420746f206372656174652070726f706f73616c734f6e6c79207374616b65686f6c646572732061726520616c6c6f77656420746f206d616b65207061796d656e74734f6e6c79207374616b65686f6c646572732061726520616c6c6f77656420746f20766f7465a2646970667358221220929510a746153d1f007bfc4051bef82e2881cd25bbd25b564a710be48bfd9c2b64736f6c63430008040033",
  "immutableReferences": {},
  "source": "// SPDX-License-Identifier: MIT\npragma solidity ^0.8.0;\n\nimport \"@openzeppelin/contracts/access/AccessControl.sol\";\nimport \"@openzeppelin/contracts/security/ReentrancyGuard.sol\";\n\n/// @title CharloDAO\n/// @author Segun Ogundipe David\ncontract CharloDAO is ReentrancyGuard, AccessControl {\n    bytes32 public constant CONTRIBUTOR_ROLE = keccak256(\"CONTRIBUTOR\");\n    bytes32 public constant STAKEHOLDER_ROLE = keccak256(\"STAKEHOLDER\");\n    // Constant variable that holds the number of days a proposal can be voted on in seconds.\n    // `weeks` is a suffix provided by solidity. It translates to the total seconds in a week.\n    uint32 constant minimumVotingPeriod = 1 weeks;\n    // This variable is incremented everytime a new charity proposal is added.\n    // It is needed to iterate through the charty proposals as solidity doesn't provide a way to step through mappings.\n    uint256 numOfProposals;\n\n    /// @notice Holds all the charity proposals made in the DAO.\n    mapping(uint256 => CharityProposal) private charityProposals;\n    /// @notice Holds all the stakeholders' address and their total contributions.\n    mapping(address => uint256[]) private stakeholderVotes;\n    /// @notice Holds all the contributors' address and their total contributions.\n    mapping(address => uint256) private contributors;\n    /// Holds all the stakeholders' address and their total contributions.\n    mapping(address => uint256) private stakeholders;\n\n    /// @notice A new type definition that holds the necessary variables that makes up a charity proposal.\n    struct CharityProposal {\n        uint256 id;\n        uint256 amount;\n        uint256 livePeriod;\n        uint256 votesFor;\n        uint256 votesAgainst;\n        string description;\n        bool votingPassed;\n        bool paid;\n        address payable charityAddress;\n        address proposer;\n        address paidBy;\n    }\n\n    /// @notice Event that is emitted when a contribution is received.\n    /// @param fromAddress The address the contribution came from.\n    /// @param amount The amount of celo that was sent.\n    event ContributionReceived(address indexed fromAddress, uint256 amount);\n    /// @notice Event that is emitted when a new proposal is added to the list of proposals.\n    /// @param proposer The address of the contributer/stakeholder that created the proposal.\n    /// @param amount The amount that is requested for.\n    event NewCharityProposal(address indexed proposer, uint256 amount);\n    /// @notice Event that is emitted when payment is made to a charity.\n    /// @param stakeholder The stakeholder tha made the payment.\n    /// @param charityAddress The charity that payment was made to.\n    /// @param amount The amount that was paid.\n    event PaymentTransfered(\n        address indexed stakeholder,\n        address indexed charityAddress,\n        uint256 amount\n    );\n\n    modifier onlyStakeholder(string memory message) {\n        require(hasRole(STAKEHOLDER_ROLE, msg.sender), message);\n        _;\n    }\n\n    modifier onlyContributor(string memory message) {\n        require(hasRole(CONTRIBUTOR_ROLE, msg.sender), message);\n        _;\n    }\n\n    /// @notice Adds a new proposal to the `charityProposals` mapping.\n    /// @param description A brief description of why the proposal should be voted for.\n    /// @param charityAddress The address of the charity.\n    /// @param amount The amount of celo.\n    function createProposal(\n        string calldata description,\n        address charityAddress,\n        uint256 amount\n    )\n        external\n        onlyStakeholder(\"Only stakeholders are allowed to create proposals\")\n    {\n        uint256 proposalId = numOfProposals++;\n        CharityProposal storage proposal = charityProposals[proposalId];\n        proposal.id = proposalId;\n        proposal.proposer = payable(msg.sender);\n        proposal.description = description;\n        proposal.charityAddress = payable(charityAddress);\n        proposal.amount = amount;\n        proposal.livePeriod = block.timestamp + minimumVotingPeriod;\n\n        emit NewCharityProposal(msg.sender, amount);\n    }\n\n    /// @notice Vote for a particular proposal. Only stakeholders are allowed to vote.\n    /// @param proposalId The id of the charity proposal being voted for.\n    /// @param supportProposal true to vote for and false against.\n    function vote(uint256 proposalId, bool supportProposal)\n        external\n        onlyStakeholder(\"Only stakeholders are allowed to vote\")\n    {\n        CharityProposal storage charityProposal = charityProposals[proposalId];\n\n        votable(charityProposal);\n\n        if (supportProposal) charityProposal.votesFor++;\n        else charityProposal.votesAgainst++;\n\n        stakeholderVotes[msg.sender].push(charityProposal.id);\n    }\n\n    /// @notice Contains some conditionals that validate a proposal to be voted on.\n    /// @param charityProposal a parameter just like in doxygen (must be followed by parameter name)\n    function votable(CharityProposal storage charityProposal) private {\n        if (\n            charityProposal.votingPassed ||\n            charityProposal.livePeriod <= block.timestamp\n        ) {\n            charityProposal.votingPassed = true;\n            revert(\"Voting period has passed on this proposal\");\n        }\n\n        uint256[] memory tempVotes = stakeholderVotes[msg.sender];\n        for (uint256 votes = 0; votes < tempVotes.length; votes++) {\n            if (charityProposal.id == tempVotes[votes])\n                revert(\"This stakeholder already voted on this proposal\");\n        }\n    }\n\n    /// @notice This function makes payent to a Charity after the voting period of the proposal. Can only be called by a Stakeholder.\n    /// @param proposalId The id of the proposal to pay to.\n    function payCharity(uint256 proposalId)\n        external\n        onlyStakeholder(\"Only stakeholders are allowed to make payments\")\n    {\n        CharityProposal storage charityProposal = charityProposals[proposalId];\n\n        if (charityProposal.paid)\n            revert(\"Payment has been made to this charity\");\n\n        if (charityProposal.votesFor <= charityProposal.votesAgainst)\n            revert(\n                \"The proposal does not have the required amount of votes to pass\"\n            );\n\n        charityProposal.paid = true;\n\n        emit PaymentTransfered(\n            msg.sender,\n            charityProposal.charityAddress,\n            charityProposal.amount\n        );\n\n        return charityProposal.charityAddress.transfer(charityProposal.amount);\n    }\n\n    receive() external payable {\n        emit ContributionReceived(msg.sender, msg.value);\n    }\n\n    /// @notice This function adds a new stakeholder if the total contribution is >= 5 celo\n    function makeStakeholder(uint256 amount) external {\n        address account = msg.sender;\n        uint256 amountContributed = amount;\n        if (!hasRole(STAKEHOLDER_ROLE, account)) {\n            uint256 totalContributed =\n                contributors[account] + amountContributed;\n            if (totalContributed >= 5 ether) {\n                stakeholders[account] = totalContributed;\n                contributors[account] += amountContributed;\n                _setupRole(STAKEHOLDER_ROLE, account);\n                _setupRole(CONTRIBUTOR_ROLE, account);\n            } else {\n                contributors[account] += amountContributed;\n                _setupRole(CONTRIBUTOR_ROLE, account);\n            }\n        } else {\n            contributors[account] += amountContributed;\n            stakeholders[account] += amountContributed;\n        }\n    }\n\n    function getProposals()\n        public\n        view\n        returns (CharityProposal[] memory props)\n    {\n        props = new CharityProposal[](numOfProposals);\n\n        for (uint256 index = 0; index < numOfProposals; index++) {\n            props[index] = charityProposals[index];\n        }\n    }\n\n    function getProposal(uint256 proposalId)\n        public\n        view\n        returns (CharityProposal memory)\n    {\n        return charityProposals[proposalId];\n    }\n\n    function getStakeholderVotes() public view returns (uint256[] memory) {\n        return stakeholderVotes[msg.sender];\n    }\n\n    function getStakeholderBalance()\n        public\n        view\n        onlyStakeholder(\"User is not a stakeholder\")\n        returns (uint256)\n    {\n        return stakeholders[msg.sender];\n    }\n\n    function isStakeholder() public view returns (bool) {\n        return stakeholders[msg.sender] > 0;\n    }\n\n    function getContributorBalance()\n        public\n        view\n        onlyContributor(\"User is not a contributor\")\n        returns (uint256)\n    {\n        return contributors[msg.sender];\n    }\n\n    function isContributor() public view returns (bool) {\n        return contributors[msg.sender] > 0;\n    }\n}\n",
  "sourcePath": "/Users/mac/Projects/PhoenixTech/Tutorials/projects/charlo/contracts/CharloDAO.sol",
  "compiler": {
    "name": "solc",
    "version": "0.8.4+commit.c7e474f2.Emscripten.clang"
  },
  "schemaVersion": "3.3.4",
  "updatedAt": "2021-06-06T12:32:32.662Z",
  "networkType": "ethereum",
  "devdoc": {
    "author": "Segun Ogundipe David",
    "events": {
      "ContributionReceived(address,uint256)": {
        "params": {
          "amount": "The amount of celo that was sent.",
          "fromAddress": "The address the contribution came from."
        }
      },
      "NewCharityProposal(address,uint256)": {
        "params": {
          "amount": "The amount that is requested for.",
          "proposer": "The address of the contributer/stakeholder that created the proposal."
        }
      },
      "PaymentTransfered(address,address,uint256)": {
        "params": {
          "amount": "The amount that was paid.",
          "charityAddress": "The charity that payment was made to.",
          "stakeholder": "The stakeholder tha made the payment."
        }
      }
    },
    "kind": "dev",
    "methods": {
      "createProposal(string,address,uint256)": {
        "params": {
          "amount": "The amount of celo.",
          "charityAddress": "The address of the charity.",
          "description": "A brief description of why the proposal should be voted for."
        }
      },
      "getRoleAdmin(bytes32)": {
        "details": "Returns the admin role that controls `role`. See {grantRole} and {revokeRole}. To change a role's admin, use {_setRoleAdmin}."
      },
      "grantRole(bytes32,address)": {
        "details": "Grants `role` to `account`. If `account` had not been already granted `role`, emits a {RoleGranted} event. Requirements: - the caller must have ``role``'s admin role."
      },
      "hasRole(bytes32,address)": {
        "details": "Returns `true` if `account` has been granted `role`."
      },
      "payCharity(uint256)": {
        "params": {
          "proposalId": "The id of the proposal to pay to."
        }
      },
      "renounceRole(bytes32,address)": {
        "details": "Revokes `role` from the calling account. Roles are often managed via {grantRole} and {revokeRole}: this function's purpose is to provide a mechanism for accounts to lose their privileges if they are compromised (such as when a trusted device is misplaced). If the calling account had been granted `role`, emits a {RoleRevoked} event. Requirements: - the caller must be `account`."
      },
      "revokeRole(bytes32,address)": {
        "details": "Revokes `role` from `account`. If `account` had been granted `role`, emits a {RoleRevoked} event. Requirements: - the caller must have ``role``'s admin role."
      },
      "supportsInterface(bytes4)": {
        "details": "See {IERC165-supportsInterface}."
      },
      "vote(uint256,bool)": {
        "params": {
          "proposalId": "The id of the charity proposal being voted for.",
          "supportProposal": "true to vote for and false against."
        }
      }
    },
    "title": "CharloDAO",
    "version": 1
  },
  "userdoc": {
    "events": {
      "ContributionReceived(address,uint256)": {
        "notice": "Event that is emitted when a contribution is received."
      },
      "NewCharityProposal(address,uint256)": {
        "notice": "Event that is emitted when a new proposal is added to the list of proposals."
      },
      "PaymentTransfered(address,address,uint256)": {
        "notice": "Event that is emitted when payment is made to a charity."
      }
    },
    "kind": "user",
    "methods": {
      "createProposal(string,address,uint256)": {
        "notice": "Adds a new proposal to the `charityProposals` mapping."
      },
      "makeStakeholder(uint256)": {
        "notice": "This function adds a new stakeholder if the total contribution is >= 5 celo"
      },
      "payCharity(uint256)": {
        "notice": "This function makes payent to a Charity after the voting period of the proposal. Can only be called by a Stakeholder."
      },
      "vote(uint256,bool)": {
        "notice": "Vote for a particular proposal. Only stakeholders are allowed to vote."
      }
    },
    "version": 1
  }
}