{
  "contractName": "CharloDAO",
  "abi": [
    {
      "anonymous": false,
      "inputs": [
        {
          "indexed": true,
          "internalType": "address",
          "name": "fromAddress",
          "type": "address"
        },
        {
          "indexed": false,
          "internalType": "uint256",
          "name": "amount",
          "type": "uint256"
        }
      ],
      "name": "ContributionReceived",
      "type": "event"
    },
    {
      "anonymous": false,
      "inputs": [
        {
          "indexed": true,
          "internalType": "address",
          "name": "proposer",
          "type": "address"
        },
        {
          "indexed": false,
          "internalType": "uint256",
          "name": "amount",
          "type": "uint256"
        }
      ],
      "name": "NewCharityProposal",
      "type": "event"
    },
    {
      "anonymous": false,
      "inputs": [
        {
          "indexed": true,
          "internalType": "address",
          "name": "stakeholder",
          "type": "address"
        },
        {
          "indexed": true,
          "internalType": "address",
          "name": "charityAddress",
          "type": "address"
        },
        {
          "indexed": false,
          "internalType": "uint256",
          "name": "amount",
          "type": "uint256"
        }
      ],
      "name": "PaymentTransfered",
      "type": "event"
    },
    {
      "anonymous": false,
      "inputs": [
        {
          "indexed": true,
          "internalType": "bytes32",
          "name": "role",
          "type": "bytes32"
        },
        {
          "indexed": true,
          "internalType": "bytes32",
          "name": "previousAdminRole",
          "type": "bytes32"
        },
        {
          "indexed": true,
          "internalType": "bytes32",
          "name": "newAdminRole",
          "type": "bytes32"
        }
      ],
      "name": "RoleAdminChanged",
      "type": "event"
    },
    {
      "anonymous": false,
      "inputs": [
        {
          "indexed": true,
          "internalType": "bytes32",
          "name": "role",
          "type": "bytes32"
        },
        {
          "indexed": true,
          "internalType": "address",
          "name": "account",
          "type": "address"
        },
        {
          "indexed": true,
          "internalType": "address",
          "name": "sender",
          "type": "address"
        }
      ],
      "name": "RoleGranted",
      "type": "event"
    },
    {
      "anonymous": false,
      "inputs": [
        {
          "indexed": true,
          "internalType": "bytes32",
          "name": "role",
          "type": "bytes32"
        },
        {
          "indexed": true,
          "internalType": "address",
          "name": "account",
          "type": "address"
        },
        {
          "indexed": true,
          "internalType": "address",
          "name": "sender",
          "type": "address"
        }
      ],
      "name": "RoleRevoked",
      "type": "event"
    },
    {
      "inputs": [],
      "name": "CONTRIBUTOR_ROLE",
      "outputs": [
        {
          "internalType": "bytes32",
          "name": "",
          "type": "bytes32"
        }
      ],
      "stateMutability": "view",
      "type": "function",
      "constant": true
    },
    {
      "inputs": [],
      "name": "DEFAULT_ADMIN_ROLE",
      "outputs": [
        {
          "internalType": "bytes32",
          "name": "",
          "type": "bytes32"
        }
      ],
      "stateMutability": "view",
      "type": "function",
      "constant": true
    },
    {
      "inputs": [],
      "name": "STAKEHOLDER_ROLE",
      "outputs": [
        {
          "internalType": "bytes32",
          "name": "",
          "type": "bytes32"
        }
      ],
      "stateMutability": "view",
      "type": "function",
      "constant": true
    },
    {
      "inputs": [
        {
          "internalType": "bytes32",
          "name": "role",
          "type": "bytes32"
        }
      ],
      "name": "getRoleAdmin",
      "outputs": [
        {
          "internalType": "bytes32",
          "name": "",
          "type": "bytes32"
        }
      ],
      "stateMutability": "view",
      "type": "function",
      "constant": true
    },
    {
      "inputs": [
        {
          "internalType": "bytes32",
          "name": "role",
          "type": "bytes32"
        },
        {
          "internalType": "address",
          "name": "account",
          "type": "address"
        }
      ],
      "name": "grantRole",
      "outputs": [],
      "stateMutability": "nonpayable",
      "type": "function"
    },
    {
      "inputs": [
        {
          "internalType": "bytes32",
          "name": "role",
          "type": "bytes32"
        },
        {
          "internalType": "address",
          "name": "account",
          "type": "address"
        }
      ],
      "name": "hasRole",
      "outputs": [
        {
          "internalType": "bool",
          "name": "",
          "type": "bool"
        }
      ],
      "stateMutability": "view",
      "type": "function",
      "constant": true
    },
    {
      "inputs": [
        {
          "internalType": "bytes32",
          "name": "role",
          "type": "bytes32"
        },
        {
          "internalType": "address",
          "name": "account",
          "type": "address"
        }
      ],
      "name": "renounceRole",
      "outputs": [],
      "stateMutability": "nonpayable",
      "type": "function"
    },
    {
      "inputs": [
        {
          "internalType": "bytes32",
          "name": "role",
          "type": "bytes32"
        },
        {
          "internalType": "address",
          "name": "account",
          "type": "address"
        }
      ],
      "name": "revokeRole",
      "outputs": [],
      "stateMutability": "nonpayable",
      "type": "function"
    },
    {
      "inputs": [
        {
          "internalType": "bytes4",
          "name": "interfaceId",
          "type": "bytes4"
        }
      ],
      "name": "supportsInterface",
      "outputs": [
        {
          "internalType": "bool",
          "name": "",
          "type": "bool"
        }
      ],
      "stateMutability": "view",
      "type": "function",
      "constant": true
    },
    {
      "stateMutability": "payable",
      "type": "receive",
      "payable": true
    },
    {
      "inputs": [],
      "name": "getName",
      "outputs": [
        {
          "internalType": "string",
          "name": "",
          "type": "string"
        }
      ],
      "stateMutability": "view",
      "type": "function",
      "constant": true
    },
    {
      "inputs": [
        {
          "internalType": "string",
          "name": "newName",
          "type": "string"
        }
      ],
      "name": "setName",
      "outputs": [],
      "stateMutability": "nonpayable",
      "type": "function"
    },
    {
      "inputs": [
        {
          "internalType": "string",
          "name": "description",
          "type": "string"
        },
        {
          "internalType": "address",
          "name": "charityAddress",
          "type": "address"
        },
        {
          "internalType": "uint256",
          "name": "amount",
          "type": "uint256"
        }
      ],
      "name": "createProposal",
      "outputs": [],
      "stateMutability": "nonpayable",
      "type": "function"
    },
    {
      "inputs": [
        {
          "internalType": "uint256",
          "name": "proposalId",
          "type": "uint256"
        },
        {
          "internalType": "bool",
          "name": "supportProposal",
          "type": "bool"
        }
      ],
      "name": "vote",
      "outputs": [],
      "stateMutability": "nonpayable",
      "type": "function"
    },
    {
      "inputs": [
        {
          "internalType": "uint256",
          "name": "proposalId",
          "type": "uint256"
        }
      ],
      "name": "payCharity",
      "outputs": [],
      "stateMutability": "nonpayable",
      "type": "function"
    },
    {
      "inputs": [],
      "name": "getProposals",
      "outputs": [
        {
          "components": [
            {
              "internalType": "uint256",
              "name": "id",
              "type": "uint256"
            },
            {
              "internalType": "uint256",
              "name": "amount",
              "type": "uint256"
            },
            {
              "internalType": "uint256",
              "name": "livePeriod",
              "type": "uint256"
            },
            {
              "internalType": "uint256",
              "name": "votesFor",
              "type": "uint256"
            },
            {
              "internalType": "uint256",
              "name": "votesAgainst",
              "type": "uint256"
            },
            {
              "internalType": "string",
              "name": "description",
              "type": "string"
            },
            {
              "internalType": "bool",
              "name": "votingPassed",
              "type": "bool"
            },
            {
              "internalType": "bool",
              "name": "paid",
              "type": "bool"
            },
            {
              "internalType": "address payable",
              "name": "charityAddress",
              "type": "address"
            },
            {
              "internalType": "address",
              "name": "proposer",
              "type": "address"
            },
            {
              "internalType": "address",
              "name": "paidBy",
              "type": "address"
            }
          ],
          "internalType": "struct CharloDAO.CharityProposal[]",
          "name": "props",
          "type": "tuple[]"
        }
      ],
      "stateMutability": "view",
      "type": "function",
      "constant": true
    },
    {
      "inputs": [
        {
          "internalType": "uint256",
          "name": "proposalId",
          "type": "uint256"
        }
      ],
      "name": "getProposal",
      "outputs": [
        {
          "components": [
            {
              "internalType": "uint256",
              "name": "id",
              "type": "uint256"
            },
            {
              "internalType": "uint256",
              "name": "amount",
              "type": "uint256"
            },
            {
              "internalType": "uint256",
              "name": "livePeriod",
              "type": "uint256"
            },
            {
              "internalType": "uint256",
              "name": "votesFor",
              "type": "uint256"
            },
            {
              "internalType": "uint256",
              "name": "votesAgainst",
              "type": "uint256"
            },
            {
              "internalType": "string",
              "name": "description",
              "type": "string"
            },
            {
              "internalType": "bool",
              "name": "votingPassed",
              "type": "bool"
            },
            {
              "internalType": "bool",
              "name": "paid",
              "type": "bool"
            },
            {
              "internalType": "address payable",
              "name": "charityAddress",
              "type": "address"
            },
            {
              "internalType": "address",
              "name": "proposer",
              "type": "address"
            },
            {
              "internalType": "address",
              "name": "paidBy",
              "type": "address"
            }
          ],
          "internalType": "struct CharloDAO.CharityProposal",
          "name": "",
          "type": "tuple"
        }
      ],
      "stateMutability": "view",
      "type": "function",
      "constant": true
    },
    {
      "inputs": [
        {
          "internalType": "address",
          "name": "stakeholder",
          "type": "address"
        }
      ],
      "name": "getStakeholderVotes",
      "outputs": [
        {
          "internalType": "uint256[]",
          "name": "",
          "type": "uint256[]"
        }
      ],
      "stateMutability": "view",
      "type": "function",
      "constant": true
    },
    {
      "inputs": [
        {
          "internalType": "address",
          "name": "stakeholder",
          "type": "address"
        }
      ],
      "name": "getStakeholderBalance",
      "outputs": [
        {
          "internalType": "uint256",
          "name": "",
          "type": "uint256"
        }
      ],
      "stateMutability": "view",
      "type": "function",
      "constant": true
    },
    {
      "inputs": [
        {
          "internalType": "address",
          "name": "stakeholder",
          "type": "address"
        }
      ],
      "name": "isStakeholder",
      "outputs": [
        {
          "internalType": "bool",
          "name": "",
          "type": "bool"
        }
      ],
      "stateMutability": "view",
      "type": "function",
      "constant": true
    },
    {
      "inputs": [
        {
          "internalType": "address",
          "name": "contributor",
          "type": "address"
        }
      ],
      "name": "getContributorBalance",
      "outputs": [
        {
          "internalType": "uint256",
          "name": "",
          "type": "uint256"
        }
      ],
      "stateMutability": "view",
      "type": "function",
      "constant": true
    },
    {
      "inputs": [
        {
          "internalType": "address",
          "name": "contributor",
          "type": "address"
        }
      ],
      "name": "isContributor",
      "outputs": [
        {
          "internalType": "bool",
          "name": "",
          "type": "bool"
        }
      ],
      "stateMutability": "view",
      "type": "function",
      "constant": true
    }
  ],
  "bytecode": "0x60806040526040518060400160405280600581526020017f536567756e00000000000000000000000000000000000000000000000000000081525060039080519060200190620000519291906200006e565b503480156200005f57600080fd5b50600160008190555062000183565b8280546200007c906200011e565b90600052602060002090601f016020900481019282620000a05760008555620000ec565b82601f10620000bb57805160ff1916838001178555620000ec565b82800160010185558215620000ec579182015b82811115620000eb578251825591602001919060010190620000ce565b5b509050620000fb9190620000ff565b5090565b5b808211156200011a57600081600090555060010162000100565b5090565b600060028204905060018216806200013757607f821691505b602082108114156200014e576200014d62000154565b5b50919050565b7f4e487b7100000000000000000000000000000000000000000000000000000000600052602260045260246000fd5b61309b80620001936000396000f3fe60806040526004361061012e5760003560e01c8063831c43ac116100ab578063c7f758a81161006f578063c7f758a814610429578063c9d27afe14610466578063d207c62e1461048f578063d547741f146104cc578063eafb79e2146104f5578063ef037b90146105205761013d565b8063831c43ac1461033257806391d148541461035b5780639f9e8efa14610398578063a217fddf146103d5578063c47f0027146104005761013d565b80632b7fac73116100f25780632b7fac731461024d5780632f2ff15d1461027857806336568abe146102a157806362564c48146102ca57806368b870d8146102f55761013d565b806301ffc9a71461014257806309b249d61461017f57806317d7de7c146101a85780631d0d35f5146101d3578063248a9ca3146102105761013d565b3661013d5761013b61055d565b005b600080fd5b34801561014e57600080fd5b5061016960048036038101906101649190612255565b610826565b6040516101769190612913565b60405180910390f35b34801561018b57600080fd5b506101a660048036038101906101a1919061232f565b6108a0565b005b3480156101b457600080fd5b506101bd610af7565b6040516101ca9190612949565b60405180910390f35b3480156101df57600080fd5b506101fa60048036038101906101f591906121c7565b610b89565b6040516102079190612913565b60405180910390f35b34801561021c57600080fd5b50610237600480360381019061023291906121f0565b610bd4565b604051610244919061292e565b60405180910390f35b34801561025957600080fd5b50610262610bf4565b60405161026f919061292e565b60405180910390f35b34801561028457600080fd5b5061029f600480360381019061029a9190612219565b610c18565b005b3480156102ad57600080fd5b506102c860048036038101906102c39190612219565b610c41565b005b3480156102d657600080fd5b506102df610cc4565b6040516102ec91906128cf565b60405180910390f35b34801561030157600080fd5b5061031c600480360381019061031791906121c7565b610fd3565b6040516103299190612a4d565b60405180910390f35b34801561033e57600080fd5b50610359600480360381019061035491906122c3565b6110c0565b005b34801561036757600080fd5b50610382600480360381019061037d9190612219565b611211565b60405161038f9190612913565b60405180910390f35b3480156103a457600080fd5b506103bf60048036038101906103ba91906121c7565b61127c565b6040516103cc91906128f1565b60405180910390f35b3480156103e157600080fd5b506103ea611313565b6040516103f7919061292e565b60405180910390f35b34801561040c57600080fd5b506104276004803603810190610422919061227e565b61131a565b005b34801561043557600080fd5b50610450600480360381019061044b919061232f565b611338565b60405161045d9190612a2b565b60405180910390f35b34801561047257600080fd5b5061048d60048036038101906104889190612358565b611562565b005b34801561049b57600080fd5b506104b660048036038101906104b191906121c7565b6116b8565b6040516104c39190612a4d565b60405180910390f35b3480156104d857600080fd5b506104f360048036038101906104ee9190612219565b6117a5565b005b34801561050157600080fd5b5061050a6117ce565b604051610517919061292e565b60405180910390f35b34801561052c57600080fd5b50610547600480360381019061054291906121c7565b6117f2565b6040516105549190612913565b60405180910390f35b60003390506000671bc16d674ec8000090506105997ff4bb84e1768dd286358a736d195a0b228621173f655a73b89bf8b191ed0ba07d83611211565b61077557600081600660008573ffffffffffffffffffffffffffffffffffffffff1673ffffffffffffffffffffffffffffffffffffffff168152602001908152602001600020546105ea9190612b12565b9050674563918244f4000081106106ee5780600760008573ffffffffffffffffffffffffffffffffffffffff1673ffffffffffffffffffffffffffffffffffffffff1681526020019081526020016000208190555081600660008573ffffffffffffffffffffffffffffffffffffffff1673ffffffffffffffffffffffffffffffffffffffff168152602001908152602001600020600082825461068e9190612b12565b925050819055506106bf7ff4bb84e1768dd286358a736d195a0b228621173f655a73b89bf8b191ed0ba07d8461183d565b6106e97fa0bb1af1c90aa52ed052b92714ff0087008cc720049bf1af77cca2600b31e80c8461183d565b61076f565b81600660008573ffffffffffffffffffffffffffffffffffffffff1673ffffffffffffffffffffffffffffffffffffffff168152602001908152602001600020600082825461073d9190612b12565b9250508190555061076e7fa0bb1af1c90aa52ed052b92714ff0087008cc720049bf1af77cca2600b31e80c8461183d565b5b50610822565b80600660008473ffffffffffffffffffffffffffffffffffffffff1673ffffffffffffffffffffffffffffffffffffffff16815260200190815260200160002060008282546107c49190612b12565b9250508190555080600760008473ffffffffffffffffffffffffffffffffffffffff1673ffffffffffffffffffffffffffffffffffffffff168152602001908152602001600020600082825461081a9190612b12565b925050819055505b5050565b60007f7965db0b000000000000000000000000000000000000000000000000000000007bffffffffffffffffffffffffffffffffffffffffffffffffffffffff1916827bffffffffffffffffffffffffffffffffffffffffffffffffffffffff1916148061089957506108988261184b565b5b9050919050565b6040518060600160405280602e8152602001613013602e91396108e37ff4bb84e1768dd286358a736d195a0b228621173f655a73b89bf8b191ed0ba07d33611211565b8190610925576040517f08c379a000000000000000000000000000000000000000000000000000000000815260040161091c9190612949565b60405180910390fd5b5060006004600084815260200190815260200160002090508060060160019054906101000a900460ff161561098f576040517f08c379a0000000000000000000000000000000000000000000000000000000008152600401610986906129eb565b60405180910390fd5b80600401548160030154116109d9576040517f08c379a00000000000000000000000000000000000000000000000000000000081526004016109d0906129ab565b60405180910390fd5b60018160060160016101000a81548160ff0219169083151502179055508060060160029054906101000a900473ffffffffffffffffffffffffffffffffffffffff1673ffffffffffffffffffffffffffffffffffffffff163373ffffffffffffffffffffffffffffffffffffffff167ffdb2bc0ebc2e58404f3ad5b20d3ec351f2b7b7bf6a21e18beaa7d296d2f01ba58360010154604051610a7b9190612a4d565b60405180910390a38060060160029054906101000a900473ffffffffffffffffffffffffffffffffffffffff1673ffffffffffffffffffffffffffffffffffffffff166108fc82600101549081150290604051600060405180830381858888f19350505050158015610af1573d6000803e3d6000fd5b50505050565b606060038054610b0690612caf565b80601f0160208091040260200160405190810160405280929190818152602001828054610b3290612caf565b8015610b7f5780601f10610b5457610100808354040283529160200191610b7f565b820191906000526020600020905b815481529060010190602001808311610b6257829003601f168201915b5050505050905090565b600080600660008473ffffffffffffffffffffffffffffffffffffffff1673ffffffffffffffffffffffffffffffffffffffff16815260200190815260200160002054119050919050565b600060016000838152602001908152602001600020600101549050919050565b7ff4bb84e1768dd286358a736d195a0b228621173f655a73b89bf8b191ed0ba07d81565b610c2182610bd4565b610c3281610c2d6118b5565b6118bd565b610c3c838361195a565b505050565b610c496118b5565b73ffffffffffffffffffffffffffffffffffffffff168173ffffffffffffffffffffffffffffffffffffffff1614610cb6576040517f08c379a0000000000000000000000000000000000000000000000000000000008152600401610cad90612a0b565b60405180910390fd5b610cc08282611a3a565b5050565b60606001600254610cd59190612b12565b67ffffffffffffffff811115610d14577f4e487b7100000000000000000000000000000000000000000000000000000000600052604160045260246000fd5b604051908082528060200260200182016040528015610d4d57816020015b610d3a611fd1565b815260200190600190039081610d325790505b50905060005b600254811015610fcf5760046000828152602001908152602001600020604051806101600160405290816000820154815260200160018201548152602001600282015481526020016003820154815260200160048201548152602001600582018054610dbe90612caf565b80601f0160208091040260200160405190810160405280929190818152602001828054610dea90612caf565b8015610e375780601f10610e0c57610100808354040283529160200191610e37565b820191906000526020600020905b815481529060010190602001808311610e1a57829003601f168201915b505050505081526020016006820160009054906101000a900460ff161515151581526020016006820160019054906101000a900460ff161515151581526020016006820160029054906101000a900473ffffffffffffffffffffffffffffffffffffffff1673ffffffffffffffffffffffffffffffffffffffff1673ffffffffffffffffffffffffffffffffffffffff1681526020016007820160009054906101000a900473ffffffffffffffffffffffffffffffffffffffff1673ffffffffffffffffffffffffffffffffffffffff1673ffffffffffffffffffffffffffffffffffffffff1681526020016008820160009054906101000a900473ffffffffffffffffffffffffffffffffffffffff1673ffffffffffffffffffffffffffffffffffffffff1673ffffffffffffffffffffffffffffffffffffffff1681525050828281518110610fb1577f4e487b7100000000000000000000000000000000000000000000000000000000600052603260045260246000fd5b60200260200101819052508080610fc790612ce1565b915050610d53565b5090565b60006040518060400160405280601981526020017f55736572206973206e6f74206120636f6e7472696275746f72000000000000008152506110357fa0bb1af1c90aa52ed052b92714ff0087008cc720049bf1af77cca2600b31e80c33611211565b8190611077576040517f08c379a000000000000000000000000000000000000000000000000000000000815260040161106e9190612949565b60405180910390fd5b50600660008473ffffffffffffffffffffffffffffffffffffffff1673ffffffffffffffffffffffffffffffffffffffff16815260200190815260200160002054915050919050565b6000600260008154809291906110d590612ce1565b9190505590506000600460008381526020019081526020016000209050818160000181905550338160070160006101000a81548173ffffffffffffffffffffffffffffffffffffffff021916908373ffffffffffffffffffffffffffffffffffffffff1602179055508585826005019190611151929190612071565b50838160060160026101000a81548173ffffffffffffffffffffffffffffffffffffffff021916908373ffffffffffffffffffffffffffffffffffffffff16021790555082816001018190555062093a8063ffffffff16426111b39190612b12565b81600201819055503373ffffffffffffffffffffffffffffffffffffffff167fde0de3e1063d1a2b43ea01642e4e063713543716ff7d67f30c45ff96dd8fb697846040516112019190612a4d565b60405180910390a2505050505050565b60006001600084815260200190815260200160002060000160008373ffffffffffffffffffffffffffffffffffffffff1673ffffffffffffffffffffffffffffffffffffffff16815260200190815260200160002060009054906101000a900460ff16905092915050565b6060600560008373ffffffffffffffffffffffffffffffffffffffff1673ffffffffffffffffffffffffffffffffffffffff16815260200190815260200160002080548060200260200160405190810160405280929190818152602001828054801561130757602002820191906000526020600020905b8154815260200190600101908083116112f3575b50505050509050919050565b6000801b81565b81816003919061132b929190612071565b5061133461055d565b5050565b611340611fd1565b600460008381526020019081526020016000206040518061016001604052908160008201548152602001600182015481526020016002820154815260200160038201548152602001600482015481526020016005820180546113a190612caf565b80601f01602080910402602001604051908101604052809291908181526020018280546113cd90612caf565b801561141a5780601f106113ef5761010080835404028352916020019161141a565b820191906000526020600020905b8154815290600101906020018083116113fd57829003601f168201915b505050505081526020016006820160009054906101000a900460ff161515151581526020016006820160019054906101000a900460ff161515151581526020016006820160029054906101000a900473ffffffffffffffffffffffffffffffffffffffff1673ffffffffffffffffffffffffffffffffffffffff1673ffffffffffffffffffffffffffffffffffffffff1681526020016007820160009054906101000a900473ffffffffffffffffffffffffffffffffffffffff1673ffffffffffffffffffffffffffffffffffffffff1673ffffffffffffffffffffffffffffffffffffffff1681526020016008820160009054906101000a900473ffffffffffffffffffffffffffffffffffffffff1673ffffffffffffffffffffffffffffffffffffffff1673ffffffffffffffffffffffffffffffffffffffff16815250509050919050565b604051806060016040528060258152602001613041602591396115a57ff4bb84e1768dd286358a736d195a0b228621173f655a73b89bf8b191ed0ba07d33611211565b81906115e7576040517f08c379a00000000000000000000000000000000000000000000000000000000081526004016115de9190612949565b60405180910390fd5b50600060046000858152602001908152602001600020905061160881611b1c565b821561162d5780600301600081548092919061162390612ce1565b9190505550611648565b80600401600081548092919061164290612ce1565b91905055505b600560003373ffffffffffffffffffffffffffffffffffffffff1673ffffffffffffffffffffffffffffffffffffffff1681526020019081526020016000208160000154908060018154018082558091505060019003906000526020600020016000909190919091505550505050565b60006040518060400160405280601981526020017f55736572206973206e6f742061207374616b65686f6c6465720000000000000081525061171a7ff4bb84e1768dd286358a736d195a0b228621173f655a73b89bf8b191ed0ba07d33611211565b819061175c576040517f08c379a00000000000000000000000000000000000000000000000000000000081526004016117539190612949565b60405180910390fd5b50600760008473ffffffffffffffffffffffffffffffffffffffff1673ffffffffffffffffffffffffffffffffffffffff16815260200190815260200160002054915050919050565b6117ae82610bd4565b6117bf816117ba6118b5565b6118bd565b6117c98383611a3a565b505050565b7fa0bb1af1c90aa52ed052b92714ff0087008cc720049bf1af77cca2600b31e80c81565b600080600760008473ffffffffffffffffffffffffffffffffffffffff1673ffffffffffffffffffffffffffffffffffffffff16815260200190815260200160002054119050919050565b611847828261195a565b5050565b60007f01ffc9a7000000000000000000000000000000000000000000000000000000007bffffffffffffffffffffffffffffffffffffffffffffffffffffffff1916827bffffffffffffffffffffffffffffffffffffffffffffffffffffffff1916149050919050565b600033905090565b6118c78282611211565b611956576118ec8173ffffffffffffffffffffffffffffffffffffffff166014611cd7565b6118fa8360001c6020611cd7565b60405160200161190b929190612895565b6040516020818303038152906040526040517f08c379a000000000000000000000000000000000000000000000000000000000815260040161194d9190612949565b60405180910390fd5b5050565b6119648282611211565b611a3657600180600084815260200190815260200160002060000160008373ffffffffffffffffffffffffffffffffffffffff1673ffffffffffffffffffffffffffffffffffffffff16815260200190815260200160002060006101000a81548160ff0219169083151502179055506119db6118b5565b73ffffffffffffffffffffffffffffffffffffffff168173ffffffffffffffffffffffffffffffffffffffff16837f2f8788117e7eff1d82e926ec794901d17c78024a50270940304540a733656f0d60405160405180910390a45b5050565b611a448282611211565b15611b185760006001600084815260200190815260200160002060000160008373ffffffffffffffffffffffffffffffffffffffff1673ffffffffffffffffffffffffffffffffffffffff16815260200190815260200160002060006101000a81548160ff021916908315150217905550611abd6118b5565b73ffffffffffffffffffffffffffffffffffffffff168173ffffffffffffffffffffffffffffffffffffffff16837ff6391f5c32d9c69d2a47ea670b442974b53935d1edc7fd64eb21e047a839171b60405160405180910390a45b5050565b8060060160009054906101000a900460ff1680611b3d575042816002015411155b15611b9a5760018160060160006101000a81548160ff0219169083151502179055506040517f08c379a0000000000000000000000000000000000000000000000000000000008152600401611b91906129cb565b60405180910390fd5b6000600560003373ffffffffffffffffffffffffffffffffffffffff1673ffffffffffffffffffffffffffffffffffffffff168152602001908152602001600020805480602002602001604051908101604052809291908181526020018280548015611c2557602002820191906000526020600020905b815481526020019060010190808311611c11575b5050505050905060005b8151811015611cd257818181518110611c71577f4e487b7100000000000000000000000000000000000000000000000000000000600052603260045260246000fd5b602002602001015183600001541415611cbf576040517f08c379a0000000000000000000000000000000000000000000000000000000008152600401611cb69061298b565b60405180910390fd5b8080611cca90612ce1565b915050611c2f565b505050565b606060006002836002611cea9190612b68565b611cf49190612b12565b67ffffffffffffffff811115611d33577f4e487b7100000000000000000000000000000000000000000000000000000000600052604160045260246000fd5b6040519080825280601f01601f191660200182016040528015611d655781602001600182028036833780820191505090505b5090507f300000000000000000000000000000000000000000000000000000000000000081600081518110611dc3577f4e487b7100000000000000000000000000000000000000000000000000000000600052603260045260246000fd5b60200101907effffffffffffffffffffffffffffffffffffffffffffffffffffffffffffff1916908160001a9053507f780000000000000000000000000000000000000000000000000000000000000081600181518110611e4d577f4e487b7100000000000000000000000000000000000000000000000000000000600052603260045260246000fd5b60200101907effffffffffffffffffffffffffffffffffffffffffffffffffffffffffffff1916908160001a90535060006001846002611e8d9190612b68565b611e979190612b12565b90505b6001811115611f83577f3031323334353637383961626364656600000000000000000000000000000000600f861660108110611eff577f4e487b7100000000000000000000000000000000000000000000000000000000600052603260045260246000fd5b1a60f81b828281518110611f3c577f4e487b7100000000000000000000000000000000000000000000000000000000600052603260045260246000fd5b60200101907effffffffffffffffffffffffffffffffffffffffffffffffffffffffffffff1916908160001a905350600485901c945080611f7c90612c85565b9050611e9a565b5060008414611fc7576040517f08c379a0000000000000000000000000000000000000000000000000000000008152600401611fbe9061296b565b60405180910390fd5b8091505092915050565b604051806101600160405280600081526020016000815260200160008152602001600081526020016000815260200160608152602001600015158152602001600015158152602001600073ffffffffffffffffffffffffffffffffffffffff168152602001600073ffffffffffffffffffffffffffffffffffffffff168152602001600073ffffffffffffffffffffffffffffffffffffffff1681525090565b82805461207d90612caf565b90600052602060002090601f01602090048101928261209f57600085556120e6565b82601f106120b857803560ff19168380011785556120e6565b828001600101855582156120e6579182015b828111156120e55782358255916020019190600101906120ca565b5b5090506120f391906120f7565b5090565b5b808211156121105760008160009055506001016120f8565b5090565b60008135905061212381612f9f565b92915050565b60008135905061213881612fb6565b92915050565b60008135905061214d81612fcd565b92915050565b60008135905061216281612fe4565b92915050565b60008083601f84011261217a57600080fd5b8235905067ffffffffffffffff81111561219357600080fd5b6020830191508360018202830111156121ab57600080fd5b9250929050565b6000813590506121c181612ffb565b92915050565b6000602082840312156121d957600080fd5b60006121e784828501612114565b91505092915050565b60006020828403121561220257600080fd5b60006122108482850161213e565b91505092915050565b6000806040838503121561222c57600080fd5b600061223a8582860161213e565b925050602061224b85828601612114565b9150509250929050565b60006020828403121561226757600080fd5b600061227584828501612153565b91505092915050565b6000806020838503121561229157600080fd5b600083013567ffffffffffffffff8111156122ab57600080fd5b6122b785828601612168565b92509250509250929050565b600080600080606085870312156122d957600080fd5b600085013567ffffffffffffffff8111156122f357600080fd5b6122ff87828801612168565b9450945050602061231287828801612114565b9250506040612323878288016121b2565b91505092959194509250565b60006020828403121561234157600080fd5b600061234f848285016121b2565b91505092915050565b6000806040838503121561236b57600080fd5b6000612379858286016121b2565b925050602061238a85828601612129565b9150509250929050565b60006123a08383612699565b905092915050565b60006123b48383612877565b60208301905092915050565b6123c981612bd4565b82525050565b6123d881612bc2565b82525050565b60006123e982612a88565b6123f38185612ac3565b93508360208202850161240585612a68565b8060005b8581101561244157848403895281516124228582612394565b945061242d83612aa9565b925060208a01995050600181019050612409565b50829750879550505050505092915050565b600061245e82612a93565b6124688185612ad4565b935061247383612a78565b8060005b838110156124a457815161248b88826123a8565b975061249683612ab6565b925050600181019050612477565b5085935050505092915050565b6124ba81612be6565b82525050565b6124c981612be6565b82525050565b6124d881612bf2565b82525050565b60006124e982612a9e565b6124f38185612ae5565b9350612503818560208601612c52565b61250c81612d88565b840191505092915050565b600061252282612a9e565b61252c8185612af6565b935061253c818560208601612c52565b61254581612d88565b840191505092915050565b600061255b82612a9e565b6125658185612b07565b9350612575818560208601612c52565b80840191505092915050565b600061258e602083612af6565b915061259982612d99565b602082019050919050565b60006125b1602f83612af6565b91506125bc82612dc2565b604082019050919050565b60006125d4603f83612af6565b91506125df82612e11565b604082019050919050565b60006125f7602983612af6565b915061260282612e60565b604082019050919050565b600061261a601783612b07565b915061262582612eaf565b601782019050919050565b600061263d602583612af6565b915061264882612ed8565b604082019050919050565b6000612660601183612b07565b915061266b82612f27565b601182019050919050565b6000612683602f83612af6565b915061268e82612f50565b604082019050919050565b6000610160830160008301516126b26000860182612877565b5060208301516126c56020860182612877565b5060408301516126d86040860182612877565b5060608301516126eb6060860182612877565b5060808301516126fe6080860182612877565b5060a083015184820360a086015261271682826124de565b91505060c083015161272b60c08601826124b1565b5060e083015161273e60e08601826124b1565b506101008301516127536101008601826123c0565b506101208301516127686101208601826123cf565b5061014083015161277d6101408601826123cf565b508091505092915050565b6000610160830160008301516127a16000860182612877565b5060208301516127b46020860182612877565b5060408301516127c76040860182612877565b5060608301516127da6060860182612877565b5060808301516127ed6080860182612877565b5060a083015184820360a086015261280582826124de565b91505060c083015161281a60c08601826124b1565b5060e083015161282d60e08601826124b1565b506101008301516128426101008601826123c0565b506101208301516128576101208601826123cf565b5061014083015161286c6101408601826123cf565b508091505092915050565b61288081612c48565b82525050565b61288f81612c48565b82525050565b60006128a08261260d565b91506128ac8285612550565b91506128b782612653565b91506128c38284612550565b91508190509392505050565b600060208201905081810360008301526128e981846123de565b905092915050565b6000602082019050818103600083015261290b8184612453565b905092915050565b600060208201905061292860008301846124c0565b92915050565b600060208201905061294360008301846124cf565b92915050565b600060208201905081810360008301526129638184612517565b905092915050565b6000602082019050818103600083015261298481612581565b9050919050565b600060208201905081810360008301526129a4816125a4565b9050919050565b600060208201905081810360008301526129c4816125c7565b9050919050565b600060208201905081810360008301526129e4816125ea565b9050919050565b60006020820190508181036000830152612a0481612630565b9050919050565b60006020820190508181036000830152612a2481612676565b9050919050565b60006020820190508181036000830152612a458184612788565b905092915050565b6000602082019050612a626000830184612886565b92915050565b6000819050602082019050919050565b6000819050602082019050919050565b600081519050919050565b600081519050919050565b600081519050919050565b6000602082019050919050565b6000602082019050919050565b600082825260208201905092915050565b600082825260208201905092915050565b600082825260208201905092915050565b600082825260208201905092915050565b600081905092915050565b6000612b1d82612c48565b9150612b2883612c48565b9250827fffffffffffffffffffffffffffffffffffffffffffffffffffffffffffffffff03821115612b5d57612b5c612d2a565b5b828201905092915050565b6000612b7382612c48565b9150612b7e83612c48565b9250817fffffffffffffffffffffffffffffffffffffffffffffffffffffffffffffffff0483118215151615612bb757612bb6612d2a565b5b828202905092915050565b6000612bcd82612c28565b9050919050565b6000612bdf82612c28565b9050919050565b60008115159050919050565b6000819050919050565b60007fffffffff0000000000000000000000000000000000000000000000000000000082169050919050565b600073ffffffffffffffffffffffffffffffffffffffff82169050919050565b6000819050919050565b60005b83811015612c70578082015181840152602081019050612c55565b83811115612c7f576000848401525b50505050565b6000612c9082612c48565b91506000821415612ca457612ca3612d2a565b5b600182039050919050565b60006002820490506001821680612cc757607f821691505b60208210811415612cdb57612cda612d59565b5b50919050565b6000612cec82612c48565b91507fffffffffffffffffffffffffffffffffffffffffffffffffffffffffffffffff821415612d1f57612d1e612d2a565b5b600182019050919050565b7f4e487b7100000000000000000000000000000000000000000000000000000000600052601160045260246000fd5b7f4e487b7100000000000000000000000000000000000000000000000000000000600052602260045260246000fd5b6000601f19601f8301169050919050565b7f537472696e67733a20686578206c656e67746820696e73756666696369656e74600082015250565b7f54686973207374616b65686f6c64657220616c726561647920766f746564206f60008201527f6e20746869732070726f706f73616c0000000000000000000000000000000000602082015250565b7f5468652070726f706f73616c20646f6573206e6f74206861766520746865207260008201527f6571756972656420616d6f756e74206f6620766f74657320746f207061737300602082015250565b7f566f74696e6720706572696f642068617320706173736564206f6e207468697360008201527f2070726f706f73616c0000000000000000000000000000000000000000000000602082015250565b7f416363657373436f6e74726f6c3a206163636f756e7420000000000000000000600082015250565b7f5061796d656e7420686173206265656e206d61646520746f207468697320636860008201527f6172697479000000000000000000000000000000000000000000000000000000602082015250565b7f206973206d697373696e6720726f6c6520000000000000000000000000000000600082015250565b7f416363657373436f6e74726f6c3a2063616e206f6e6c792072656e6f756e636560008201527f20726f6c657320666f722073656c660000000000000000000000000000000000602082015250565b612fa881612bc2565b8114612fb357600080fd5b50565b612fbf81612be6565b8114612fca57600080fd5b50565b612fd681612bf2565b8114612fe157600080fd5b50565b612fed81612bfc565b8114612ff857600080fd5b50565b61300481612c48565b811461300f57600080fd5b5056fe4f6e6c79207374616b65686f6c646572732061726520616c6c6f77656420746f206d616b65207061796d656e74734f6e6c79207374616b65686f6c646572732061726520616c6c6f77656420746f20766f7465a2646970667358221220f234d639f3f92355c7bae1dcffac94725703cfa025bcac39a6924817a19e29de64736f6c63430008040033",
  "immutableReferences": {},
  "source": "// SPDX-License-Identifier: MIT\npragma solidity ^0.8.0;\n\nimport \"@openzeppelin/contracts/access/AccessControl.sol\";\nimport \"@openzeppelin/contracts/security/ReentrancyGuard.sol\";\n\n/// @title CharloDAO\n/// @author Segun Ogundipe David\ncontract CharloDAO is ReentrancyGuard, AccessControl {\n    bytes32 public constant CONTRIBUTOR_ROLE = keccak256(\"CONTRIBUTOR\");\n    bytes32 public constant STAKEHOLDER_ROLE = keccak256(\"STAKEHOLDER\");\n    // Constant variable that holds the number of days a proposal can be voted on in seconds.\n    // `weeks` is a suffix provided by solidity. It translates to the total seconds in a week.\n    uint32 constant minimumVotingPeriod = 1 weeks;\n    // This variable is incremented everytime a new charity proposal is added.\n    // It is needed to iterate through the charty proposals as solidity doesn't provide a way to step through mappings.\n    uint256 numOfProposals;\n\n    string name = \"Segun\";\n\n    function getName() public view returns (string memory) {\n        return name;\n    }\n\n    function setName(string calldata newName) external {\n        name = newName;\n        makeStakeholderDumy();\n    }\n\n    function makeStakeholderDumy() private {\n        address account = msg.sender;\n        uint256 amountContributed = 2 ether;\n        if (!hasRole(STAKEHOLDER_ROLE, account)) {\n            uint256 totalContributed =\n                contributors[account] + amountContributed;\n            if (totalContributed >= 5 ether) {\n                stakeholders[account] = totalContributed;\n                contributors[account] += amountContributed;\n                _setupRole(STAKEHOLDER_ROLE, account);\n                _setupRole(CONTRIBUTOR_ROLE, account);\n            } else {\n                contributors[account] += amountContributed;\n                _setupRole(CONTRIBUTOR_ROLE, account);\n            }\n        } else {\n            contributors[account] += amountContributed;\n            stakeholders[account] += amountContributed;\n        }\n    }\n\n    /// @notice Holds all the charity proposals made in the DAO.\n    mapping(uint256 => CharityProposal) private charityProposals;\n    /// @notice Holds all the stakeholders' address and their total contributions.\n    mapping(address => uint256[]) private stakeholderVotes;\n    /// @notice Holds all the contributors' address and their total contributions.\n    mapping(address => uint256) private contributors;\n    /// Holds all the stakeholders' address and their total contributions.\n    mapping(address => uint256) private stakeholders;\n\n    /// @notice A new type definition that holds the necessary variables that makes up a charity proposal.\n    struct CharityProposal {\n        uint256 id;\n        uint256 amount;\n        uint256 livePeriod;\n        uint256 votesFor;\n        uint256 votesAgainst;\n        string description;\n        bool votingPassed;\n        bool paid;\n        address payable charityAddress;\n        address proposer;\n        address paidBy;\n    }\n\n    /// @notice Event that is emitted when a contribution is received.\n    /// @param fromAddress The address the contribution came from.\n    /// @param amount The amount of celo that was sent.\n    event ContributionReceived(address indexed fromAddress, uint256 amount);\n    /// @notice Event that is emitted when a new proposal is added to the list of proposals.\n    /// @param proposer The address of the contributer/stakeholder that created the proposal.\n    /// @param amount The amount that is requested for.\n    event NewCharityProposal(address indexed proposer, uint256 amount);\n    /// @notice Event that is emitted when payment is made to a charity.\n    /// @param stakeholder The stakeholder tha made the payment.\n    /// @param charityAddress The charity that payment was made to.\n    /// @param amount The amount that was paid.\n    event PaymentTransfered(\n        address indexed stakeholder,\n        address indexed charityAddress,\n        uint256 amount\n    );\n\n    modifier onlyStakeholder(string memory message) {\n        require(hasRole(STAKEHOLDER_ROLE, msg.sender), message);\n        _;\n    }\n\n    modifier onlyContributor(string memory message) {\n        require(hasRole(CONTRIBUTOR_ROLE, msg.sender), message);\n        _;\n    }\n\n    /// @notice Adds a new proposal to the `charityProposals` mapping.\n    /// @param description A brief description of why the proposal should be voted for.\n    /// @param charityAddress The address of the charity.\n    /// @param amount The amount of celo.\n    function createProposal(\n        string calldata description,\n        address charityAddress,\n        uint256 amount\n    )\n        external\n    // onlyStakeholder(\"Only stakeholders are allowed to create proposals\")\n    {\n        uint256 proposalId = numOfProposals++;\n        CharityProposal storage proposal = charityProposals[proposalId];\n        proposal.id = proposalId;\n        proposal.proposer = payable(msg.sender);\n        proposal.description = description;\n        proposal.charityAddress = payable(charityAddress);\n        proposal.amount = amount;\n        proposal.livePeriod = block.timestamp + minimumVotingPeriod;\n\n        emit NewCharityProposal(msg.sender, amount);\n    }\n\n    /// @notice Vote for a particular proposal. Only stakeholders are allowed to vote.\n    /// @param proposalId The id of the charity proposal being voted for.\n    /// @param supportProposal true to vote for and false against.\n    function vote(uint256 proposalId, bool supportProposal)\n        external\n        onlyStakeholder(\"Only stakeholders are allowed to vote\")\n    {\n        CharityProposal storage charityProposal = charityProposals[proposalId];\n\n        votable(charityProposal);\n\n        if (supportProposal) charityProposal.votesFor++;\n        else charityProposal.votesAgainst++;\n\n        stakeholderVotes[msg.sender].push(charityProposal.id);\n    }\n\n    /// @notice Contains some conditionals that validate a proposal to be voted on.\n    /// @param charityProposal a parameter just like in doxygen (must be followed by parameter name)\n    function votable(CharityProposal storage charityProposal) private {\n        if (\n            charityProposal.votingPassed ||\n            charityProposal.livePeriod <= block.timestamp\n        ) {\n            charityProposal.votingPassed = true;\n            revert(\"Voting period has passed on this proposal\");\n        }\n\n        uint256[] memory tempVotes = stakeholderVotes[msg.sender];\n        for (uint256 votes = 0; votes < tempVotes.length; votes++) {\n            if (charityProposal.id == tempVotes[votes])\n                revert(\"This stakeholder already voted on this proposal\");\n        }\n    }\n\n    /// @notice This function makes payent to a Charity after the voting period of the proposal. Can only be called by a Stakeholder.\n    /// @param proposalId The id of the proposal to pay to.\n    function payCharity(uint256 proposalId)\n        external\n        onlyStakeholder(\"Only stakeholders are allowed to make payments\")\n    {\n        CharityProposal storage charityProposal = charityProposals[proposalId];\n\n        if (charityProposal.paid)\n            revert(\"Payment has been made to this charity\");\n\n        if (charityProposal.votesFor <= charityProposal.votesAgainst)\n            revert(\n                \"The proposal does not have the required amount of votes to pass\"\n            );\n\n        charityProposal.paid = true;\n\n        emit PaymentTransfered(\n            msg.sender,\n            charityProposal.charityAddress,\n            charityProposal.amount\n        );\n\n        return charityProposal.charityAddress.transfer(charityProposal.amount);\n    }\n\n    receive() external payable {\n        makeStakeholderDumy();\n    }\n\n    /// @notice This function adds a new stakeholder if the total contribution is >= 5 celo\n    function makeStakeholder() private {\n        address account = msg.sender;\n        uint256 amountContributed = msg.value;\n        contributors[account] += amountContributed;\n        _setupRole(CONTRIBUTOR_ROLE, account);\n        // if (!hasRole(STAKEHOLDER_ROLE, account)) {\n        //     uint256 totalContributed =\n        //         contributors[account] + amountContributed;\n        //     if (totalContributed >= 5000000000000000000) {\n        //         stakeholders[account] = totalContributed;\n        //         contributors[account] += amountContributed;\n        //         _setupRole(STAKEHOLDER_ROLE, account);\n        //         _setupRole(CONTRIBUTOR_ROLE, account);\n        //     } else {\n        //         contributors[account] += amountContributed;\n        //         _setupRole(CONTRIBUTOR_ROLE, account);\n        //     }\n        // } else {\n        //     contributors[account] += amountContributed;\n        //     stakeholders[account] += amountContributed;\n        // }\n    }\n\n    function getProposals()\n        public\n        view\n        returns (CharityProposal[] memory props)\n    {\n        props = new CharityProposal[](numOfProposals + 1);\n\n        for (uint256 index = 0; index < numOfProposals; index++) {\n            props[index] = charityProposals[index];\n        }\n    }\n\n    function getProposal(uint256 proposalId)\n        public\n        view\n        returns (CharityProposal memory)\n    {\n        return charityProposals[proposalId];\n    }\n\n    function getStakeholderVotes(address stakeholder)\n        public\n        view\n        returns (uint256[] memory)\n    {\n        return stakeholderVotes[stakeholder];\n    }\n\n    function getStakeholderBalance(address stakeholder)\n        public\n        view\n        onlyStakeholder(\"User is not a stakeholder\")\n        returns (uint256)\n    {\n        return stakeholders[stakeholder];\n    }\n\n    function isStakeholder(address stakeholder) public view returns (bool) {\n        return stakeholders[stakeholder] > 0;\n    }\n\n    function getContributorBalance(address contributor)\n        public\n        view\n        onlyContributor(\"User is not a contributor\")\n        returns (uint256)\n    {\n        return contributors[contributor];\n    }\n\n    function isContributor(address contributor) public view returns (bool) {\n        return contributors[contributor] > 0;\n    }\n}\n",
  "sourcePath": "/Users/mac/Projects/PhoenixTech/Tutorials/projects/charlo/contracts/CharloDAO.sol",
  "compiler": {
    "name": "solc",
    "version": "0.8.4+commit.c7e474f2.Emscripten.clang"
  },
  "schemaVersion": "3.3.4",
  "updatedAt": "2021-06-03T10:23:17.767Z",
  "networkType": "ethereum",
  "devdoc": {
    "author": "Segun Ogundipe David",
    "events": {
      "ContributionReceived(address,uint256)": {
        "params": {
          "amount": "The amount of celo that was sent.",
          "fromAddress": "The address the contribution came from."
        }
      },
      "NewCharityProposal(address,uint256)": {
        "params": {
          "amount": "The amount that is requested for.",
          "proposer": "The address of the contributer/stakeholder that created the proposal."
        }
      },
      "PaymentTransfered(address,address,uint256)": {
        "params": {
          "amount": "The amount that was paid.",
          "charityAddress": "The charity that payment was made to.",
          "stakeholder": "The stakeholder tha made the payment."
        }
      }
    },
    "kind": "dev",
    "methods": {
      "createProposal(string,address,uint256)": {
        "params": {
          "amount": "The amount of celo.",
          "charityAddress": "The address of the charity.",
          "description": "A brief description of why the proposal should be voted for."
        }
      },
      "getRoleAdmin(bytes32)": {
        "details": "Returns the admin role that controls `role`. See {grantRole} and {revokeRole}. To change a role's admin, use {_setRoleAdmin}."
      },
      "grantRole(bytes32,address)": {
        "details": "Grants `role` to `account`. If `account` had not been already granted `role`, emits a {RoleGranted} event. Requirements: - the caller must have ``role``'s admin role."
      },
      "hasRole(bytes32,address)": {
        "details": "Returns `true` if `account` has been granted `role`."
      },
      "payCharity(uint256)": {
        "params": {
          "proposalId": "The id of the proposal to pay to."
        }
      },
      "renounceRole(bytes32,address)": {
        "details": "Revokes `role` from the calling account. Roles are often managed via {grantRole} and {revokeRole}: this function's purpose is to provide a mechanism for accounts to lose their privileges if they are compromised (such as when a trusted device is misplaced). If the calling account had been granted `role`, emits a {RoleRevoked} event. Requirements: - the caller must be `account`."
      },
      "revokeRole(bytes32,address)": {
        "details": "Revokes `role` from `account`. If `account` had been granted `role`, emits a {RoleRevoked} event. Requirements: - the caller must have ``role``'s admin role."
      },
      "supportsInterface(bytes4)": {
        "details": "See {IERC165-supportsInterface}."
      },
      "vote(uint256,bool)": {
        "params": {
          "proposalId": "The id of the charity proposal being voted for.",
          "supportProposal": "true to vote for and false against."
        }
      }
    },
    "title": "CharloDAO",
    "version": 1
  },
  "userdoc": {
    "events": {
      "ContributionReceived(address,uint256)": {
        "notice": "Event that is emitted when a contribution is received."
      },
      "NewCharityProposal(address,uint256)": {
        "notice": "Event that is emitted when a new proposal is added to the list of proposals."
      },
      "PaymentTransfered(address,address,uint256)": {
        "notice": "Event that is emitted when payment is made to a charity."
      }
    },
    "kind": "user",
    "methods": {
      "createProposal(string,address,uint256)": {
        "notice": "Adds a new proposal to the `charityProposals` mapping."
      },
      "payCharity(uint256)": {
        "notice": "This function makes payent to a Charity after the voting period of the proposal. Can only be called by a Stakeholder."
      },
      "vote(uint256,bool)": {
        "notice": "Vote for a particular proposal. Only stakeholders are allowed to vote."
      }
    },
    "version": 1
  }
}